{
  "_format": "hh-sol-artifact-1",
  "contractName": "AvailableRootsRegistry",
  "sourceName": "contracts/lib/periphery/AvailableRootsRegistry.sol",
  "abi": [
    {
      "inputs": [
        {
          "internalType": "address",
          "name": "owner",
          "type": "address"
        }
      ],
      "stateMutability": "nonpayable",
      "type": "constructor"
    },
    {
      "anonymous": false,
      "inputs": [
        {
          "indexed": false,
          "internalType": "uint8",
          "name": "version",
          "type": "uint8"
        }
      ],
      "name": "Initialized",
      "type": "event"
    },
    {
      "anonymous": false,
      "inputs": [
        {
          "indexed": true,
          "internalType": "address",
          "name": "previousOwner",
          "type": "address"
        },
        {
          "indexed": true,
          "internalType": "address",
          "name": "newOwner",
          "type": "address"
        }
      ],
      "name": "OwnershipTransferred",
      "type": "event"
    },
    {
      "anonymous": false,
      "inputs": [
        {
          "indexed": false,
          "internalType": "uint256",
          "name": "root",
          "type": "uint256"
        }
      ],
      "name": "RegisteredRoot",
      "type": "event"
    },
    {
      "anonymous": false,
      "inputs": [
        {
          "indexed": false,
          "internalType": "uint256",
          "name": "root",
          "type": "uint256"
        }
      ],
      "name": "UnregisteredRoot",
      "type": "event"
    },
    {
      "inputs": [],
      "name": "IMPLEMENTATION_VERSION",
      "outputs": [
        {
          "internalType": "uint8",
          "name": "",
          "type": "uint8"
        }
      ],
      "stateMutability": "view",
      "type": "function"
    },
    {
      "inputs": [
        {
          "internalType": "uint256",
          "name": "",
          "type": "uint256"
        }
      ],
      "name": "_roots",
      "outputs": [
        {
          "internalType": "bool",
          "name": "",
          "type": "bool"
        }
      ],
      "stateMutability": "view",
      "type": "function"
    },
    {
      "inputs": [
        {
          "internalType": "address",
          "name": "ownerAddress",
          "type": "address"
        }
      ],
      "name": "initialize",
      "outputs": [],
      "stateMutability": "nonpayable",
      "type": "function"
    },
    {
      "inputs": [
        {
          "internalType": "uint256",
          "name": "root",
          "type": "uint256"
        }
      ],
      "name": "isRootAvailable",
      "outputs": [
        {
          "internalType": "bool",
          "name": "",
          "type": "bool"
        }
      ],
      "stateMutability": "view",
      "type": "function"
    },
    {
      "inputs": [],
      "name": "owner",
      "outputs": [
        {
          "internalType": "address",
          "name": "",
          "type": "address"
        }
      ],
      "stateMutability": "view",
      "type": "function"
    },
    {
      "inputs": [
        {
          "internalType": "uint256",
          "name": "root",
          "type": "uint256"
        }
      ],
      "name": "registerRoot",
      "outputs": [],
      "stateMutability": "nonpayable",
      "type": "function"
    },
    {
      "inputs": [],
      "name": "renounceOwnership",
      "outputs": [],
      "stateMutability": "nonpayable",
      "type": "function"
    },
    {
      "inputs": [
        {
          "internalType": "address",
          "name": "newOwner",
          "type": "address"
        }
      ],
      "name": "transferOwnership",
      "outputs": [],
      "stateMutability": "nonpayable",
      "type": "function"
    },
    {
      "inputs": [
        {
          "internalType": "uint256",
          "name": "root",
          "type": "uint256"
        }
      ],
      "name": "unregisterRoot",
      "outputs": [],
      "stateMutability": "nonpayable",
      "type": "function"
    }
  ],
  "bytecode": "0x608060405234801561001057600080fd5b5060405161072c38038061072c83398101604081905261002f916101be565b61003833610047565b610041816100a2565b506101ee565b600080546001600160a01b038381166201000081810262010000600160b01b0319851617855560405193049190911692909183917f8be0079c531659141344cd1fd0a4f28419497f9722a3daafe3b4186f6b6457e091a35050565b600054600190610100900460ff161580156100c4575060005460ff8083169116105b61012b5760405162461bcd60e51b815260206004820152602e60248201527f496e697469616c697a61626c653a20636f6e747261637420697320616c72656160448201526d191e481a5b9a5d1a585b1a5e995960921b606482015260840160405180910390fd5b6000805461ffff191660ff8316176101001781556101576000546201000090046001600160a01b031690565b6001600160a01b0316148061016b5750303b155b156101795761017982610047565b6000805461ff001916905560405160ff821681527f7f26b83ff96e1f2b6a682f133852f6798a09c465da95921460cefb38474024989060200160405180910390a15050565b6000602082840312156101d057600080fd5b81516001600160a01b03811681146101e757600080fd5b9392505050565b61052f806101fd6000396000f3fe608060405234801561001057600080fd5b50600436106100935760003560e01c80638da5cb5b116100665780638da5cb5b14610107578063900402e114610131578063c4d66de814610144578063f2fde38b14610157578063fbacef5f1461016a57600080fd5b8063194441cd14610098578063626350fb146100d0578063715018a6146100e5578063754b377c146100ed575b600080fd5b6100bb6100a63660046104b0565b60016020526000908152604090205460ff1681565b60405190151581526020015b60405180910390f35b6100e36100de3660046104b0565b61018d565b005b6100e36101a1565b6100f5600181565b60405160ff90911681526020016100c7565b6000546201000090046001600160a01b03166040516001600160a01b0390911681526020016100c7565b6100e361013f3660046104b0565b6101b5565b6100e36101523660046104c9565b6101c6565b6100e36101653660046104c9565b6102e4565b6100bb6101783660046104b0565b60009081526001602052604090205460ff1690565b61019561035a565b61019e816103bb565b50565b6101a961035a565b6101b3600061040d565b565b6101bd61035a565b61019e81610468565b600054600190610100900460ff161580156101e8575060005460ff8083169116105b6102505760405162461bcd60e51b815260206004820152602e60248201527f496e697469616c697a61626c653a20636f6e747261637420697320616c72656160448201526d191e481a5b9a5d1a585b1a5e995960921b60648201526084015b60405180910390fd5b6000805461ffff191660ff83161761010017815561027d6000546001600160a01b03620100009091041690565b6001600160a01b031614806102915750303b155b1561029f5761029f8261040d565b6000805461ff001916905560405160ff821681527f7f26b83ff96e1f2b6a682f133852f6798a09c465da95921460cefb38474024989060200160405180910390a15050565b6102ec61035a565b6001600160a01b0381166103515760405162461bcd60e51b815260206004820152602660248201527f4f776e61626c653a206e6577206f776e657220697320746865207a65726f206160448201526564647265737360d01b6064820152608401610247565b61019e8161040d565b6000546001600160a01b03620100009091041633146101b35760405162461bcd60e51b815260206004820181905260248201527f4f776e61626c653a2063616c6c6572206973206e6f7420746865206f776e65726044820152606401610247565b600081815260016020818152604092839020805460ff191690921790915590518281527fe51e1c952cd15d86c7e62a1c30d0219e8ac6c3f4a694d954ef14d393d12d11e091015b60405180910390a150565b600080546001600160a01b038381166201000081810262010000600160b01b0319851617855560405193049190911692909183917f8be0079c531659141344cd1fd0a4f28419497f9722a3daafe3b4186f6b6457e091a35050565b60008181526001602052604090819020805460ff19169055517fab9280351ddbb17e0349823e22b8ac97cf96376d800ce86bdf9e16920ca29cc9906104029083815260200190565b6000602082840312156104c257600080fd5b5035919050565b6000602082840312156104db57600080fd5b81356001600160a01b03811681146104f257600080fd5b939250505056fea26469706673582212202132d2094100bc3d4bcf45a6ae0025b50a944ad0a736fb56af512ff86a45d93364736f6c63430008110033",
  "linkReferences": {},
  "deployedLinkReferences": {}
}