{
  "_format": "hh-sol-artifact-1",
  "contractName": "PromotionMain",
  "sourceName": "contracts/PromotionMainWithSismo.sol",
  "abi": [
    {
      "inputs": [
        {
          "internalType": "bytes16",
          "name": "appId",
          "type": "bytes16"
        }
      ],
      "stateMutability": "nonpayable",
      "type": "constructor"
    },
    {
      "inputs": [
        {
          "internalType": "bytes16",
          "name": "receivedAppId",
          "type": "bytes16"
        },
        {
          "internalType": "bytes16",
          "name": "expectedAppId",
          "type": "bytes16"
        }
      ],
      "name": "AppIdMismatch",
      "type": "error"
    },
    {
      "inputs": [
        {
          "internalType": "bytes16",
          "name": "receivedNamespace",
          "type": "bytes16"
        },
        {
          "internalType": "bytes16",
          "name": "expectedNamespace",
          "type": "bytes16"
        }
      ],
      "name": "NamespaceMismatch",
      "type": "error"
    },
    {
      "inputs": [],
      "name": "ZkConnectResponseIsEmpty",
      "type": "error"
    },
    {
      "anonymous": false,
      "inputs": [
        {
          "indexed": false,
          "internalType": "bytes32",
          "name": "promotionId",
          "type": "bytes32"
        },
        {
          "indexed": false,
          "internalType": "address",
          "name": "claimer",
          "type": "address"
        },
        {
          "indexed": false,
          "internalType": "uint256",
          "name": "claimsCount",
          "type": "uint256"
        },
        {
          "indexed": false,
          "internalType": "uint256",
          "name": "claimedAt",
          "type": "uint256"
        }
      ],
      "name": "ClaimedPromotion",
      "type": "event"
    },
    {
      "anonymous": false,
      "inputs": [
        {
          "indexed": false,
          "internalType": "bytes32",
          "name": "promotionId",
          "type": "bytes32"
        },
        {
          "indexed": false,
          "internalType": "uint256",
          "name": "amount",
          "type": "uint256"
        }
      ],
      "name": "GasTankFilled",
      "type": "event"
    },
    {
      "anonymous": false,
      "inputs": [
        {
          "indexed": false,
          "internalType": "bytes32",
          "name": "promotionId",
          "type": "bytes32"
        },
        {
          "indexed": false,
          "internalType": "uint256",
          "name": "amount",
          "type": "uint256"
        }
      ],
      "name": "GasTankRefunded",
      "type": "event"
    },
    {
      "anonymous": false,
      "inputs": [
        {
          "indexed": false,
          "internalType": "uint32",
          "name": "destinationDomain",
          "type": "uint32"
        }
      ],
      "name": "NewChainAdded",
      "type": "event"
    },
    {
      "anonymous": false,
      "inputs": [
        {
          "indexed": true,
          "internalType": "address",
          "name": "previousOwner",
          "type": "address"
        },
        {
          "indexed": true,
          "internalType": "address",
          "name": "newOwner",
          "type": "address"
        }
      ],
      "name": "OwnershipTransferred",
      "type": "event"
    },
    {
      "anonymous": false,
      "inputs": [
        {
          "indexed": false,
          "internalType": "bytes32",
          "name": "promotionId",
          "type": "bytes32"
        },
        {
          "indexed": false,
          "internalType": "address",
          "name": "promotionAddress",
          "type": "address"
        },
        {
          "indexed": false,
          "internalType": "bytes16",
          "name": "groupId",
          "type": "bytes16"
        },
        {
          "indexed": false,
          "internalType": "uint32",
          "name": "destinationDomain",
          "type": "uint32"
        },
        {
          "indexed": false,
          "internalType": "address",
          "name": "creator",
          "type": "address"
        },
        {
          "indexed": false,
          "internalType": "uint256",
          "name": "createdAt",
          "type": "uint256"
        },
        {
          "indexed": false,
          "internalType": "uint256",
          "name": "claimsPerPerson",
          "type": "uint256"
        },
        {
          "indexed": false,
          "internalType": "string",
          "name": "badgeURI",
          "type": "string"
        }
      ],
      "name": "PromotionCreated",
      "type": "event"
    },
    {
      "inputs": [],
      "name": "ADDRESSES_PROVIDER",
      "outputs": [
        {
          "internalType": "contract IAddressesProvider",
          "name": "",
          "type": "address"
        }
      ],
      "stateMutability": "view",
      "type": "function"
    },
    {
      "inputs": [],
      "name": "IID_IERC1155",
      "outputs": [
        {
          "internalType": "bytes4",
          "name": "",
          "type": "bytes4"
        }
      ],
      "stateMutability": "view",
      "type": "function"
    },
    {
      "inputs": [],
      "name": "IID_IERC165",
      "outputs": [
        {
          "internalType": "bytes4",
          "name": "",
          "type": "bytes4"
        }
      ],
      "stateMutability": "view",
      "type": "function"
    },
    {
      "inputs": [],
      "name": "IID_IERC721",
      "outputs": [
        {
          "internalType": "bytes4",
          "name": "",
          "type": "bytes4"
        }
      ],
      "stateMutability": "view",
      "type": "function"
    },
    {
      "inputs": [],
      "name": "IID_PROMOTION",
      "outputs": [
        {
          "internalType": "bytes4",
          "name": "",
          "type": "bytes4"
        }
      ],
      "stateMutability": "view",
      "type": "function"
    },
    {
      "inputs": [],
      "name": "ZK_CONNECT_LIB_VERSION",
      "outputs": [
        {
          "internalType": "uint256",
          "name": "",
          "type": "uint256"
        }
      ],
      "stateMutability": "view",
      "type": "function"
    },
    {
      "inputs": [
        {
          "internalType": "uint32",
          "name": "destinationDomain",
          "type": "uint32"
        },
        {
          "internalType": "address",
          "name": "destinationReceiver",
          "type": "address"
        },
        {
          "internalType": "address",
          "name": "destinationMailbox",
          "type": "address"
        }
      ],
      "name": "addChain",
      "outputs": [],
      "stateMutability": "nonpayable",
      "type": "function"
    },
    {
      "inputs": [],
      "name": "appId",
      "outputs": [
        {
          "internalType": "bytes16",
          "name": "",
          "type": "bytes16"
        }
      ],
      "stateMutability": "view",
      "type": "function"
    },
    {
      "inputs": [
        {
          "internalType": "uint32",
          "name": "",
          "type": "uint32"
        }
      ],
      "name": "chains",
      "outputs": [
        {
          "internalType": "bytes32",
          "name": "destinationReceiverAddress",
          "type": "bytes32"
        },
        {
          "internalType": "address",
          "name": "destinationMailbox",
          "type": "address"
        },
        {
          "internalType": "bool",
          "name": "isExists",
          "type": "bool"
        }
      ],
      "stateMutability": "view",
      "type": "function"
    },
    {
      "inputs": [
        {
          "internalType": "bytes32",
          "name": "_promotionId",
          "type": "bytes32"
        },
        {
          "internalType": "uint32",
          "name": "destinationDomain",
          "type": "uint32"
        },
        {
          "internalType": "address",
          "name": "claimer",
          "type": "address"
        },
        {
          "internalType": "bytes",
          "name": "zkConnectResponse",
          "type": "bytes"
        },
        {
          "internalType": "bytes",
          "name": "encodedParams",
          "type": "bytes"
        }
      ],
      "name": "claimPromotion",
      "outputs": [],
      "stateMutability": "nonpayable",
      "type": "function"
    },
    {
      "inputs": [
        {
          "internalType": "bytes32",
          "name": "",
          "type": "bytes32"
        },
        {
          "internalType": "address",
          "name": "",
          "type": "address"
        }
      ],
      "name": "claims",
      "outputs": [
        {
          "internalType": "uint32",
          "name": "destinationDomain",
          "type": "uint32"
        },
        {
          "internalType": "address",
          "name": "promotionAddress",
          "type": "address"
        },
        {
          "internalType": "uint256",
          "name": "claimsCount",
          "type": "uint256"
        },
        {
          "internalType": "bool",
          "name": "isExists",
          "type": "bool"
        }
      ],
      "stateMutability": "view",
      "type": "function"
    },
    {
      "inputs": [
        {
          "internalType": "uint32",
          "name": "destinationDomain",
          "type": "uint32"
        },
        {
          "internalType": "uint256",
          "name": "claimsPerPerson",
          "type": "uint256"
        },
        {
          "internalType": "string",
          "name": "badgeURI",
          "type": "string"
        },
        {
          "internalType": "bytes16",
          "name": "groupId",
          "type": "bytes16"
        },
        {
          "internalType": "uint256",
          "name": "_salt",
          "type": "uint256"
        }
      ],
      "name": "createPromotion",
      "outputs": [],
      "stateMutability": "payable",
      "type": "function"
    },
    {
      "inputs": [],
      "name": "createTokenPromotion",
      "outputs": [],
      "stateMutability": "payable",
      "type": "function"
    },
    {
      "inputs": [
        {
          "internalType": "bytes32",
          "name": "_promotionId",
          "type": "bytes32"
        }
      ],
      "name": "fillGas",
      "outputs": [],
      "stateMutability": "payable",
      "type": "function"
    },
    {
      "inputs": [
        {
          "internalType": "bytes32",
          "name": "",
          "type": "bytes32"
        }
      ],
      "name": "gasTank",
      "outputs": [
        {
          "internalType": "uint256",
          "name": "",
          "type": "uint256"
        }
      ],
      "stateMutability": "view",
      "type": "function"
    },
    {
      "inputs": [
        {
          "internalType": "uint32",
          "name": "destinationDomain",
          "type": "uint32"
        }
      ],
      "name": "getQuotedPayment",
      "outputs": [
        {
          "internalType": "uint256",
          "name": "",
          "type": "uint256"
        }
      ],
      "stateMutability": "view",
      "type": "function"
    },
    {
      "inputs": [],
      "name": "igp",
      "outputs": [
        {
          "internalType": "contract IInterchainGasPaymaster",
          "name": "",
          "type": "address"
        }
      ],
      "stateMutability": "view",
      "type": "function"
    },
    {
      "inputs": [],
      "name": "iqsRouter",
      "outputs": [
        {
          "internalType": "contract IInterchainQueryRouter",
          "name": "",
          "type": "address"
        }
      ],
      "stateMutability": "view",
      "type": "function"
    },
    {
      "inputs": [
        {
          "internalType": "address",
          "name": "nftAddress",
          "type": "address"
        }
      ],
      "name": "isERC1155",
      "outputs": [
        {
          "internalType": "bool",
          "name": "",
          "type": "bool"
        }
      ],
      "stateMutability": "view",
      "type": "function"
    },
    {
      "inputs": [
        {
          "internalType": "address",
          "name": "nftAddress",
          "type": "address"
        }
      ],
      "name": "isERC721",
      "outputs": [
        {
          "internalType": "bool",
          "name": "",
          "type": "bool"
        }
      ],
      "stateMutability": "view",
      "type": "function"
    },
    {
      "inputs": [],
      "name": "mailbox",
      "outputs": [
        {
          "internalType": "contract IMailbox",
          "name": "",
          "type": "address"
        }
      ],
      "stateMutability": "view",
      "type": "function"
    },
    {
      "inputs": [],
      "name": "owner",
      "outputs": [
        {
          "internalType": "address",
          "name": "",
          "type": "address"
        }
      ],
      "stateMutability": "view",
      "type": "function"
    },
    {
      "inputs": [
        {
          "internalType": "bytes32",
          "name": "",
          "type": "bytes32"
        }
      ],
      "name": "promotions",
      "outputs": [
        {
          "internalType": "address",
          "name": "promotionAddress",
          "type": "address"
        },
        {
          "internalType": "uint32",
          "name": "destinationDomain",
          "type": "uint32"
        },
        {
          "internalType": "address",
          "name": "creator",
          "type": "address"
        },
        {
          "internalType": "uint256",
          "name": "createdAt",
          "type": "uint256"
        },
        {
          "internalType": "uint256",
          "name": "claimsPerPerson",
          "type": "uint256"
        },
        {
          "internalType": "bytes16",
          "name": "groupId",
          "type": "bytes16"
        },
        {
          "internalType": "bool",
          "name": "isExists",
          "type": "bool"
        }
      ],
      "stateMutability": "view",
      "type": "function"
    },
    {
      "inputs": [
        {
          "internalType": "bytes32",
          "name": "_promotionId",
          "type": "bytes32"
        },
        {
          "internalType": "address",
          "name": "_to",
          "type": "address"
        }
      ],
      "name": "refundGas",
      "outputs": [],
      "stateMutability": "nonpayable",
      "type": "function"
    },
    {
      "inputs": [],
      "name": "renounceOwnership",
      "outputs": [],
      "stateMutability": "nonpayable",
      "type": "function"
    },
    {
      "inputs": [
        {
          "internalType": "bytes4",
          "name": "interfaceId",
          "type": "bytes4"
        }
      ],
      "name": "supportsInterface",
      "outputs": [
        {
          "internalType": "bool",
          "name": "",
          "type": "bool"
        }
      ],
      "stateMutability": "pure",
      "type": "function"
    },
    {
      "inputs": [
        {
          "internalType": "address",
          "name": "newOwner",
          "type": "address"
        }
      ],
      "name": "transferOwnership",
      "outputs": [],
      "stateMutability": "nonpayable",
      "type": "function"
    }
  ],
  "bytecode": "0x60806040523480156200001157600080fd5b50604051620053f4380380620053f4833981016040819052620000349162000181565b80620000403362000131565b60018055600380546001600160801b031916608083901c179055604080518082018252601481527f7a6b436f6e6e65637456657269666965722d76320000000000000000000000006020820152905163349f642f60e11b8152733340ac0cafb3ae34ddd53dba0d7344c1cf3efe059163693ec85e91620000c49190600401620001b4565b602060405180830381865afa158015620000e2573d6000803e3d6000fd5b505050506040513d601f19601f8201168201806040525081019062000108919062000204565b600280546001600160a01b0319166001600160a01b0392909216919091179055506200022f9050565b600080546001600160a01b038381166001600160a01b0319831681178455604051919092169283917f8be0079c531659141344cd1fd0a4f28419497f9722a3daafe3b4186f6b6457e09190a35050565b6000602082840312156200019457600080fd5b81516001600160801b031981168114620001ad57600080fd5b9392505050565b600060208083528351808285015260005b81811015620001e357858101830151858201604001528201620001c5565b506000604082860101526040601f19601f8301168501019250505092915050565b6000602082840312156200021757600080fd5b81516001600160a01b0381168114620001ad57600080fd5b6151b5806200023f6000396000f3fe608060405260043610620001be5760003560e01c80638da5cb5b11620000ff578063d8b0857f1162000095578063ea272e39116200006c578063ea272e3914620005d0578063f28b2daa14620006a0578063f2fde38b14620006ca578063f8717e8d14620006ef57600080fd5b8063d8b0857f1462000577578063daa09e54146200058e578063e0966dad14620005b357600080fd5b80639cf4855811620000d65780639cf4855814620004ee578063a4027838146200050b578063cade147d1462000528578063d5438eae146200054d57600080fd5b80638da5cb5b14620003fe57806392256c0e146200041e5780639b8cfe5214620004b757600080fd5b806360cb07d0116200017557806380afdea8116200014c57806380afdea814620003275780638297dc20146200035d57806386e01f7814620003745780638b203dd4146200038b57600080fd5b806360cb07d014620002e5578063696c71e61462000265578063715018a6146200030f57600080fd5b806301ffc9a714620001c35780630542975c14620001fd5780630e08982414620002405780630ff966631462000267578063282e460a146200029b5780632deb22d914620002c0575b600080fd5b348015620001d057600080fd5b50620001e8620001e236600462001cae565b62000720565b60405190151581526020015b60405180910390f35b3480156200020a57600080fd5b5062000227733340ac0cafb3ae34ddd53dba0d7344c1cf3efe0581565b6040516001600160a01b039091168152602001620001f4565b3480156200024d57600080fd5b50620002656200025f36600462001e81565b62000758565b005b3480156200027457600080fd5b506200028c6200028636600462001f65565b62000d92565b604051908152602001620001f4565b348015620002a857600080fd5b50620001e8620002ba36600462001f83565b62000e25565b348015620002cd57600080fd5b5062000265620002df36600462001fa1565b62000e43565b348015620002f257600080fd5b506200022773f782c6c4a02f2c71bb8a1db0166fab40ea95681881565b3480156200031c57600080fd5b506200026562000ed6565b3480156200033457600080fd5b50600354620003439060801b81565b6040516001600160801b03199091168152602001620001f4565b620002656200036e36600462002002565b62000eec565b3480156200038157600080fd5b506200028c600281565b3480156200039857600080fd5b50620003d8620003aa36600462001f65565b600760205260009081526040902080546001909101546001600160a01b03811690600160a01b900460ff1683565b604080519384526001600160a01b039092166020840152151590820152606001620001f4565b3480156200040b57600080fd5b506000546001600160a01b031662000227565b3480156200042b57600080fd5b50620004856200043d36600462002090565b600560209081526000928352604080842090915290825290208054600182015460029092015463ffffffff8216926401000000009092046001600160a01b0316919060ff1684565b6040805163ffffffff90951685526001600160a01b0390931660208501529183015215156060820152608001620001f4565b348015620004c457600080fd5b50620004d4636cdb3d1360e11b81565b6040516001600160e01b03199091168152602001620001f4565b348015620004fb57600080fd5b50620004d46379476c2f60e11b81565b3480156200051857600080fd5b50620004d46301ffc9a760e01b81565b3480156200053557600080fd5b50620002656200054736600462002090565b620013cd565b3480156200055a57600080fd5b506200022773cc737a94fecaec165abcf12ded095bb13f03768581565b6200026562000588366004620020bf565b62001577565b3480156200059b57600080fd5b50620001e8620005ad36600462001f83565b620015e6565b348015620005c057600080fd5b50620004d46380ac58cd60e01b81565b348015620005dd57600080fd5b5062000649620005ef366004620020bf565b6004602081905260009182526040909120805460018201546002830154600384015493909401546001600160a01b0380841695600160a01b90940463ffffffff16949216929190608081901b90600160801b900460ff1687565b604080516001600160a01b03988916815263ffffffff9790971660208801529490961693850193909352606084019190915260808301526001600160801b03191660a082015290151560c082015260e001620001f4565b348015620006ad57600080fd5b506200022773f90cb82a76492614d07b82a7658917f3ac811ac181565b348015620006d757600080fd5b5062000265620006e936600462001f83565b62001604565b348015620006fc57600080fd5b506200028c6200070e366004620020bf565b60066020526000908152604090205481565b60006001600160e01b031982166379476c2f60e11b14806200075257506001600160e01b031982166301ffc9a760e01b145b92915050565b63ffffffff8516600090815260076020526040902060010154600160a01b900460ff16620007c35760405162461bcd60e51b815260206004820152601360248201527224b73b30b634b2102232b9ba34b730ba34b7b760691b60448201526064015b60405180910390fd5b6000600460008881526020019081526020016000206040518060e00160405290816000820160009054906101000a90046001600160a01b03166001600160a01b03166001600160a01b031681526020016000820160149054906101000a900463ffffffff1663ffffffff1663ffffffff1681526020016001820160009054906101000a90046001600160a01b03166001600160a01b03166001600160a01b0316815260200160028201548152602001600382015481526020016004820160009054906101000a900460801b6001600160801b0319166001600160801b03191681526020016004820160109054906101000a900460ff16151515158152505090506000600560008981526020019081526020016000206000876001600160a01b03166001600160a01b031681526020019081526020016000206040518060800160405290816000820160009054906101000a900463ffffffff1663ffffffff1663ffffffff1681526020016000820160049054906101000a90046001600160a01b03166001600160a01b03166001600160a01b03168152602001600182015481526020016002820160009054906101000a900460ff16151515158152505090508160c00151620009c95760405162461bcd60e51b815260206004820152601160248201527024b73b30b634b210283937b6b7ba34b7b760791b6044820152606401620007ba565b80606001511580620009e2575080604001518260800151115b62000a215760405162461bcd60e51b815260206004820152600e60248201526d4e6f206d6f726520636c61696d7360901b6044820152606401620007ba565b62000a7e8562000a32600162001683565b62000a418560a001516200172f565b87878080601f016020809104026020016040519081016040528093929190818152602001838380828437600092019190915250620017e692505050565b50815160009073cc737a94fecaec165abcf12ded095bb13f0376859063fa31de01908a906001600160a01b0316604080516001600160a01b038d166020820152016040516020818303038152906040526040518463ffffffff1660e01b815260040162000aee939291906200212d565b6020604051808303816000875af115801562000b0e573d6000803e3d6000fd5b505050506040513d601f19601f8201168201806040525081019062000b3491906200215d565b9050600062000b438962000d92565b60008b81526006602052604090205490915081111562000b995760405162461bcd60e51b815260206004820152601060248201526f496e73756666696369656e742067617360801b6044820152606401620007ba565b6040848101519051630237e58360e31b81526004810184905263ffffffff8b16602482015261c35060448201526001600160a01b03909116606482015273f90cb82a76492614d07b82a7658917f3ac811ac1906311bf2c189083906084016000604051808303818588803b15801562000c1157600080fd5b505af115801562000c26573d6000803e3d6000fd5b505050604080860151815160808101835263ffffffff8e16815288516001600160a01b031660208201529093509150810162000c648360016200218d565b815260200160011515815250600560008d815260200190815260200160002060008b6001600160a01b03166001600160a01b0316815260200190815260200160002060008201518160000160006101000a81548163ffffffff021916908363ffffffff16021790555060208201518160000160046101000a8154816001600160a01b0302191690836001600160a01b031602179055506040820151816001015560608201518160020160006101000a81548160ff0219169083151502179055509050507fbedef1a44fb6cfe49c7fe30af6b7064bf8ea312b5c021bf2eef157650df614f48b3383600162000d5991906200218d565b604080519384526001600160a01b0390921660208401529082015242606082015260800160405180910390a15050505050505050505050565b60405163a692979360e01b815263ffffffff8216600482015261c35060248201819052600091829073f90cb82a76492614d07b82a7658917f3ac811ac19063a692979390604401602060405180830381865afa15801562000df7573d6000803e3d6000fd5b505050506040513d601f19601f8201168201806040525081019062000e1d91906200215d565b949350505050565b6000620007526001600160a01b038316636cdb3d1360e11b620018ca565b62000e4d620018f2565b604051806060016040528062000e69846001600160a01b031690565b81526001600160a01b039283166020808301919091526001604092830181905263ffffffff90961660009081526007825282902083518155908301519501805492909101511515600160a01b026001600160a81b031990921694909216939093179290921790915550565b565b62000ee0620018f2565b62000ed460006200194e565b63ffffffff8516600090815260076020526040902060010154600160a01b900460ff1662000f535760405162461bcd60e51b815260206004820152601360248201527224b73b30b634b2102232b9ba34b730ba34b7b760691b6044820152606401620007ba565b60405160009062000f719085903390889087908790602001620021a3565b60408051601f1981840301815282825263ffffffff8916600090815260076020529182205463fa31de0160e01b8452909350909173cc737a94fecaec165abcf12ded095bb13f0376859163fa31de019162000fd3918b9187906004016200212d565b6020604051808303816000875af115801562000ff3573d6000803e3d6000fd5b505050506040513d601f19601f820116820180604052508101906200101991906200215d565b905060006200102c88868833886200199e565b9050600081898789604051602001620010499493929190620021ef565b60408051808303601f19018152918152815160209283012060008181526004938490529190912090910154909150600160801b900460ff1615620010c35760405162461bcd60e51b815260206004820152601060248201526f50726f6d6f74696f6e2065786973747360801b6044820152606401620007ba565b6000620010d08a62000d92565b905080341015620011175760405162461bcd60e51b815260206004820152601060248201526f496e73756666696369656e742067617360801b6044820152606401620007ba565b62001123813462002251565b60008381526006602052604081208054909190620011439084906200218d565b9091555050604051630237e58360e31b81526004810185905263ffffffff8b16602482015261c350604482015233606482015273f90cb82a76492614d07b82a7658917f3ac811ac1906311bf2c189083906084016000604051808303818588803b158015620011b157600080fd5b505af1158015620011c6573d6000803e3d6000fd5b50505050506040518060e00160405280846001600160a01b031681526020018b63ffffffff168152602001336001600160a01b031681526020014281526020018a8152602001886001600160801b0319168152602001600115158152506004600084815260200190815260200160002060008201518160000160006101000a8154816001600160a01b0302191690836001600160a01b0316021790555060208201518160000160146101000a81548163ffffffff021916908363ffffffff16021790555060408201518160010160006101000a8154816001600160a01b0302191690836001600160a01b03160217905550606082015181600201556080820151816003015560a08201518160040160006101000a8154816001600160801b03021916908360801c021790555060c08201518160040160106101000a81548160ff0219169083151502179055509050506000600660008481526020019081526020016000205411156200137a57600082815260066020908152604091829020548251858152918201527f1b70566610f058a3248c965ad2923a4829beb0d4cbe6a069e49c71ff46ce07ea910160405180910390a15b7fc45fb58549cc3ad24a8ac40361c9e9439bc6a9e0b2f8b712b3b8029422b7c47b8284898d33428f8f604051620013b998979695949392919062002267565b60405180910390a150505050505050505050565b620013d762001a9d565b6000828152600460205260409020600101546001600160a01b03163314620014315760405162461bcd60e51b815260206004820152600c60248201526b155b985d5d1a1bdc9a5e995960a21b6044820152606401620007ba565b6000828152600660205260409020546200147b5760405162461bcd60e51b815260206004820152600a6024820152694e6f2062616c616e636560b01b6044820152606401620007ba565b6000828152600660205260408082205490516001600160a01b03841691908381818185875af1925050503d8060008114620014d3576040519150601f19603f3d011682016040523d82523d6000602084013e620014d8565b606091505b50509050801562001536576000838152600660209081526040808320805493905580518681529182018390527f5aafa436e7bcce48335a89fd368e909dee8d7387d9349daaed3b167446d6841c910160405180910390a15062001568565b60405162461bcd60e51b815260206004820152600660248201526511985a5b195960d21b6044820152606401620007ba565b506200157360018055565b5050565b60008181526006602052604081208054349290620015979084906200218d565b9091555050600081815260066020908152604091829020548251848152918201527f1b70566610f058a3248c965ad2923a4829beb0d4cbe6a069e49c71ff46ce07ea910160405180910390a150565b6000620007526001600160a01b0383166380ac58cd60e01b620018ca565b6200160e620018f2565b6001600160a01b038116620016755760405162461bcd60e51b815260206004820152602660248201527f4f776e61626c653a206e6577206f776e657220697320746865207a65726f206160448201526564647265737360d01b6064820152608401620007ba565b62001680816200194e565b50565b620016ae60408051608081019091528060008152600060208201819052604082015260609081015290565b60405163caf2d05f60e01b815273__$7b95645771b2c59581507a6a4f3eeb8ab5$__9063caf2d05f90620016e790859060040162002302565b600060405180830381865af415801562001705573d6000803e3d6000fd5b505050506040513d6000823e601f3d908101601f19168201604052620007529190810190620023fc565b620017626040805160a0810182526000808252602082018190529181018290529060608201908152602001606081525090565b604051630dea957160e01b81526001600160801b03198316600482015273__$7b95645771b2c59581507a6a4f3eeb8ab5$__90630dea957190602401600060405180830381865af4158015620017bc573d6000803e3d6000fd5b505050506040513d6000823e601f3d908101601f19168201604052620007529190810190620024e5565b6040805160c0810182526000808252602082018190529181019190915260608082018190526080820181905260a08201526000858060200190518101906200182f919062002543565b905060006200184085878662001af8565b600254604051631c88b50360e21b81529192506001600160a01b031690637222d40c906200187590859085906004016200293f565b6000604051808303816000875af115801562001895573d6000803e3d6000fd5b505050506040513d6000823e601f3d908101601f19168201604052620018bf919081019062002d23565b979650505050505050565b6000620018d78362001b91565b8015620018eb5750620018eb838362001bc9565b9392505050565b6000546001600160a01b0316331462000ed45760405162461bcd60e51b815260206004820181905260248201527f4f776e61626c653a2063616c6c6572206973206e6f7420746865206f776e65726044820152606401620007ba565b600080546001600160a01b038381166001600160a01b0319831681178455604051919092169283917f8be0079c531659141344cd1fd0a4f28419497f9722a3daafe3b4186f6b6457e09190a35050565b60008060405180602001620019b39062001c50565b601f1982820381018352601f90910116604081815263ffffffff8a166000908152600760209081529190206001015462001a0292899233928c928b926001600160a01b03909216910162002e15565b60408051601f198184030181529082905262001a22929160200162002e66565b60408051808303601f1901815282825263ffffffff8a16600090815260076020908152928120548251848401206001600160f81b031994860194909452602185015260418401879052606184019290925292509060810160408051808303601f19018152919052805160209091012098975050505050505050565b60026001540362001af15760405162461bcd60e51b815260206004820152601f60248201527f5265656e7472616e637947756172643a207265656e7472616e742063616c6c006044820152606401620007ba565b6002600155565b62001b0262001c5e565b600354604051633a3b8c0560e21b815273__$7b95645771b2c59581507a6a4f3eeb8ab5$__9163e8ee30149162001b499188918891889160809190911b9060040162002e99565b600060405180830381865af415801562001b67573d6000803e3d6000fd5b505050506040513d6000823e601f3d908101601f1916820160405262000e1d919081019062002fab565b600062001ba6826301ffc9a760e01b62001bc9565b801562000752575062001bc2826001600160e01b031962001bc9565b1592915050565b604080516001600160e01b03198316602480830191909152825180830390910181526044909101909152602080820180516001600160e01b03166301ffc9a760e01b178152825160009392849283928392918391908a617530fa92503d9150600051905082801562001c3c575060208210155b8015620018bf575015159695505050505050565b611fd880620031a883390190565b604051806060016040528060006001600160801b031916815260200160006001600160801b031916815260200162001ca9604051806040016040528060608152602001606081525090565b905290565b60006020828403121562001cc157600080fd5b81356001600160e01b031981168114620018eb57600080fd5b803563ffffffff8116811462001cef57600080fd5b919050565b80356001600160a01b038116811462001cef57600080fd5b634e487b7160e01b600052604160045260246000fd5b604051608081016001600160401b038111828210171562001d475762001d4762001d0c565b60405290565b60405160a081016001600160401b038111828210171562001d475762001d4762001d0c565b60405160c081016001600160401b038111828210171562001d475762001d4762001d0c565b604051606081016001600160401b038111828210171562001d475762001d4762001d0c565b604080519081016001600160401b038111828210171562001d475762001d4762001d0c565b604051601f8201601f191681016001600160401b038111828210171562001e0c5762001e0c62001d0c565b604052919050565b60006001600160401b0382111562001e305762001e3062001d0c565b50601f01601f191660200190565b600062001e5562001e4f8462001e14565b62001de1565b905082815283838301111562001e6a57600080fd5b828260208301376000602084830101529392505050565b60008060008060008060a0878903121562001e9b57600080fd5b8635955062001ead6020880162001cda565b945062001ebd6040880162001cf4565b935060608701356001600160401b038082111562001eda57600080fd5b818901915089601f83011262001eef57600080fd5b62001f008a83356020850162001e3e565b9450608089013591508082111562001f1757600080fd5b818901915089601f83011262001f2c57600080fd5b81358181111562001f3c57600080fd5b8a602082850101111562001f4f57600080fd5b6020830194508093505050509295509295509295565b60006020828403121562001f7857600080fd5b620018eb8262001cda565b60006020828403121562001f9657600080fd5b620018eb8262001cf4565b60008060006060848603121562001fb757600080fd5b62001fc28462001cda565b925062001fd26020850162001cf4565b915062001fe26040850162001cf4565b90509250925092565b6001600160801b0319811681146200168057600080fd5b600080600080600060a086880312156200201b57600080fd5b620020268662001cda565b94506020860135935060408601356001600160401b038111156200204957600080fd5b8601601f810188136200205b57600080fd5b6200206c8882356020840162001e3e565b93505060608601356200207f8162001feb565b949793965091946080013592915050565b60008060408385031215620020a457600080fd5b82359150620020b66020840162001cf4565b90509250929050565b600060208284031215620020d257600080fd5b5035919050565b60005b83811015620020f6578181015183820152602001620020dc565b50506000910152565b6000815180845262002119816020860160208601620020d9565b601f01601f19169290920160200192915050565b63ffffffff84168152826020820152606060408201526000620021546060830184620020ff565b95945050505050565b6000602082840312156200217057600080fd5b5051919050565b634e487b7160e01b600052601160045260246000fd5b8082018082111562000752576200075262002177565b60a081526000620021b860a0830188620020ff565b6001600160a01b039690961660208301525060408101939093526001600160801b0319919091166060830152608090910152919050565b606085901b6bffffffffffffffffffffffff1916815260e084901b6001600160e01b03191660148201526001600160801b031983166018820152815160009062002241816028850160208701620020d9565b9190910160280195945050505050565b8181038181111562000752576200075262002177565b8881526001600160a01b0388811660208301526001600160801b03198816604083015263ffffffff871660608301528516608082015260a0810184905260c0810183905261010060e08201819052600090620022c683820185620020ff565b9b9a5050505050505050505050565b634e487b7160e01b600052602160045260246000fd5b60058110620022fe57620022fe620022d5565b9052565b60208101620007528284620022eb565b80516005811062001cef57600080fd5b8051801515811462001cef57600080fd5b600082601f8301126200234557600080fd5b81516200235662001e4f8262001e14565b8181528460208386010111156200236c57600080fd5b62000e1d826020830160208701620020d9565b6000608082840312156200239257600080fd5b6200239c62001d22565b9050620023a98262002312565b8152620023b96020830162002322565b60208201526040820151604082015260608201516001600160401b03811115620023e257600080fd5b620023f08482850162002333565b60608301525092915050565b6000602082840312156200240f57600080fd5b81516001600160401b038111156200242657600080fd5b62000e1d848285016200237f565b805162001cef8162001feb565b80516007811062001cef57600080fd5b600060a082840312156200246457600080fd5b6200246e62001d4d565b905081516200247d8162001feb565b815260208201516200248f8162001feb565b602082015260408281015190820152620024ac6060830162002441565b606082015260808201516001600160401b03811115620024cb57600080fd5b620024d98482850162002333565b60808301525092915050565b600060208284031215620024f857600080fd5b81516001600160401b038111156200250f57600080fd5b62000e1d8482850162002451565b60006001600160401b0382111562002539576200253962001d0c565b5060051b60200190565b600060208083850312156200255757600080fd5b82516001600160401b03808211156200256f57600080fd5b90840190608082870312156200258457600080fd5b6200258e62001d22565b82516200259b8162001feb565b815282840151620025ac8162001feb565b8185015260408381015190820152606083015182811115620025cd57600080fd5b80840193505086601f840112620025e357600080fd5b8251620025f462001e4f826200251d565b81815260059190911b840185019085810190898311156200261457600080fd5b8686015b838110156200273c578051868111156200263157600080fd5b870160c0818d03601f19011215620026495760008081fd5b6200265362001d72565b8982015188811115620026665760008081fd5b620026768e8c8386010162002451565b8252506040820151888111156200268d5760008081fd5b6200269d8e8c838601016200237f565b8b83015250606082015188811115620026b65760008081fd5b620026c68e8c8386010162002333565b6040830152506080820151606082015260a08083015189811115620026eb5760008081fd5b620026fb8f8d8387010162002333565b60808401525060c083015189811115620027155760008081fd5b620027258f8d8387010162002333565b918301919091525084525091870191870162002618565b5060608401525090979650505050505050565b60078110620022fe57620022fe620022d5565b60006001600160801b0319808351168452806020840151166020850152506040820151604084015260608201516200279e60608501826200274f565b50608082015160a0608085015262000e1d60a0850182620020ff565b620027c7828251620022eb565b60208101511515602083015260408101516040830152600060608201516080606085015262000e1d6080850182620020ff565b600081518084526020808501945080840160005b838110156200283f578151600281106200282c576200282c620022d5565b875295820195908201906001016200280e565b509495945050505050565b600060606001600160801b03198084511685526020818186015116818701526040915081850151838388015260a08701815184868a015281815180845260c08b01915060c08160051b8c01019350858301925060005b8181101562002911578b850360bf19018352835180518a8752620028c78b880182620027ba565b9050888201518782038a890152620028e0828262002762565b9150508982015191508681038a880152620028fc8183620020ff565b965050509286019291860191600101620028a0565b5050505081830151888203605f190160808a01529450620029338186620027fa565b98975050505050505050565b6000604080835260c08084016001600160801b031980885116848701526020808901516060838216818a0152868b015193506080915083828a0152808b0151935060a082818b015285855180885260e08c01915060e08160051b8d01019750858701965060005b8181101562002a53578c890360df19018352875180518b8b52620029cd8c8c018262002762565b9050888201518b82038a8d0152620029e68282620027ba565b9150508c8201518b82038e8d015262002a008282620020ff565b91505086820151878c0152878201518b8203898d015262002a228282620020ff565b9150508582015191508a8103868c015262002a3e8183620020ff565b9a5050509686019691860191600101620029a6565b505050505050868303818801525050620018bf81876200284a565b600082601f83011262002a8057600080fd5b8151602062002a9362001e4f836200251d565b82815260059290921b8401810191818101908684111562002ab357600080fd5b8286015b8481101562002b715780516001600160401b038082111562002ad95760008081fd5b9088019060a0828b03601f190181131562002af45760008081fd5b62002afe62001d4d565b62002b0b88850162002312565b8152604062002b1c81860162002322565b898301526060808601518284015260809150818601518581111562002b415760008081fd5b62002b518f8c838a010162002333565b918401919091525091909301519083015250835291830191830162002ab7565b509695505050505050565b600082601f83011262002b8e57600080fd5b8151602062002ba162001e4f836200251d565b82815260059290921b8401810191818101908684111562002bc157600080fd5b8286015b8481101562002b715780516001600160401b038082111562002be75760008081fd5b9088019060c0828b03601f190181131562002c025760008081fd5b62002c0c62001d72565b8784015162002c1b8162001feb565b815260408481015162002c2e8162001feb565b828a0152606062002c4186820162002441565b828401526080915081860151818401525060a0808601518581111562002c675760008081fd5b62002c778f8c838a010162002333565b928401929092529490920151938101939093525050835291830191830162002bc5565b600082601f83011262002cac57600080fd5b8151602062002cbf62001e4f836200251d565b82815260059290921b8401810191818101908684111562002cdf57600080fd5b8286015b8481101562002b715780516001600160401b0381111562002d045760008081fd5b62002d148986838b010162002333565b84525091830191830162002ce3565b60006020828403121562002d3657600080fd5b81516001600160401b038082111562002d4e57600080fd5b9083019060c0828603121562002d6357600080fd5b62002d6d62001d72565b62002d788362002434565b815262002d886020840162002434565b60208201526040830151604082015260608301518281111562002daa57600080fd5b62002db88782860162002a6e565b60608301525060808301518281111562002dd157600080fd5b62002ddf8782860162002b7c565b60808301525060a08301518281111562002df857600080fd5b62002e068782860162002c9a565b60a08301525095945050505050565b60a08152600062002e2a60a0830188620020ff565b6001600160a01b0396871660208401526001600160801b0319959095166040830152509184166060830152909216608090920191909152919050565b6000835162002e7a818460208801620020d9565b83519083019062002e90818360208801620020d9565b01949350505050565b6080815260006001600160801b03198087511660808401528060208801511660a0840152604087015160c0840152606087015162002edb60e08501826200274f565b50608087015160a061010085015262002ef9610120850182620020ff565b9050838103602085015262002f0f8188620027ba565b9050838103604085015262002f258187620020ff565b92505080841660608401525095945050505050565b600082601f83011262002f4c57600080fd5b8151602062002f5f62001e4f836200251d565b82815260059290921b8401810191818101908684111562002f7f57600080fd5b8286015b8481101562002b715780516002811062002f9d5760008081fd5b835291830191830162002f83565b60006020828403121562002fbe57600080fd5b81516001600160401b038082111562002fd657600080fd5b908301906060828603121562002feb57600080fd5b62002ff562001d97565b8251620030028162001feb565b81526020830151620030148162001feb565b60208201526040830151828111156200302c57600080fd5b9290920191604083870312156200304257600080fd5b6200304c62001dbc565b8351838111156200305c57600080fd5b8401601f810188136200306e57600080fd5b80516200307f62001e4f826200251d565b8082825260208201915060208360051b85010192508a831115620030a257600080fd5b602084015b838110156200316c57805188811115620030c057600080fd5b85016060818e03601f19011215620030d757600080fd5b620030e162001d97565b60208201518a811115620030f457600080fd5b620031058f6020838601016200237f565b82525060408201518a8111156200311b57600080fd5b6200312c8f60208386010162002451565b60208301525060608201518a8111156200314557600080fd5b620031568f60208386010162002333565b60408301525084525060209283019201620030a7565b5084525050506020840151838111156200318557600080fd5b620031938882870162002f3a565b60208301525060408201529594505050505056fe60806040523480156200001157600080fd5b5060405162001fd838038062001fd8833981016040819052620000349162000170565b6040518060400160405280600881526020016716985a5cd853919560c21b8152506040518060400160405280600381526020016216919560ea1b8152508160009081620000829190620002f0565b506001620000918282620002f0565b505050620000ae620000a8620000e760201b60201c565b620000eb565b6009620000bc8482620002f0565b50600a55600c80546001600160a01b0319166001600160a01b039290921691909117905550620003bc565b3390565b600780546001600160a01b038381166001600160a01b0319831681179093556040519116919082907f8be0079c531659141344cd1fd0a4f28419497f9722a3daafe3b4186f6b6457e090600090a35050565b634e487b7160e01b600052604160045260246000fd5b80516001600160a01b03811681146200016b57600080fd5b919050565b6000806000606084860312156200018657600080fd5b83516001600160401b03808211156200019e57600080fd5b818601915086601f830112620001b357600080fd5b815181811115620001c857620001c86200013d565b604051601f8201601f19908116603f01168101908382118183101715620001f357620001f36200013d565b816040528281526020935089848487010111156200021057600080fd5b600091505b8282101562000234578482018401518183018501529083019062000215565b60008484830101528097505050506200024f81870162000153565b93505050604084015190509250925092565b600181811c908216806200027657607f821691505b6020821081036200029757634e487b7160e01b600052602260045260246000fd5b50919050565b601f821115620002eb57600081815260208120601f850160051c81016020861015620002c65750805b601f850160051c820191505b81811015620002e757828155600101620002d2565b5050505b505050565b81516001600160401b038111156200030c576200030c6200013d565b62000324816200031d845462000261565b846200029d565b602080601f8311600181146200035c5760008415620003435750858301515b600019600386901b1c1916600185901b178555620002e7565b600085815260208120601f198616915b828110156200038d578886015182559484019460019091019084016200036c565b5085821015620003ac5787850151600019600388901b60f8161c191681555b5050505050600190811b01905550565b611c0c80620003cc6000396000f3fe608060405234801561001057600080fd5b50600436106101425760003560e01c8063715018a6116100b8578063b85ec5051161007c578063b85ec50514610289578063b88d4fde146102a4578063c87b56dd146102b7578063e0df5b6f146102ca578063e985e9c5146102dd578063f2fde38b146102f057600080fd5b8063715018a61461024c5780638da5cb5b1461025457806395d89b4114610265578063a22cb4651461026d578063b212ba9f1461028057600080fd5b806342842e0e1161010a57806342842e0e146101d75780634f8aaac6146101ea57806356d5d475146101f25780636352211e146102055780636769a0c41461021857806370a082311461022b57600080fd5b806301ffc9a71461014757806306fdde031461016f578063081812fc14610184578063095ea7b3146101af57806323b872dd146101c4575b600080fd5b61015a6101553660046115c2565b610303565b60405190151581526020015b60405180910390f35b610177610355565b604051610166919061162f565b610197610192366004611642565b6103e7565b6040516001600160a01b039091168152602001610166565b6101c26101bd366004611670565b61040e565b005b6101c26101d236600461169c565b610528565b6101c26101e536600461169c565b610562565b61017761057d565b6101c26102003660046116dd565b61060b565b610197610213366004611642565b6106d2565b600c54610197906001600160a01b031681565b61023e61023936600461176f565b610732565b604051908152602001610166565b6101c26107b8565b6007546001600160a01b0316610197565b6101776107cc565b6101c261027b36600461178c565b6107db565b61023e600a5481565b61019773cc737a94fecaec165abcf12ded095bb13f03768581565b6101c26102b2366004611856565b6107ea565b6101776102c5366004611642565b610868565b6101c26102d83660046118d6565b610873565b61015a6102eb36600461191f565b610887565b6101c26102fe36600461176f565b6108b5565b60006001600160e01b031982166380ac58cd60e01b148061033457506001600160e01b03198216635b5e139f60e01b145b8061034f57506301ffc9a760e01b6001600160e01b03198316145b92915050565b6060600080546103649061194d565b80601f01602080910402602001604051908101604052809291908181526020018280546103909061194d565b80156103dd5780601f106103b2576101008083540402835291602001916103dd565b820191906000526020600020905b8154815290600101906020018083116103c057829003601f168201915b5050505050905090565b60006103f28261092e565b506000908152600460205260409020546001600160a01b031690565b6000610419826106d2565b9050806001600160a01b0316836001600160a01b03160361048b5760405162461bcd60e51b815260206004820152602160248201527f4552433732313a20617070726f76616c20746f2063757272656e74206f776e656044820152603960f91b60648201526084015b60405180910390fd5b336001600160a01b03821614806104a757506104a78133610887565b6105195760405162461bcd60e51b815260206004820152603d60248201527f4552433732313a20617070726f76652063616c6c6572206973206e6f7420746f60448201527f6b656e206f776e6572206f7220617070726f76656420666f7220616c6c0000006064820152608401610482565b610523838361098d565b505050565b60405162461bcd60e51b815260206004820152600f60248201526e21b0b73737ba103a3930b739b332b960891b6044820152606401610482565b610523838383604051806020016040528060008152506107ea565b6009805461058a9061194d565b80601f01602080910402602001604051908101604052809291908181526020018280546105b69061194d565b80156106035780601f106105d857610100808354040283529160200191610603565b820191906000526020600020905b8154815290600101906020018083116105e657829003601f168201915b505050505081565b3373cc737a94fecaec165abcf12ded095bb13f0376851461062b57600080fd5b60006106398284018461176f565b6001600160a01b0381166000908152600b60205260408120549192500361066857610663816109fb565b6106cb565b600a546001600160a01b0382166000908152600b6020526040902054106106c25760405162461bcd60e51b815260206004820152600e60248201526d4e6f206d6f726520636c61696d7360901b6044820152606401610482565b6106cb81610b67565b5050505050565b6000818152600260205260408120546001600160a01b03168061034f5760405162461bcd60e51b8152602060048201526018602482015277115490cdcc8c4e881a5b9d985b1a59081d1bdad95b88125160421b6044820152606401610482565b60006001600160a01b03821661079c5760405162461bcd60e51b815260206004820152602960248201527f4552433732313a2061646472657373207a65726f206973206e6f7420612076616044820152683634b21037bbb732b960b91b6064820152608401610482565b506001600160a01b031660009081526003602052604090205490565b6107c0610be9565b6107ca6000610c43565b565b6060600180546103649061194d565b6107e6338383610c95565b5050565b6107f43383610d63565b6108565760405162461bcd60e51b815260206004820152602d60248201527f4552433732313a2063616c6c6572206973206e6f7420746f6b656e206f776e6560448201526c1c881bdc88185c1c1c9bdd9959609a1b6064820152608401610482565b61086284848484610dc2565b50505050565b606061034f82610df5565b61087b610be9565b60096107e682826119d5565b6001600160a01b03918216600090815260056020908152604080832093909416825291909152205460ff1690565b6108bd610be9565b6001600160a01b0381166109225760405162461bcd60e51b815260206004820152602660248201527f4f776e61626c653a206e6577206f776e657220697320746865207a65726f206160448201526564647265737360d01b6064820152608401610482565b61092b81610c43565b50565b6000818152600260205260409020546001600160a01b031661092b5760405162461bcd60e51b8152602060048201526018602482015277115490cdcc8c4e881a5b9d985b1a59081d1bdad95b88125160421b6044820152606401610482565b600081815260046020526040902080546001600160a01b0319166001600160a01b03841690811790915581906109c2826106d2565b6001600160a01b03167f8c5be1e5ebec7d5bd14f71427d1e84f3dd0314c0f7b2291e5b200ac8c7c3b92560405160405180910390a45050565b6001600160a01b0381166000908152600b602052604090205415610a545760405162461bcd60e51b815260206004820152601060248201526f105b1c9958591e481bdddb9cc813919560821b6044820152606401610482565b6000610a5f60085490565b9050610a6f600880546001019055565b610a798282610efd565b610b0d8160098054610a8a9061194d565b80601f0160208091040260200160405190810160405280929190818152602001828054610ab69061194d565b8015610b035780601f10610ad857610100808354040283529160200191610b03565b820191906000526020600020905b815481529060010190602001808311610ae657829003601f168201915b5050505050610f17565b6001600160a01b0382166000818152600b60209081526040918290206001908190558251938452908301527f2ace47925ca5e5683eb2c2eab99a115e60455cbfbe81a22bceb46f3399846c64910160405180910390a15050565b6001600160a01b0381166000908152600b60205260408120805460019290610b90908490611a95565b90915550506001600160a01b0381166000818152600b6020908152604091829020548251938452908301527f2ace47925ca5e5683eb2c2eab99a115e60455cbfbe81a22bceb46f3399846c64910160405180910390a150565b6007546001600160a01b031633146107ca5760405162461bcd60e51b815260206004820181905260248201527f4f776e61626c653a2063616c6c6572206973206e6f7420746865206f776e65726044820152606401610482565b600780546001600160a01b038381166001600160a01b0319831681179093556040519116919082907f8be0079c531659141344cd1fd0a4f28419497f9722a3daafe3b4186f6b6457e090600090a35050565b816001600160a01b0316836001600160a01b031603610cf65760405162461bcd60e51b815260206004820152601960248201527f4552433732313a20617070726f766520746f2063616c6c6572000000000000006044820152606401610482565b6001600160a01b03838116600081815260056020908152604080832094871680845294825291829020805460ff191686151590811790915591519182527f17307eab39ab6107e8899845ad3d59bd9653f200f220920489ca2b5937696c31910160405180910390a3505050565b600080610d6f836106d2565b9050806001600160a01b0316846001600160a01b03161480610d965750610d968185610887565b80610dba5750836001600160a01b0316610daf846103e7565b6001600160a01b0316145b949350505050565b610dcd848484610faa565b610dd98484848461110e565b6108625760405162461bcd60e51b815260040161048290611ab6565b6060610e008261092e565b60008281526006602052604081208054610e199061194d565b80601f0160208091040260200160405190810160405280929190818152602001828054610e459061194d565b8015610e925780601f10610e6757610100808354040283529160200191610e92565b820191906000526020600020905b815481529060010190602001808311610e7557829003601f168201915b505050505090506000610eb060408051602081019091526000815290565b90508051600003610ec2575092915050565b815115610ef4578082604051602001610edc929190611b08565b60405160208183030381529060405292505050919050565b610dba8461120f565b6107e6828260405180602001604052806000815250611283565b6000828152600260205260409020546001600160a01b0316610f925760405162461bcd60e51b815260206004820152602e60248201527f45524337323155524953746f726167653a2055524920736574206f66206e6f6e60448201526d32bc34b9ba32b73a103a37b5b2b760911b6064820152608401610482565b600082815260066020526040902061052382826119d5565b826001600160a01b0316610fbd826106d2565b6001600160a01b031614610fe35760405162461bcd60e51b815260040161048290611b37565b6001600160a01b0382166110455760405162461bcd60e51b8152602060048201526024808201527f4552433732313a207472616e7366657220746f20746865207a65726f206164646044820152637265737360e01b6064820152608401610482565b826001600160a01b0316611058826106d2565b6001600160a01b03161461107e5760405162461bcd60e51b815260040161048290611b37565b600081815260046020908152604080832080546001600160a01b03199081169091556001600160a01b0387811680865260038552838620805460001901905590871680865283862080546001019055868652600290945282852080549092168417909155905184937fddf252ad1be2c89b69c2b068fc378daa952ba7f163c4a11628f55a4df523b3ef91a4505050565b60006001600160a01b0384163b1561120457604051630a85bd0160e11b81526001600160a01b0385169063150b7a0290611152903390899088908890600401611b7c565b6020604051808303816000875af192505050801561118d575060408051601f3d908101601f1916820190925261118a91810190611bb9565b60015b6111ea573d8080156111bb576040519150601f19603f3d011682016040523d82523d6000602084013e6111c0565b606091505b5080516000036111e25760405162461bcd60e51b815260040161048290611ab6565b805181602001fd5b6001600160e01b031916630a85bd0160e11b149050610dba565b506001949350505050565b606061121a8261092e565b600061123160408051602081019091526000815290565b90506000815111611251576040518060200160405280600081525061127c565b8061125b846112b6565b60405160200161126c929190611b08565b6040516020818303038152906040525b9392505050565b61128d8383611349565b61129a600084848461110e565b6105235760405162461bcd60e51b815260040161048290611ab6565b606060006112c3836114d4565b600101905060008167ffffffffffffffff8111156112e3576112e36117ca565b6040519080825280601f01601f19166020018201604052801561130d576020820181803683370190505b5090508181016020015b600019016f181899199a1a9b1b9c1cb0b131b232b360811b600a86061a8153600a850494508461131757509392505050565b6001600160a01b03821661139f5760405162461bcd60e51b815260206004820181905260248201527f4552433732313a206d696e7420746f20746865207a65726f20616464726573736044820152606401610482565b6000818152600260205260409020546001600160a01b0316156114045760405162461bcd60e51b815260206004820152601c60248201527f4552433732313a20746f6b656e20616c7265616479206d696e746564000000006044820152606401610482565b6000818152600260205260409020546001600160a01b0316156114695760405162461bcd60e51b815260206004820152601c60248201527f4552433732313a20746f6b656e20616c7265616479206d696e746564000000006044820152606401610482565b6001600160a01b038216600081815260036020908152604080832080546001019055848352600290915280822080546001600160a01b0319168417905551839291907fddf252ad1be2c89b69c2b068fc378daa952ba7f163c4a11628f55a4df523b3ef908290a45050565b60008072184f03e93ff9f4daa797ed6e38ed64bf6a1f0160401b83106115135772184f03e93ff9f4daa797ed6e38ed64bf6a1f0160401b830492506040015b6d04ee2d6d415b85acef8100000000831061153f576d04ee2d6d415b85acef8100000000830492506020015b662386f26fc10000831061155d57662386f26fc10000830492506010015b6305f5e1008310611575576305f5e100830492506008015b612710831061158957612710830492506004015b6064831061159b576064830492506002015b600a831061034f5760010192915050565b6001600160e01b03198116811461092b57600080fd5b6000602082840312156115d457600080fd5b813561127c816115ac565b60005b838110156115fa5781810151838201526020016115e2565b50506000910152565b6000815180845261161b8160208601602086016115df565b601f01601f19169290920160200192915050565b60208152600061127c6020830184611603565b60006020828403121561165457600080fd5b5035919050565b6001600160a01b038116811461092b57600080fd5b6000806040838503121561168357600080fd5b823561168e8161165b565b946020939093013593505050565b6000806000606084860312156116b157600080fd5b83356116bc8161165b565b925060208401356116cc8161165b565b929592945050506040919091013590565b600080600080606085870312156116f357600080fd5b843563ffffffff8116811461170757600080fd5b935060208501359250604085013567ffffffffffffffff8082111561172b57600080fd5b818701915087601f83011261173f57600080fd5b81358181111561174e57600080fd5b88602082850101111561176057600080fd5b95989497505060200194505050565b60006020828403121561178157600080fd5b813561127c8161165b565b6000806040838503121561179f57600080fd5b82356117aa8161165b565b9150602083013580151581146117bf57600080fd5b809150509250929050565b634e487b7160e01b600052604160045260246000fd5b600067ffffffffffffffff808411156117fb576117fb6117ca565b604051601f8501601f19908116603f01168101908282118183101715611823576118236117ca565b8160405280935085815286868601111561183c57600080fd5b858560208301376000602087830101525050509392505050565b6000806000806080858703121561186c57600080fd5b84356118778161165b565b935060208501356118878161165b565b925060408501359150606085013567ffffffffffffffff8111156118aa57600080fd5b8501601f810187136118bb57600080fd5b6118ca878235602084016117e0565b91505092959194509250565b6000602082840312156118e857600080fd5b813567ffffffffffffffff8111156118ff57600080fd5b8201601f8101841361191057600080fd5b610dba848235602084016117e0565b6000806040838503121561193257600080fd5b823561193d8161165b565b915060208301356117bf8161165b565b600181811c9082168061196157607f821691505b60208210810361198157634e487b7160e01b600052602260045260246000fd5b50919050565b601f82111561052357600081815260208120601f850160051c810160208610156119ae5750805b601f850160051c820191505b818110156119cd578281556001016119ba565b505050505050565b815167ffffffffffffffff8111156119ef576119ef6117ca565b611a03816119fd845461194d565b84611987565b602080601f831160018114611a385760008415611a205750858301515b600019600386901b1c1916600185901b1785556119cd565b600085815260208120601f198616915b82811015611a6757888601518255948401946001909101908401611a48565b5085821015611a855787850151600019600388901b60f8161c191681555b5050505050600190811b01905550565b8082018082111561034f57634e487b7160e01b600052601160045260246000fd5b60208082526032908201527f4552433732313a207472616e7366657220746f206e6f6e20455243373231526560408201527131b2b4bb32b91034b6b83632b6b2b73a32b960711b606082015260800190565b60008351611b1a8184602088016115df565b835190830190611b2e8183602088016115df565b01949350505050565b60208082526025908201527f4552433732313a207472616e736665722066726f6d20696e636f72726563742060408201526437bbb732b960d91b606082015260800190565b6001600160a01b0385811682528416602082015260408101839052608060608201819052600090611baf90830184611603565b9695505050505050565b600060208284031215611bcb57600080fd5b815161127c816115ac56fea2646970667358221220cae222d080fdd7e6e3518f6da7b542e5099aa1112737c03f937623cacd16e83a64736f6c63430008110033a2646970667358221220e708904eee991356cfeab5ffdc0c2bffb0b37f490616744fa68999f81e24141c64736f6c63430008110033",
  "linkReferences": {
    "contracts/lib/libs/utils/RequestBuilder.sol": {
      "RequestBuilder": [
        {
          "length": 20,
          "start": 6396
        },
        {
          "length": 20,
          "start": 6592
        },
        {
          "length": 20,
          "start": 7507
        }
      ]
    }
  },
  "deployedLinkReferences": {
    "contracts/lib/libs/utils/RequestBuilder.sol": {
      "RequestBuilder": [
        {
          "length": 20,
          "start": 5821
        },
        {
          "length": 20,
          "start": 6017
        },
        {
          "length": 20,
          "start": 6932
        }
      ]
    }
  }
}