{
  "_format": "hh-sol-artifact-1",
  "contractName": "PromotionMain",
  "sourceName": "contracts/PromotionMainWithSismo.sol",
  "abi": [
    {
      "inputs": [
        {
          "internalType": "bytes16",
          "name": "appId",
          "type": "bytes16"
        }
      ],
      "stateMutability": "nonpayable",
      "type": "constructor"
    },
    {
      "inputs": [
        {
          "internalType": "bytes16",
          "name": "receivedAppId",
          "type": "bytes16"
        },
        {
          "internalType": "bytes16",
          "name": "expectedAppId",
          "type": "bytes16"
        }
      ],
      "name": "AppIdMismatch",
      "type": "error"
    },
    {
      "inputs": [
        {
          "internalType": "bytes16",
          "name": "receivedNamespace",
          "type": "bytes16"
        },
        {
          "internalType": "bytes16",
          "name": "expectedNamespace",
          "type": "bytes16"
        }
      ],
      "name": "NamespaceMismatch",
      "type": "error"
    },
    {
      "inputs": [],
      "name": "ZkConnectResponseIsEmpty",
      "type": "error"
    },
    {
      "anonymous": false,
      "inputs": [
        {
          "indexed": false,
          "internalType": "bytes32",
          "name": "promotionId",
          "type": "bytes32"
        },
        {
          "indexed": false,
          "internalType": "address",
          "name": "claimer",
          "type": "address"
        },
        {
          "indexed": false,
          "internalType": "uint256",
          "name": "claimsCount",
          "type": "uint256"
        },
        {
          "indexed": false,
          "internalType": "uint256",
          "name": "claimedAt",
          "type": "uint256"
        }
      ],
      "name": "ClaimedPromotion",
      "type": "event"
    },
    {
      "anonymous": false,
      "inputs": [
        {
          "indexed": false,
          "internalType": "bytes32",
          "name": "promotionId",
          "type": "bytes32"
        },
        {
          "indexed": false,
          "internalType": "uint256",
          "name": "amount",
          "type": "uint256"
        }
      ],
      "name": "GasTankFilled",
      "type": "event"
    },
    {
      "anonymous": false,
      "inputs": [
        {
          "indexed": false,
          "internalType": "bytes32",
          "name": "promotionId",
          "type": "bytes32"
        },
        {
          "indexed": false,
          "internalType": "uint256",
          "name": "amount",
          "type": "uint256"
        }
      ],
      "name": "GasTankRefunded",
      "type": "event"
    },
    {
      "anonymous": false,
      "inputs": [
        {
          "indexed": false,
          "internalType": "uint32",
          "name": "destinationDomain",
          "type": "uint32"
        }
      ],
      "name": "NewChainAdded",
      "type": "event"
    },
    {
      "anonymous": false,
      "inputs": [
        {
          "indexed": true,
          "internalType": "address",
          "name": "previousOwner",
          "type": "address"
        },
        {
          "indexed": true,
          "internalType": "address",
          "name": "newOwner",
          "type": "address"
        }
      ],
      "name": "OwnershipTransferred",
      "type": "event"
    },
    {
      "anonymous": false,
      "inputs": [
        {
          "indexed": false,
          "internalType": "bytes32",
          "name": "promotionId",
          "type": "bytes32"
        },
        {
          "indexed": false,
          "internalType": "address",
          "name": "promotionAddress",
          "type": "address"
        },
        {
          "indexed": false,
          "internalType": "bytes16",
          "name": "groupId",
          "type": "bytes16"
        },
        {
          "indexed": false,
          "internalType": "uint32",
          "name": "destinationDomain",
          "type": "uint32"
        },
        {
          "indexed": false,
          "internalType": "address",
          "name": "creator",
          "type": "address"
        },
        {
          "indexed": false,
          "internalType": "uint256",
          "name": "createdAt",
          "type": "uint256"
        },
        {
          "indexed": false,
          "internalType": "uint256",
          "name": "claimsPerPerson",
          "type": "uint256"
        },
        {
          "indexed": false,
          "internalType": "string",
          "name": "badgeURI",
          "type": "string"
        }
      ],
      "name": "PromotionCreated",
      "type": "event"
    },
    {
      "inputs": [],
      "name": "ADDRESSES_PROVIDER",
      "outputs": [
        {
          "internalType": "contract IAddressesProvider",
          "name": "",
          "type": "address"
        }
      ],
      "stateMutability": "view",
      "type": "function"
    },
    {
      "inputs": [],
      "name": "ZK_CONNECT_LIB_VERSION",
      "outputs": [
        {
          "internalType": "uint256",
          "name": "",
          "type": "uint256"
        }
      ],
      "stateMutability": "view",
      "type": "function"
    },
    {
      "inputs": [
        {
          "internalType": "uint32",
          "name": "destinationDomain",
          "type": "uint32"
        },
        {
          "internalType": "address",
          "name": "destinationReceiver",
          "type": "address"
        },
        {
          "internalType": "address",
          "name": "destinationMailbox",
          "type": "address"
        }
      ],
      "name": "addChain",
      "outputs": [],
      "stateMutability": "nonpayable",
      "type": "function"
    },
    {
      "inputs": [],
      "name": "appId",
      "outputs": [
        {
          "internalType": "bytes16",
          "name": "",
          "type": "bytes16"
        }
      ],
      "stateMutability": "view",
      "type": "function"
    },
    {
      "inputs": [
        {
          "internalType": "uint32",
          "name": "",
          "type": "uint32"
        }
      ],
      "name": "chains",
      "outputs": [
        {
          "internalType": "bytes32",
          "name": "destinationReceiverAddress",
          "type": "bytes32"
        },
        {
          "internalType": "address",
          "name": "destinationMailbox",
          "type": "address"
        },
        {
          "internalType": "bool",
          "name": "isExists",
          "type": "bool"
        }
      ],
      "stateMutability": "view",
      "type": "function"
    },
    {
      "inputs": [
        {
          "internalType": "bytes32",
          "name": "_promotionId",
          "type": "bytes32"
        },
        {
          "internalType": "uint32",
          "name": "destinationDomain",
          "type": "uint32"
        },
        {
          "internalType": "address",
          "name": "claimer",
          "type": "address"
        },
        {
          "internalType": "bytes",
          "name": "zkConnectResponse",
          "type": "bytes"
        },
        {
          "internalType": "bytes",
          "name": "encodedParams",
          "type": "bytes"
        }
      ],
      "name": "claimPromotion",
      "outputs": [],
      "stateMutability": "nonpayable",
      "type": "function"
    },
    {
      "inputs": [
        {
          "internalType": "bytes32",
          "name": "",
          "type": "bytes32"
        },
        {
          "internalType": "address",
          "name": "",
          "type": "address"
        }
      ],
      "name": "claims",
      "outputs": [
        {
          "internalType": "uint32",
          "name": "destinationDomain",
          "type": "uint32"
        },
        {
          "internalType": "address",
          "name": "promotionAddress",
          "type": "address"
        },
        {
          "internalType": "uint256",
          "name": "claimsCount",
          "type": "uint256"
        },
        {
          "internalType": "bool",
          "name": "isExists",
          "type": "bool"
        }
      ],
      "stateMutability": "view",
      "type": "function"
    },
    {
      "inputs": [
        {
          "internalType": "string",
          "name": "name",
          "type": "string"
        },
        {
          "internalType": "string",
          "name": "symbol",
          "type": "string"
        },
        {
          "internalType": "uint32",
          "name": "destinationDomain",
          "type": "uint32"
        },
        {
          "internalType": "uint256",
          "name": "claimsPerPerson",
          "type": "uint256"
        },
        {
          "internalType": "string",
          "name": "badgeURI",
          "type": "string"
        },
        {
          "internalType": "bytes16",
          "name": "groupId",
          "type": "bytes16"
        },
        {
          "internalType": "uint256",
          "name": "_salt",
          "type": "uint256"
        }
      ],
      "name": "createPromotion",
      "outputs": [],
      "stateMutability": "payable",
      "type": "function"
    },
    {
      "inputs": [
        {
          "internalType": "bytes32",
          "name": "_promotionId",
          "type": "bytes32"
        }
      ],
      "name": "fillGas",
      "outputs": [],
      "stateMutability": "payable",
      "type": "function"
    },
    {
      "inputs": [
        {
          "internalType": "bytes32",
          "name": "",
          "type": "bytes32"
        }
      ],
      "name": "gasTank",
      "outputs": [
        {
          "internalType": "uint256",
          "name": "",
          "type": "uint256"
        }
      ],
      "stateMutability": "view",
      "type": "function"
    },
    {
      "inputs": [
        {
          "internalType": "uint32",
          "name": "destinationDomain",
          "type": "uint32"
        }
      ],
      "name": "getQuotedPayment",
      "outputs": [
        {
          "internalType": "uint256",
          "name": "",
          "type": "uint256"
        }
      ],
      "stateMutability": "view",
      "type": "function"
    },
    {
      "inputs": [],
      "name": "igp",
      "outputs": [
        {
          "internalType": "contract IInterchainGasPaymaster",
          "name": "",
          "type": "address"
        }
      ],
      "stateMutability": "view",
      "type": "function"
    },
    {
      "inputs": [],
      "name": "iqsRouter",
      "outputs": [
        {
          "internalType": "contract IInterchainQueryRouter",
          "name": "",
          "type": "address"
        }
      ],
      "stateMutability": "view",
      "type": "function"
    },
    {
      "inputs": [],
      "name": "mailbox",
      "outputs": [
        {
          "internalType": "contract IMailbox",
          "name": "",
          "type": "address"
        }
      ],
      "stateMutability": "view",
      "type": "function"
    },
    {
      "inputs": [],
      "name": "owner",
      "outputs": [
        {
          "internalType": "address",
          "name": "",
          "type": "address"
        }
      ],
      "stateMutability": "view",
      "type": "function"
    },
    {
      "inputs": [
        {
          "internalType": "bytes32",
          "name": "",
          "type": "bytes32"
        }
      ],
      "name": "promotions",
      "outputs": [
        {
          "internalType": "address",
          "name": "promotionAddress",
          "type": "address"
        },
        {
          "internalType": "uint32",
          "name": "destinationDomain",
          "type": "uint32"
        },
        {
          "internalType": "address",
          "name": "creator",
          "type": "address"
        },
        {
          "internalType": "uint256",
          "name": "createdAt",
          "type": "uint256"
        },
        {
          "internalType": "uint256",
          "name": "claimsPerPerson",
          "type": "uint256"
        },
        {
          "internalType": "bytes16",
          "name": "groupId",
          "type": "bytes16"
        },
        {
          "internalType": "bool",
          "name": "isExists",
          "type": "bool"
        }
      ],
      "stateMutability": "view",
      "type": "function"
    },
    {
      "inputs": [
        {
          "internalType": "bytes32",
          "name": "_promotionId",
          "type": "bytes32"
        },
        {
          "internalType": "address",
          "name": "_to",
          "type": "address"
        }
      ],
      "name": "refundGas",
      "outputs": [],
      "stateMutability": "nonpayable",
      "type": "function"
    },
    {
      "inputs": [],
      "name": "renounceOwnership",
      "outputs": [],
      "stateMutability": "nonpayable",
      "type": "function"
    },
    {
      "inputs": [
        {
          "internalType": "address",
          "name": "newOwner",
          "type": "address"
        }
      ],
      "name": "transferOwnership",
      "outputs": [],
      "stateMutability": "nonpayable",
      "type": "function"
    }
  ],
  "bytecode": "0x60806040523480156200001157600080fd5b50604051620051fa380380620051fa833981016040819052620000349162000181565b80620000403362000131565b60018055600380546001600160801b031916608083901c179055604080518082018252601481527f7a6b436f6e6e65637456657269666965722d76320000000000000000000000006020820152905163349f642f60e11b8152733340ac0cafb3ae34ddd53dba0d7344c1cf3efe059163693ec85e91620000c49190600401620001b4565b602060405180830381865afa158015620000e2573d6000803e3d6000fd5b505050506040513d601f19601f8201168201806040525081019062000108919062000204565b600280546001600160a01b0319166001600160a01b0392909216919091179055506200022f9050565b600080546001600160a01b038381166001600160a01b0319831681178455604051919092169283917f8be0079c531659141344cd1fd0a4f28419497f9722a3daafe3b4186f6b6457e09190a35050565b6000602082840312156200019457600080fd5b81516001600160801b031981168114620001ad57600080fd5b9392505050565b600060208083528351808285015260005b81811015620001e357858101830151858201604001528201620001c5565b506000604082860101526040601f19601f8301168501019250505092915050565b6000602082840312156200021757600080fd5b81516001600160a01b0381168114620001ad57600080fd5b614fbb806200023f6000396000f3fe6080604052600436106200012b5760003560e01c80638b203dd411620000ad578063d8b0857f116200006c578063d8b0857f1462000418578063ea272e39146200042f578063f28b2daa14620004ff578063f2fde38b1462000529578063f8717e8d146200054e57600080fd5b80638b203dd4146200029d5780638da5cb5b146200031057806392256c0e1462000330578063cade147d14620003c9578063d5438eae14620003ee57600080fd5b806360cb07d011620000fa57806360cb07d014620001f7578063715018a6146200022157806377ddcff4146200023957806380afdea8146200025057806386e01f78146200028657600080fd5b80630542975c14620001305780630e08982414620001775780630ff96663146200019e5780632deb22d914620001d2575b600080fd5b3480156200013d57600080fd5b506200015a733340ac0cafb3ae34ddd53dba0d7344c1cf3efe0581565b6040516001600160a01b0390911681526020015b60405180910390f35b3480156200018457600080fd5b506200019c6200019636600462001b74565b6200057f565b005b348015620001ab57600080fd5b50620001c3620001bd36600462001c58565b62000bb9565b6040519081526020016200016e565b348015620001df57600080fd5b506200019c620001f136600462001c7d565b62000c4c565b3480156200020457600080fd5b506200015a73f782c6c4a02f2c71bb8a1db0166fab40ea95681881565b3480156200022e57600080fd5b506200019c62000cdd565b6200019c6200024a36600462001d01565b62000cf5565b3480156200025d57600080fd5b506003546200026c9060801b81565b6040516001600160801b031990911681526020016200016e565b3480156200029357600080fd5b50620001c3600281565b348015620002aa57600080fd5b50620002ea620002bc36600462001c58565b600760205260009081526040902080546001909101546001600160a01b03811690600160a01b900460ff1683565b604080519384526001600160a01b0390921660208401521515908201526060016200016e565b3480156200031d57600080fd5b506000546001600160a01b03166200015a565b3480156200033d57600080fd5b50620003976200034f36600462001dcf565b600560209081526000928352604080842090915290825290208054600182015460029092015463ffffffff8216926401000000009092046001600160a01b0316919060ff1684565b6040805163ffffffff90951685526001600160a01b03909316602085015291830152151560608201526080016200016e565b348015620003d657600080fd5b506200019c620003e836600462001dcf565b620011e2565b348015620003fb57600080fd5b506200015a73cc737a94fecaec165abcf12ded095bb13f03768581565b6200019c6200042936600462001dfe565b6200138f565b3480156200043c57600080fd5b50620004a86200044e36600462001dfe565b6004602081905260009182526040909120805460018201546002830154600384015493909401546001600160a01b0380841695600160a01b90940463ffffffff16949216929190608081901b90600160801b900460ff1687565b604080516001600160a01b03988916815263ffffffff9790971660208801529490961693850193909352606084019190915260808301526001600160801b03191660a082015290151560c082015260e0016200016e565b3480156200050c57600080fd5b506200015a73f90cb82a76492614d07b82a7658917f3ac811ac181565b3480156200053657600080fd5b506200019c6200054836600462001e18565b620013fe565b3480156200055b57600080fd5b50620001c36200056d36600462001dfe565b60066020526000908152604090205481565b63ffffffff8516600090815260076020526040902060010154600160a01b900460ff16620005ea5760405162461bcd60e51b815260206004820152601360248201527224b73b30b634b2102232b9ba34b730ba34b7b760691b60448201526064015b60405180910390fd5b6000600460008881526020019081526020016000206040518060e00160405290816000820160009054906101000a90046001600160a01b03166001600160a01b03166001600160a01b031681526020016000820160149054906101000a900463ffffffff1663ffffffff1663ffffffff1681526020016001820160009054906101000a90046001600160a01b03166001600160a01b03166001600160a01b0316815260200160028201548152602001600382015481526020016004820160009054906101000a900460801b6001600160801b0319166001600160801b03191681526020016004820160109054906101000a900460ff16151515158152505090506000600560008981526020019081526020016000206000876001600160a01b03166001600160a01b031681526020019081526020016000206040518060800160405290816000820160009054906101000a900463ffffffff1663ffffffff1663ffffffff1681526020016000820160049054906101000a90046001600160a01b03166001600160a01b03166001600160a01b03168152602001600182015481526020016002820160009054906101000a900460ff16151515158152505090508160c00151620007f05760405162461bcd60e51b815260206004820152601160248201527024b73b30b634b210283937b6b7ba34b7b760791b6044820152606401620005e1565b8060600151158062000809575080604001518260800151115b620008485760405162461bcd60e51b815260206004820152600e60248201526d4e6f206d6f726520636c61696d7360901b6044820152606401620005e1565b620008a5856200085960016200147d565b620008688560a001516200152f565b87878080601f016020809104026020016040519081016040528093929190818152602001838380828437600092019190915250620015e692505050565b50815160009073cc737a94fecaec165abcf12ded095bb13f0376859063fa31de01908a906001600160a01b0316604080516001600160a01b038d166020820152016040516020818303038152906040526040518463ffffffff1660e01b8152600401620009159392919062001e8a565b6020604051808303816000875af115801562000935573d6000803e3d6000fd5b505050506040513d601f19601f820116820180604052508101906200095b919062001eba565b905060006200096a8962000bb9565b60008b815260066020526040902054909150811115620009c05760405162461bcd60e51b815260206004820152601060248201526f496e73756666696369656e742067617360801b6044820152606401620005e1565b6040848101519051630237e58360e31b81526004810184905263ffffffff8b16602482015261c35060448201526001600160a01b03909116606482015273f90cb82a76492614d07b82a7658917f3ac811ac1906311bf2c189083906084016000604051808303818588803b15801562000a3857600080fd5b505af115801562000a4d573d6000803e3d6000fd5b505050604080860151815160808101835263ffffffff8e16815288516001600160a01b031660208201529093509150810162000a8b83600162001eea565b815260200160011515815250600560008d815260200190815260200160002060008b6001600160a01b03166001600160a01b0316815260200190815260200160002060008201518160000160006101000a81548163ffffffff021916908363ffffffff16021790555060208201518160000160046101000a8154816001600160a01b0302191690836001600160a01b031602179055506040820151816001015560608201518160020160006101000a81548160ff0219169083151502179055509050507fbedef1a44fb6cfe49c7fe30af6b7064bf8ea312b5c021bf2eef157650df614f48b3383600162000b80919062001eea565b604080519384526001600160a01b0390921660208401529082015242606082015260800160405180910390a15050505050505050505050565b60405163a692979360e01b815263ffffffff8216600482015261c35060248201819052600091829073f90cb82a76492614d07b82a7658917f3ac811ac19063a692979390604401602060405180830381865afa15801562000c1e573d6000803e3d6000fd5b505050506040513d601f19601f8201168201806040525081019062000c44919062001eba565b949350505050565b62000c56620016ca565b604051806060016040528062000c72846001600160a01b031690565b81526001600160a01b039283166020808301919091526001604092830181905263ffffffff90961660009081526007825282902083518155908301519501805492909101511515600160a01b026001600160a81b031990921694909216939093179290921790915550565b62000ce7620016ca565b62000cf3600062001726565b565b63ffffffff8516600090815260076020526040902060010154600160a01b900460ff1662000d5c5760405162461bcd60e51b815260206004820152601360248201527224b73b30b634b2102232b9ba34b730ba34b7b760691b6044820152606401620005e1565b60405160009062000d7e9089908990879033908a908990899060200162001f00565b60408051601f1981840301815282825263ffffffff8916600090815260076020529182205463fa31de0160e01b8452909350909173cc737a94fecaec165abcf12ded095bb13f0376859163fa31de019162000de0918b91879060040162001e8a565b6020604051808303816000875af115801562000e00573d6000803e3d6000fd5b505050506040513d601f19601f8201168201806040525081019062000e26919062001eba565b9050600062000e3b8a8a8a888a338a62001776565b905060008a8a838b898b60405160200162000e5c9695949392919062001f79565b60408051808303601f19018152918152815160209283012060008181526004938490529190912090910154909150600160801b900460ff161562000ed65760405162461bcd60e51b815260206004820152601060248201526f50726f6d6f74696f6e2065786973747360801b6044820152606401620005e1565b600062000ee38a62000bb9565b90508034101562000f2a5760405162461bcd60e51b815260206004820152601060248201526f496e73756666696369656e742067617360801b6044820152606401620005e1565b62000f36813462002005565b6000838152600660205260408120805490919062000f5690849062001eea565b9091555050604051630237e58360e31b81526004810185905263ffffffff8b16602482015261c350604482015233606482015273f90cb82a76492614d07b82a7658917f3ac811ac1906311bf2c189083906084016000604051808303818588803b15801562000fc457600080fd5b505af115801562000fd9573d6000803e3d6000fd5b50505050506040518060e00160405280846001600160a01b031681526020018b63ffffffff168152602001336001600160a01b031681526020014281526020018a8152602001886001600160801b0319168152602001600115158152506004600084815260200190815260200160002060008201518160000160006101000a8154816001600160a01b0302191690836001600160a01b0316021790555060208201518160000160146101000a81548163ffffffff021916908363ffffffff16021790555060408201518160010160006101000a8154816001600160a01b0302191690836001600160a01b03160217905550606082015181600201556080820151816003015560a08201518160040160006101000a8154816001600160801b03021916908360801c021790555060c08201518160040160106101000a81548160ff0219169083151502179055509050506000600660008481526020019081526020016000205411156200118d57600082815260066020908152604091829020548251858152918201527f1b70566610f058a3248c965ad2923a4829beb0d4cbe6a069e49c71ff46ce07ea910160405180910390a15b7fc45fb58549cc3ad24a8ac40361c9e9439bc6a9e0b2f8b712b3b8029422b7c47b8284898d33428f8f604051620011cc9897969594939291906200201b565b60405180910390a1505050505050505050505050565b620011ec6200187b565b6000828152600460205260409020600101546001600160a01b03163314620012465760405162461bcd60e51b815260206004820152600c60248201526b155b985d5d1a1bdc9a5e995960a21b6044820152606401620005e1565b600082815260066020526040902054620012905760405162461bcd60e51b815260206004820152600a6024820152694e6f2062616c616e636560b01b6044820152606401620005e1565b60008281526006602052604080822054905182916001600160a01b038516918381818185875af1925050503d8060008114620012e9576040519150601f19603f3d011682016040523d82523d6000602084013e620012ee565b606091505b509150915081156200134d576000848152600660209081526040808320805493905580518781529182018390527f5aafa436e7bcce48335a89fd368e909dee8d7387d9349daaed3b167446d6841c910160405180910390a1506200137f565b60405162461bcd60e51b815260206004820152600660248201526511985a5b195960d21b6044820152606401620005e1565b50506200138b60018055565b5050565b60008181526006602052604081208054349290620013af90849062001eea565b9091555050600081815260066020908152604091829020548251848152918201527f1b70566610f058a3248c965ad2923a4829beb0d4cbe6a069e49c71ff46ce07ea910160405180910390a150565b62001408620016ca565b6001600160a01b0381166200146f5760405162461bcd60e51b815260206004820152602660248201527f4f776e61626c653a206e6577206f776e657220697320746865207a65726f206160448201526564647265737360d01b6064820152608401620005e1565b6200147a8162001726565b50565b620014a860408051608081019091528060008152600060208201819052604082015260609081015290565b60405163caf2d05f60e01b815273__$7b95645771b2c59581507a6a4f3eeb8ab5$__9063caf2d05f90620014e1908590600401620020b6565b600060405180830381865af4158015620014ff573d6000803e3d6000fd5b505050506040513d6000823e601f3d908101601f19168201604052620015299190810190620021b0565b92915050565b620015626040805160a0810182526000808252602082018190529181018290529060608201908152602001606081525090565b604051630dea957160e01b81526001600160801b03198316600482015273__$7b95645771b2c59581507a6a4f3eeb8ab5$__90630dea957190602401600060405180830381865af4158015620015bc573d6000803e3d6000fd5b505050506040513d6000823e601f3d908101601f1916820160405262001529919081019062002299565b6040805160c0810182526000808252602082018190529181019190915260608082018190526080820181905260a08201526000858060200190518101906200162f9190620022f7565b9050600062001640858786620018d6565b600254604051631c88b50360e21b81529192506001600160a01b031690637222d40c90620016759085908590600401620026f3565b6000604051808303816000875af115801562001695573d6000803e3d6000fd5b505050506040513d6000823e601f3d908101601f19168201604052620016bf919081019062002ad7565b979650505050505050565b6000546001600160a01b0316331462000cf35760405162461bcd60e51b815260206004820181905260248201527f4f776e61626c653a2063616c6c6572206973206e6f7420746865206f776e65726044820152606401620005e1565b600080546001600160a01b038381166001600160a01b0319831681178455604051919092169283917f8be0079c531659141344cd1fd0a4f28419497f9722a3daafe3b4186f6b6457e09190a35050565b600080604051806020016200178b906200196f565b601f1982820381018352601f90910116604081815263ffffffff8a1660009081526007602090815291902060010154620017de928d928d928b9233928e928d926001600160a01b03909116910162002bc9565b60408051601f1981840301815290829052620017fe929160200162002c47565b60408051808303601f1901815282825263ffffffff8a16600090815260076020908152928120548251848401206001600160f81b031994860194909452602185015260418401879052606184019290925292509060810160408051808303601f1901815291905280516020909101209a9950505050505050505050565b600260015403620018cf5760405162461bcd60e51b815260206004820152601f60248201527f5265656e7472616e637947756172643a207265656e7472616e742063616c6c006044820152606401620005e1565b6002600155565b620018e06200197d565b600354604051633a3b8c0560e21b815273__$7b95645771b2c59581507a6a4f3eeb8ab5$__9163e8ee301491620019279188918891889160809190911b9060040162002c7a565b600060405180830381865af415801562001945573d6000803e3d6000fd5b505050506040513d6000823e601f3d908101601f1916820160405262000c44919081019062002d8c565b611ffd8062002f8983390190565b604051806060016040528060006001600160801b031916815260200160006001600160801b0319168152602001620019c8604051806040016040528060608152602001606081525090565b905290565b803563ffffffff81168114620019e257600080fd5b919050565b80356001600160a01b0381168114620019e257600080fd5b634e487b7160e01b600052604160045260246000fd5b604051608081016001600160401b038111828210171562001a3a5762001a3a620019ff565b60405290565b60405160a081016001600160401b038111828210171562001a3a5762001a3a620019ff565b60405160c081016001600160401b038111828210171562001a3a5762001a3a620019ff565b604051606081016001600160401b038111828210171562001a3a5762001a3a620019ff565b604080519081016001600160401b038111828210171562001a3a5762001a3a620019ff565b604051601f8201601f191681016001600160401b038111828210171562001aff5762001aff620019ff565b604052919050565b60006001600160401b0382111562001b235762001b23620019ff565b50601f01601f191660200190565b600062001b4862001b428462001b07565b62001ad4565b905082815283838301111562001b5d57600080fd5b828260208301376000602084830101529392505050565b60008060008060008060a0878903121562001b8e57600080fd5b8635955062001ba060208801620019cd565b945062001bb060408801620019e7565b935060608701356001600160401b038082111562001bcd57600080fd5b818901915089601f83011262001be257600080fd5b62001bf38a83356020850162001b31565b9450608089013591508082111562001c0a57600080fd5b818901915089601f83011262001c1f57600080fd5b81358181111562001c2f57600080fd5b8a602082850101111562001c4257600080fd5b6020830194508093505050509295509295509295565b60006020828403121562001c6b57600080fd5b62001c7682620019cd565b9392505050565b60008060006060848603121562001c9357600080fd5b62001c9e84620019cd565b925062001cae60208501620019e7565b915062001cbe60408501620019e7565b90509250925092565b600082601f83011262001cd957600080fd5b62001c768383356020850162001b31565b6001600160801b0319811681146200147a57600080fd5b600080600080600080600060e0888a03121562001d1d57600080fd5b87356001600160401b038082111562001d3557600080fd5b62001d438b838c0162001cc7565b985060208a013591508082111562001d5a57600080fd5b62001d688b838c0162001cc7565b975062001d7860408b01620019cd565b965060608a0135955060808a013591508082111562001d9657600080fd5b5062001da58a828b0162001cc7565b93505060a088013562001db88162001cea565b8092505060c0880135905092959891949750929550565b6000806040838503121562001de357600080fd5b8235915062001df560208401620019e7565b90509250929050565b60006020828403121562001e1157600080fd5b5035919050565b60006020828403121562001e2b57600080fd5b62001c7682620019e7565b60005b8381101562001e5357818101518382015260200162001e39565b50506000910152565b6000815180845262001e7681602086016020860162001e36565b601f01601f19169290920160200192915050565b63ffffffff8416815282602082015260606040820152600062001eb1606083018462001e5c565b95945050505050565b60006020828403121562001ecd57600080fd5b5051919050565b634e487b7160e01b600052601160045260246000fd5b8082018082111562001529576200152962001ed4565b60e08152600062001f1560e083018a62001e5c565b828103602084015262001f29818a62001e5c565b9050828103604084015262001f3f818962001e5c565b6001600160a01b03979097166060840152505060808101939093526001600160801b03199190911660a083015260c0909101529392505050565b6000875162001f8d818460208c0162001e36565b87519083019062001fa3818360208c0162001e36565b606088901b6bffffffffffffffffffffffff1916910190815260e086901b6001600160e01b03191660148201526001600160801b031985166018820152835162001ff581602884016020880162001e36565b0160280198975050505050505050565b8181038181111562001529576200152962001ed4565b8881526001600160a01b0388811660208301526001600160801b03198816604083015263ffffffff871660608301528516608082015260a0810184905260c0810183905261010060e082018190526000906200207a8382018562001e5c565b9b9a5050505050505050505050565b634e487b7160e01b600052602160045260246000fd5b60058110620020b257620020b262002089565b9052565b602081016200152982846200209f565b805160058110620019e257600080fd5b80518015158114620019e257600080fd5b600082601f830112620020f957600080fd5b81516200210a62001b428262001b07565b8181528460208386010111156200212057600080fd5b62000c4482602083016020870162001e36565b6000608082840312156200214657600080fd5b6200215062001a15565b90506200215d82620020c6565b81526200216d60208301620020d6565b60208201526040820151604082015260608201516001600160401b038111156200219657600080fd5b620021a484828501620020e7565b60608301525092915050565b600060208284031215620021c357600080fd5b81516001600160401b03811115620021da57600080fd5b62000c448482850162002133565b8051620019e28162001cea565b805160078110620019e257600080fd5b600060a082840312156200221857600080fd5b6200222262001a40565b90508151620022318162001cea565b81526020820151620022438162001cea565b6020820152604082810151908201526200226060608301620021f5565b606082015260808201516001600160401b038111156200227f57600080fd5b6200228d84828501620020e7565b60808301525092915050565b600060208284031215620022ac57600080fd5b81516001600160401b03811115620022c357600080fd5b62000c448482850162002205565b60006001600160401b03821115620022ed57620022ed620019ff565b5060051b60200190565b600060208083850312156200230b57600080fd5b82516001600160401b03808211156200232357600080fd5b90840190608082870312156200233857600080fd5b6200234262001a15565b82516200234f8162001cea565b815282840151620023608162001cea565b81850152604083810151908201526060830151828111156200238157600080fd5b80840193505086601f8401126200239757600080fd5b8251620023a862001b4282620022d1565b81815260059190911b84018501908581019089831115620023c857600080fd5b8686015b83811015620024f057805186811115620023e557600080fd5b870160c0818d03601f19011215620023fd5760008081fd5b6200240762001a65565b89820151888111156200241a5760008081fd5b6200242a8e8c8386010162002205565b825250604082015188811115620024415760008081fd5b620024518e8c8386010162002133565b8b830152506060820151888111156200246a5760008081fd5b6200247a8e8c83860101620020e7565b6040830152506080820151606082015260a080830151898111156200249f5760008081fd5b620024af8f8d83870101620020e7565b60808401525060c083015189811115620024c95760008081fd5b620024d98f8d83870101620020e7565b9183019190915250845250918701918701620023cc565b5060608401525090979650505050505050565b60078110620020b257620020b262002089565b60006001600160801b03198083511684528060208401511660208501525060408201516040840152606082015162002552606085018262002503565b50608082015160a0608085015262000c4460a085018262001e5c565b6200257b8282516200209f565b60208101511515602083015260408101516040830152600060608201516080606085015262000c44608085018262001e5c565b600081518084526020808501945080840160005b83811015620025f357815160028110620025e057620025e062002089565b87529582019590820190600101620025c2565b509495945050505050565b600060606001600160801b03198084511685526020818186015116818701526040915081850151838388015260a08701815184868a015281815180845260c08b01915060c08160051b8c01019350858301925060005b81811015620026c5578b850360bf19018352835180518a87526200267b8b8801826200256e565b9050888201518782038a89015262002694828262002516565b9150508982015191508681038a880152620026b0818362001e5c565b96505050928601929186019160010162002654565b5050505081830151888203605f190160808a01529450620026e78186620025ae565b98975050505050505050565b6000604080835260c08084016001600160801b031980885116848701526020808901516060838216818a0152868b015193506080915083828a0152808b0151935060a082818b015285855180885260e08c01915060e08160051b8d01019750858701965060005b8181101562002807578c890360df19018352875180518b8b52620027818c8c018262002516565b9050888201518b82038a8d01526200279a82826200256e565b9150508c8201518b82038e8d0152620027b4828262001e5c565b91505086820151878c0152878201518b8203898d0152620027d6828262001e5c565b9150508582015191508a8103868c0152620027f2818362001e5c565b9a50505096860196918601916001016200275a565b505050505050868303818801525050620016bf8187620025fe565b600082601f8301126200283457600080fd5b815160206200284762001b4283620022d1565b82815260059290921b840181019181810190868411156200286757600080fd5b8286015b84811015620029255780516001600160401b03808211156200288d5760008081fd5b9088019060a0828b03601f1901811315620028a85760008081fd5b620028b262001a40565b620028bf888501620020c6565b81526040620028d0818601620020d6565b8983015260608086015182840152608091508186015185811115620028f55760008081fd5b620029058f8c838a0101620020e7565b91840191909152509190930151908301525083529183019183016200286b565b509695505050505050565b600082601f8301126200294257600080fd5b815160206200295562001b4283620022d1565b82815260059290921b840181019181810190868411156200297557600080fd5b8286015b84811015620029255780516001600160401b03808211156200299b5760008081fd5b9088019060c0828b03601f1901811315620029b65760008081fd5b620029c062001a65565b87840151620029cf8162001cea565b8152604084810151620029e28162001cea565b828a01526060620029f5868201620021f5565b828401526080915081860151818401525060a0808601518581111562002a1b5760008081fd5b62002a2b8f8c838a0101620020e7565b928401929092529490920151938101939093525050835291830191830162002979565b600082601f83011262002a6057600080fd5b8151602062002a7362001b4283620022d1565b82815260059290921b8401810191818101908684111562002a9357600080fd5b8286015b84811015620029255780516001600160401b0381111562002ab85760008081fd5b62002ac88986838b0101620020e7565b84525091830191830162002a97565b60006020828403121562002aea57600080fd5b81516001600160401b038082111562002b0257600080fd5b9083019060c0828603121562002b1757600080fd5b62002b2162001a65565b62002b2c83620021e8565b815262002b3c60208401620021e8565b60208201526040830151604082015260608301518281111562002b5e57600080fd5b62002b6c8782860162002822565b60608301525060808301518281111562002b8557600080fd5b62002b938782860162002930565b60808301525060a08301518281111562002bac57600080fd5b62002bba8782860162002a4e565b60a08301525095945050505050565b60e08152600062002bde60e083018a62001e5c565b828103602084015262002bf2818a62001e5c565b9050828103604084015262002c08818962001e5c565b6001600160a01b0397881660608501526001600160801b0319969096166080840152505091841660a083015290921660c0909201919091529392505050565b6000835162002c5b81846020880162001e36565b83519083019062002c7181836020880162001e36565b01949350505050565b6080815260006001600160801b03198087511660808401528060208801511660a0840152604087015160c0840152606087015162002cbc60e085018262002503565b50608087015160a061010085015262002cda61012085018262001e5c565b9050838103602085015262002cf081886200256e565b9050838103604085015262002d06818762001e5c565b92505080841660608401525095945050505050565b600082601f83011262002d2d57600080fd5b8151602062002d4062001b4283620022d1565b82815260059290921b8401810191818101908684111562002d6057600080fd5b8286015b84811015620029255780516002811062002d7e5760008081fd5b835291830191830162002d64565b60006020828403121562002d9f57600080fd5b81516001600160401b038082111562002db757600080fd5b908301906060828603121562002dcc57600080fd5b62002dd662001a8a565b825162002de38162001cea565b8152602083015162002df58162001cea565b602082015260408301518281111562002e0d57600080fd5b92909201916040838703121562002e2357600080fd5b62002e2d62001aaf565b83518381111562002e3d57600080fd5b8401601f8101881362002e4f57600080fd5b805162002e6062001b4282620022d1565b8082825260208201915060208360051b85010192508a83111562002e8357600080fd5b602084015b8381101562002f4d5780518881111562002ea157600080fd5b85016060818e03601f1901121562002eb857600080fd5b62002ec262001a8a565b60208201518a81111562002ed557600080fd5b62002ee68f60208386010162002133565b82525060408201518a81111562002efc57600080fd5b62002f0d8f60208386010162002205565b60208301525060608201518a81111562002f2657600080fd5b62002f378f602083860101620020e7565b6040830152508452506020928301920162002e88565b50845250505060208401518381111562002f6657600080fd5b62002f748882870162002d1b565b60208301525060408201529594505050505056fe60806040523480156200001157600080fd5b5060405162001ffd38038062001ffd8339810160408190526200003491620001c7565b8484600062000044838262000315565b50600162000053828262000315565b505050620000706200006a620000ac60201b60201c565b620000b0565b60096200007e848262000315565b50600a55600c80546001600160a01b0319166001600160a01b039290921691909117905550620003e1915050565b3390565b600780546001600160a01b038381166001600160a01b0319831681179093556040519116919082907f8be0079c531659141344cd1fd0a4f28419497f9722a3daafe3b4186f6b6457e090600090a35050565b634e487b7160e01b600052604160045260246000fd5b600082601f8301126200012a57600080fd5b81516001600160401b038082111562000147576200014762000102565b604051601f8301601f19908116603f0116810190828211818310171562000172576200017262000102565b816040528381526020925086838588010111156200018f57600080fd5b600091505b83821015620001b3578582018301518183018401529082019062000194565b600093810190920192909252949350505050565b600080600080600060a08688031215620001e057600080fd5b85516001600160401b0380821115620001f857600080fd5b6200020689838a0162000118565b965060208801519150808211156200021d57600080fd5b6200022b89838a0162000118565b955060408801519150808211156200024257600080fd5b50620002518882890162000118565b606088015190945090506001600160a01b03811681146200027157600080fd5b80925050608086015190509295509295909350565b600181811c908216806200029b57607f821691505b602082108103620002bc57634e487b7160e01b600052602260045260246000fd5b50919050565b601f8211156200031057600081815260208120601f850160051c81016020861015620002eb5750805b601f850160051c820191505b818110156200030c57828155600101620002f7565b5050505b505050565b81516001600160401b0381111562000331576200033162000102565b620003498162000342845462000286565b84620002c2565b602080601f831160018114620003815760008415620003685750858301515b600019600386901b1c1916600185901b1785556200030c565b600085815260208120601f198616915b82811015620003b25788860151825594840194600190910190840162000391565b5085821015620003d15787850151600019600388901b60f8161c191681555b5050505050600190811b01905550565b611c0c80620003f16000396000f3fe608060405234801561001057600080fd5b50600436106101425760003560e01c8063715018a6116100b8578063b85ec5051161007c578063b85ec50514610289578063b88d4fde146102a4578063c87b56dd146102b7578063e0df5b6f146102ca578063e985e9c5146102dd578063f2fde38b146102f057600080fd5b8063715018a61461024c5780638da5cb5b1461025457806395d89b4114610265578063a22cb4651461026d578063b212ba9f1461028057600080fd5b806342842e0e1161010a57806342842e0e146101d75780634f8aaac6146101ea57806356d5d475146101f25780636352211e146102055780636769a0c41461021857806370a082311461022b57600080fd5b806301ffc9a71461014757806306fdde031461016f578063081812fc14610184578063095ea7b3146101af57806323b872dd146101c4575b600080fd5b61015a6101553660046115c2565b610303565b60405190151581526020015b60405180910390f35b610177610355565b604051610166919061162f565b610197610192366004611642565b6103e7565b6040516001600160a01b039091168152602001610166565b6101c26101bd366004611670565b61040e565b005b6101c26101d236600461169c565b610528565b6101c26101e536600461169c565b610562565b61017761057d565b6101c26102003660046116dd565b61060b565b610197610213366004611642565b6106d2565b600c54610197906001600160a01b031681565b61023e61023936600461176f565b610732565b604051908152602001610166565b6101c26107b8565b6007546001600160a01b0316610197565b6101776107cc565b6101c261027b36600461178c565b6107db565b61023e600a5481565b61019773cc737a94fecaec165abcf12ded095bb13f03768581565b6101c26102b2366004611856565b6107ea565b6101776102c5366004611642565b610868565b6101c26102d83660046118d6565b610873565b61015a6102eb36600461191f565b610887565b6101c26102fe36600461176f565b6108b5565b60006001600160e01b031982166380ac58cd60e01b148061033457506001600160e01b03198216635b5e139f60e01b145b8061034f57506301ffc9a760e01b6001600160e01b03198316145b92915050565b6060600080546103649061194d565b80601f01602080910402602001604051908101604052809291908181526020018280546103909061194d565b80156103dd5780601f106103b2576101008083540402835291602001916103dd565b820191906000526020600020905b8154815290600101906020018083116103c057829003601f168201915b5050505050905090565b60006103f28261092e565b506000908152600460205260409020546001600160a01b031690565b6000610419826106d2565b9050806001600160a01b0316836001600160a01b03160361048b5760405162461bcd60e51b815260206004820152602160248201527f4552433732313a20617070726f76616c20746f2063757272656e74206f776e656044820152603960f91b60648201526084015b60405180910390fd5b336001600160a01b03821614806104a757506104a78133610887565b6105195760405162461bcd60e51b815260206004820152603d60248201527f4552433732313a20617070726f76652063616c6c6572206973206e6f7420746f60448201527f6b656e206f776e6572206f7220617070726f76656420666f7220616c6c0000006064820152608401610482565b610523838361098d565b505050565b60405162461bcd60e51b815260206004820152600f60248201526e21b0b73737ba103a3930b739b332b960891b6044820152606401610482565b610523838383604051806020016040528060008152506107ea565b6009805461058a9061194d565b80601f01602080910402602001604051908101604052809291908181526020018280546105b69061194d565b80156106035780601f106105d857610100808354040283529160200191610603565b820191906000526020600020905b8154815290600101906020018083116105e657829003601f168201915b505050505081565b3373cc737a94fecaec165abcf12ded095bb13f0376851461062b57600080fd5b60006106398284018461176f565b6001600160a01b0381166000908152600b60205260408120549192500361066857610663816109fb565b6106cb565b600a546001600160a01b0382166000908152600b6020526040902054106106c25760405162461bcd60e51b815260206004820152600e60248201526d4e6f206d6f726520636c61696d7360901b6044820152606401610482565b6106cb81610b67565b5050505050565b6000818152600260205260408120546001600160a01b03168061034f5760405162461bcd60e51b8152602060048201526018602482015277115490cdcc8c4e881a5b9d985b1a59081d1bdad95b88125160421b6044820152606401610482565b60006001600160a01b03821661079c5760405162461bcd60e51b815260206004820152602960248201527f4552433732313a2061646472657373207a65726f206973206e6f7420612076616044820152683634b21037bbb732b960b91b6064820152608401610482565b506001600160a01b031660009081526003602052604090205490565b6107c0610be9565b6107ca6000610c43565b565b6060600180546103649061194d565b6107e6338383610c95565b5050565b6107f43383610d63565b6108565760405162461bcd60e51b815260206004820152602d60248201527f4552433732313a2063616c6c6572206973206e6f7420746f6b656e206f776e6560448201526c1c881bdc88185c1c1c9bdd9959609a1b6064820152608401610482565b61086284848484610dc2565b50505050565b606061034f82610df5565b61087b610be9565b60096107e682826119d5565b6001600160a01b03918216600090815260056020908152604080832093909416825291909152205460ff1690565b6108bd610be9565b6001600160a01b0381166109225760405162461bcd60e51b815260206004820152602660248201527f4f776e61626c653a206e6577206f776e657220697320746865207a65726f206160448201526564647265737360d01b6064820152608401610482565b61092b81610c43565b50565b6000818152600260205260409020546001600160a01b031661092b5760405162461bcd60e51b8152602060048201526018602482015277115490cdcc8c4e881a5b9d985b1a59081d1bdad95b88125160421b6044820152606401610482565b600081815260046020526040902080546001600160a01b0319166001600160a01b03841690811790915581906109c2826106d2565b6001600160a01b03167f8c5be1e5ebec7d5bd14f71427d1e84f3dd0314c0f7b2291e5b200ac8c7c3b92560405160405180910390a45050565b6001600160a01b0381166000908152600b602052604090205415610a545760405162461bcd60e51b815260206004820152601060248201526f105b1c9958591e481bdddb9cc813919560821b6044820152606401610482565b6000610a5f60085490565b9050610a6f600880546001019055565b610a798282610efd565b610b0d8160098054610a8a9061194d565b80601f0160208091040260200160405190810160405280929190818152602001828054610ab69061194d565b8015610b035780601f10610ad857610100808354040283529160200191610b03565b820191906000526020600020905b815481529060010190602001808311610ae657829003601f168201915b5050505050610f17565b6001600160a01b0382166000818152600b60209081526040918290206001908190558251938452908301527f2ace47925ca5e5683eb2c2eab99a115e60455cbfbe81a22bceb46f3399846c64910160405180910390a15050565b6001600160a01b0381166000908152600b60205260408120805460019290610b90908490611a95565b90915550506001600160a01b0381166000818152600b6020908152604091829020548251938452908301527f2ace47925ca5e5683eb2c2eab99a115e60455cbfbe81a22bceb46f3399846c64910160405180910390a150565b6007546001600160a01b031633146107ca5760405162461bcd60e51b815260206004820181905260248201527f4f776e61626c653a2063616c6c6572206973206e6f7420746865206f776e65726044820152606401610482565b600780546001600160a01b038381166001600160a01b0319831681179093556040519116919082907f8be0079c531659141344cd1fd0a4f28419497f9722a3daafe3b4186f6b6457e090600090a35050565b816001600160a01b0316836001600160a01b031603610cf65760405162461bcd60e51b815260206004820152601960248201527f4552433732313a20617070726f766520746f2063616c6c6572000000000000006044820152606401610482565b6001600160a01b03838116600081815260056020908152604080832094871680845294825291829020805460ff191686151590811790915591519182527f17307eab39ab6107e8899845ad3d59bd9653f200f220920489ca2b5937696c31910160405180910390a3505050565b600080610d6f836106d2565b9050806001600160a01b0316846001600160a01b03161480610d965750610d968185610887565b80610dba5750836001600160a01b0316610daf846103e7565b6001600160a01b0316145b949350505050565b610dcd848484610faa565b610dd98484848461110e565b6108625760405162461bcd60e51b815260040161048290611ab6565b6060610e008261092e565b60008281526006602052604081208054610e199061194d565b80601f0160208091040260200160405190810160405280929190818152602001828054610e459061194d565b8015610e925780601f10610e6757610100808354040283529160200191610e92565b820191906000526020600020905b815481529060010190602001808311610e7557829003601f168201915b505050505090506000610eb060408051602081019091526000815290565b90508051600003610ec2575092915050565b815115610ef4578082604051602001610edc929190611b08565b60405160208183030381529060405292505050919050565b610dba8461120f565b6107e6828260405180602001604052806000815250611283565b6000828152600260205260409020546001600160a01b0316610f925760405162461bcd60e51b815260206004820152602e60248201527f45524337323155524953746f726167653a2055524920736574206f66206e6f6e60448201526d32bc34b9ba32b73a103a37b5b2b760911b6064820152608401610482565b600082815260066020526040902061052382826119d5565b826001600160a01b0316610fbd826106d2565b6001600160a01b031614610fe35760405162461bcd60e51b815260040161048290611b37565b6001600160a01b0382166110455760405162461bcd60e51b8152602060048201526024808201527f4552433732313a207472616e7366657220746f20746865207a65726f206164646044820152637265737360e01b6064820152608401610482565b826001600160a01b0316611058826106d2565b6001600160a01b03161461107e5760405162461bcd60e51b815260040161048290611b37565b600081815260046020908152604080832080546001600160a01b03199081169091556001600160a01b0387811680865260038552838620805460001901905590871680865283862080546001019055868652600290945282852080549092168417909155905184937fddf252ad1be2c89b69c2b068fc378daa952ba7f163c4a11628f55a4df523b3ef91a4505050565b60006001600160a01b0384163b1561120457604051630a85bd0160e11b81526001600160a01b0385169063150b7a0290611152903390899088908890600401611b7c565b6020604051808303816000875af192505050801561118d575060408051601f3d908101601f1916820190925261118a91810190611bb9565b60015b6111ea573d8080156111bb576040519150601f19603f3d011682016040523d82523d6000602084013e6111c0565b606091505b5080516000036111e25760405162461bcd60e51b815260040161048290611ab6565b805181602001fd5b6001600160e01b031916630a85bd0160e11b149050610dba565b506001949350505050565b606061121a8261092e565b600061123160408051602081019091526000815290565b90506000815111611251576040518060200160405280600081525061127c565b8061125b846112b6565b60405160200161126c929190611b08565b6040516020818303038152906040525b9392505050565b61128d8383611349565b61129a600084848461110e565b6105235760405162461bcd60e51b815260040161048290611ab6565b606060006112c3836114d4565b600101905060008167ffffffffffffffff8111156112e3576112e36117ca565b6040519080825280601f01601f19166020018201604052801561130d576020820181803683370190505b5090508181016020015b600019016f181899199a1a9b1b9c1cb0b131b232b360811b600a86061a8153600a850494508461131757509392505050565b6001600160a01b03821661139f5760405162461bcd60e51b815260206004820181905260248201527f4552433732313a206d696e7420746f20746865207a65726f20616464726573736044820152606401610482565b6000818152600260205260409020546001600160a01b0316156114045760405162461bcd60e51b815260206004820152601c60248201527f4552433732313a20746f6b656e20616c7265616479206d696e746564000000006044820152606401610482565b6000818152600260205260409020546001600160a01b0316156114695760405162461bcd60e51b815260206004820152601c60248201527f4552433732313a20746f6b656e20616c7265616479206d696e746564000000006044820152606401610482565b6001600160a01b038216600081815260036020908152604080832080546001019055848352600290915280822080546001600160a01b0319168417905551839291907fddf252ad1be2c89b69c2b068fc378daa952ba7f163c4a11628f55a4df523b3ef908290a45050565b60008072184f03e93ff9f4daa797ed6e38ed64bf6a1f0160401b83106115135772184f03e93ff9f4daa797ed6e38ed64bf6a1f0160401b830492506040015b6d04ee2d6d415b85acef8100000000831061153f576d04ee2d6d415b85acef8100000000830492506020015b662386f26fc10000831061155d57662386f26fc10000830492506010015b6305f5e1008310611575576305f5e100830492506008015b612710831061158957612710830492506004015b6064831061159b576064830492506002015b600a831061034f5760010192915050565b6001600160e01b03198116811461092b57600080fd5b6000602082840312156115d457600080fd5b813561127c816115ac565b60005b838110156115fa5781810151838201526020016115e2565b50506000910152565b6000815180845261161b8160208601602086016115df565b601f01601f19169290920160200192915050565b60208152600061127c6020830184611603565b60006020828403121561165457600080fd5b5035919050565b6001600160a01b038116811461092b57600080fd5b6000806040838503121561168357600080fd5b823561168e8161165b565b946020939093013593505050565b6000806000606084860312156116b157600080fd5b83356116bc8161165b565b925060208401356116cc8161165b565b929592945050506040919091013590565b600080600080606085870312156116f357600080fd5b843563ffffffff8116811461170757600080fd5b935060208501359250604085013567ffffffffffffffff8082111561172b57600080fd5b818701915087601f83011261173f57600080fd5b81358181111561174e57600080fd5b88602082850101111561176057600080fd5b95989497505060200194505050565b60006020828403121561178157600080fd5b813561127c8161165b565b6000806040838503121561179f57600080fd5b82356117aa8161165b565b9150602083013580151581146117bf57600080fd5b809150509250929050565b634e487b7160e01b600052604160045260246000fd5b600067ffffffffffffffff808411156117fb576117fb6117ca565b604051601f8501601f19908116603f01168101908282118183101715611823576118236117ca565b8160405280935085815286868601111561183c57600080fd5b858560208301376000602087830101525050509392505050565b6000806000806080858703121561186c57600080fd5b84356118778161165b565b935060208501356118878161165b565b925060408501359150606085013567ffffffffffffffff8111156118aa57600080fd5b8501601f810187136118bb57600080fd5b6118ca878235602084016117e0565b91505092959194509250565b6000602082840312156118e857600080fd5b813567ffffffffffffffff8111156118ff57600080fd5b8201601f8101841361191057600080fd5b610dba848235602084016117e0565b6000806040838503121561193257600080fd5b823561193d8161165b565b915060208301356117bf8161165b565b600181811c9082168061196157607f821691505b60208210810361198157634e487b7160e01b600052602260045260246000fd5b50919050565b601f82111561052357600081815260208120601f850160051c810160208610156119ae5750805b601f850160051c820191505b818110156119cd578281556001016119ba565b505050505050565b815167ffffffffffffffff8111156119ef576119ef6117ca565b611a03816119fd845461194d565b84611987565b602080601f831160018114611a385760008415611a205750858301515b600019600386901b1c1916600185901b1785556119cd565b600085815260208120601f198616915b82811015611a6757888601518255948401946001909101908401611a48565b5085821015611a855787850151600019600388901b60f8161c191681555b5050505050600190811b01905550565b8082018082111561034f57634e487b7160e01b600052601160045260246000fd5b60208082526032908201527f4552433732313a207472616e7366657220746f206e6f6e20455243373231526560408201527131b2b4bb32b91034b6b83632b6b2b73a32b960711b606082015260800190565b60008351611b1a8184602088016115df565b835190830190611b2e8183602088016115df565b01949350505050565b60208082526025908201527f4552433732313a207472616e736665722066726f6d20696e636f72726563742060408201526437bbb732b960d91b606082015260800190565b6001600160a01b0385811682528416602082015260408101839052608060608201819052600090611baf90830184611603565b9695505050505050565b600060208284031215611bcb57600080fd5b815161127c816115ac56fea2646970667358221220aa1d8fdfc8234cd3ebc2eb0fa128ec3c0faf1581719e2ab7828b29e2bce5745d64736f6c63430008110033a264697066735822122018a2e94517b4927f80e0cdf5c4d1d48727f79a82f0841380ca0b9fed6d4b5ae064736f6c63430008110033",
  "linkReferences": {
    "contracts/lib/libs/utils/RequestBuilder.sol": {
      "RequestBuilder": [
        {
          "length": 20,
          "start": 5878
        },
        {
          "length": 20,
          "start": 6080
        },
        {
          "length": 20,
          "start": 6961
        }
      ]
    }
  },
  "deployedLinkReferences": {
    "contracts/lib/libs/utils/RequestBuilder.sol": {
      "RequestBuilder": [
        {
          "length": 20,
          "start": 5303
        },
        {
          "length": 20,
          "start": 5505
        },
        {
          "length": 20,
          "start": 6386
        }
      ]
    }
  }
}