{
  "address": "0x5FbDB2315678afecb367f032d93F642f64180aa3",
  "abi": [
    {
      "anonymous": false,
      "inputs": [
        {
          "indexed": false,
          "internalType": "bytes32",
          "name": "promotionId",
          "type": "bytes32"
        },
        {
          "indexed": false,
          "internalType": "address",
          "name": "promotionAddress",
          "type": "address"
        },
        {
          "indexed": false,
          "internalType": "address",
          "name": "claimer",
          "type": "address"
        },
        {
          "indexed": false,
          "internalType": "uint32",
          "name": "destinationDomain",
          "type": "uint32"
        },
        {
          "indexed": false,
          "internalType": "uint256",
          "name": "claimsCount",
          "type": "uint256"
        },
        {
          "indexed": false,
          "internalType": "uint256",
          "name": "claimedAt",
          "type": "uint256"
        }
      ],
      "name": "ClaimedPromotion",
      "type": "event"
    },
    {
      "anonymous": false,
      "inputs": [
        {
          "indexed": false,
          "internalType": "bytes32",
          "name": "promotionId",
          "type": "bytes32"
        },
        {
          "indexed": false,
          "internalType": "uint256",
          "name": "amount",
          "type": "uint256"
        }
      ],
      "name": "GasTankFilled",
      "type": "event"
    },
    {
      "anonymous": false,
      "inputs": [
        {
          "indexed": false,
          "internalType": "bytes32",
          "name": "promotionId",
          "type": "bytes32"
        },
        {
          "indexed": false,
          "internalType": "uint256",
          "name": "amount",
          "type": "uint256"
        }
      ],
      "name": "GasTankRefunded",
      "type": "event"
    },
    {
      "anonymous": false,
      "inputs": [
        {
          "indexed": false,
          "internalType": "uint32",
          "name": "destinationDomain",
          "type": "uint32"
        }
      ],
      "name": "NewChainAdded",
      "type": "event"
    },
    {
      "anonymous": false,
      "inputs": [
        {
          "indexed": true,
          "internalType": "address",
          "name": "previousOwner",
          "type": "address"
        },
        {
          "indexed": true,
          "internalType": "address",
          "name": "newOwner",
          "type": "address"
        }
      ],
      "name": "OwnershipTransferred",
      "type": "event"
    },
    {
      "anonymous": false,
      "inputs": [
        {
          "indexed": false,
          "internalType": "bytes32",
          "name": "promotionId",
          "type": "bytes32"
        },
        {
          "indexed": false,
          "internalType": "address",
          "name": "promotionAddress",
          "type": "address"
        },
        {
          "indexed": false,
          "internalType": "uint32",
          "name": "destinationDomain",
          "type": "uint32"
        },
        {
          "indexed": false,
          "internalType": "address",
          "name": "creator",
          "type": "address"
        },
        {
          "indexed": false,
          "internalType": "uint256",
          "name": "createdAt",
          "type": "uint256"
        },
        {
          "indexed": false,
          "internalType": "uint256",
          "name": "claimsPerPerson",
          "type": "uint256"
        },
        {
          "indexed": false,
          "internalType": "string",
          "name": "badgeURI",
          "type": "string"
        }
      ],
      "name": "PromotionCreated",
      "type": "event"
    },
    {
      "inputs": [
        {
          "internalType": "uint32",
          "name": "destinationDomain",
          "type": "uint32"
        },
        {
          "internalType": "address",
          "name": "destinationReceiver",
          "type": "address"
        }
      ],
      "name": "addChain",
      "outputs": [],
      "stateMutability": "nonpayable",
      "type": "function"
    },
    {
      "inputs": [
        {
          "internalType": "uint32",
          "name": "",
          "type": "uint32"
        }
      ],
      "name": "chains",
      "outputs": [
        {
          "internalType": "bytes32",
          "name": "destinationReceiverAddress",
          "type": "bytes32"
        },
        {
          "internalType": "bool",
          "name": "isExists",
          "type": "bool"
        }
      ],
      "stateMutability": "view",
      "type": "function"
    },
    {
      "inputs": [
        {
          "internalType": "bytes32",
          "name": "_promotionId",
          "type": "bytes32"
        },
        {
          "internalType": "uint32",
          "name": "destinationDomain",
          "type": "uint32"
        },
        {
          "internalType": "bytes",
          "name": "signature",
          "type": "bytes"
        },
        {
          "internalType": "address",
          "name": "claimer",
          "type": "address"
        },
        {
          "internalType": "uint256",
          "name": "gasAmount",
          "type": "uint256"
        }
      ],
      "name": "claimPromotion",
      "outputs": [],
      "stateMutability": "nonpayable",
      "type": "function"
    },
    {
      "inputs": [
        {
          "internalType": "bytes32",
          "name": "",
          "type": "bytes32"
        },
        {
          "internalType": "address",
          "name": "",
          "type": "address"
        }
      ],
      "name": "claims",
      "outputs": [
        {
          "internalType": "uint32",
          "name": "destinationDomain",
          "type": "uint32"
        },
        {
          "internalType": "address",
          "name": "promotionAddress",
          "type": "address"
        },
        {
          "internalType": "uint256",
          "name": "claimsCount",
          "type": "uint256"
        },
        {
          "internalType": "bool",
          "name": "isExists",
          "type": "bool"
        }
      ],
      "stateMutability": "view",
      "type": "function"
    },
    {
      "inputs": [
        {
          "internalType": "string",
          "name": "name",
          "type": "string"
        },
        {
          "internalType": "string",
          "name": "symbol",
          "type": "string"
        },
        {
          "internalType": "uint32",
          "name": "destinationDomain",
          "type": "uint32"
        },
        {
          "internalType": "uint256",
          "name": "claimsPerPerson",
          "type": "uint256"
        },
        {
          "internalType": "string",
          "name": "badgeURI",
          "type": "string"
        },
        {
          "internalType": "uint256",
          "name": "_salt",
          "type": "uint256"
        },
        {
          "internalType": "uint256",
          "name": "gasAmount",
          "type": "uint256"
        }
      ],
      "name": "createPromotion",
      "outputs": [],
      "stateMutability": "payable",
      "type": "function"
    },
    {
      "inputs": [
        {
          "internalType": "bytes32",
          "name": "_promotionId",
          "type": "bytes32"
        }
      ],
      "name": "fillGas",
      "outputs": [],
      "stateMutability": "payable",
      "type": "function"
    },
    {
      "inputs": [
        {
          "internalType": "bytes32",
          "name": "",
          "type": "bytes32"
        }
      ],
      "name": "gasTank",
      "outputs": [
        {
          "internalType": "uint256",
          "name": "",
          "type": "uint256"
        }
      ],
      "stateMutability": "view",
      "type": "function"
    },
    {
      "inputs": [
        {
          "internalType": "uint32",
          "name": "destinationDomain",
          "type": "uint32"
        },
        {
          "internalType": "uint256",
          "name": "gasAmount",
          "type": "uint256"
        }
      ],
      "name": "getQuotedPayment",
      "outputs": [
        {
          "internalType": "uint256",
          "name": "",
          "type": "uint256"
        }
      ],
      "stateMutability": "view",
      "type": "function"
    },
    {
      "inputs": [],
      "name": "igp",
      "outputs": [
        {
          "internalType": "contract IInterchainGasPaymaster",
          "name": "",
          "type": "address"
        }
      ],
      "stateMutability": "view",
      "type": "function"
    },
    {
      "inputs": [],
      "name": "iqsRouter",
      "outputs": [
        {
          "internalType": "contract IInterchainQueryRouter",
          "name": "",
          "type": "address"
        }
      ],
      "stateMutability": "view",
      "type": "function"
    },
    {
      "inputs": [],
      "name": "mailbox",
      "outputs": [
        {
          "internalType": "contract IMailbox",
          "name": "",
          "type": "address"
        }
      ],
      "stateMutability": "view",
      "type": "function"
    },
    {
      "inputs": [],
      "name": "owner",
      "outputs": [
        {
          "internalType": "address",
          "name": "",
          "type": "address"
        }
      ],
      "stateMutability": "view",
      "type": "function"
    },
    {
      "inputs": [
        {
          "internalType": "bytes32",
          "name": "",
          "type": "bytes32"
        }
      ],
      "name": "promotions",
      "outputs": [
        {
          "internalType": "address",
          "name": "promotionAddress",
          "type": "address"
        },
        {
          "internalType": "uint32",
          "name": "destinationDomain",
          "type": "uint32"
        },
        {
          "internalType": "address",
          "name": "creator",
          "type": "address"
        },
        {
          "internalType": "uint256",
          "name": "createdAt",
          "type": "uint256"
        },
        {
          "internalType": "uint256",
          "name": "claimsPerPerson",
          "type": "uint256"
        },
        {
          "internalType": "bool",
          "name": "isExists",
          "type": "bool"
        }
      ],
      "stateMutability": "view",
      "type": "function"
    },
    {
      "inputs": [
        {
          "internalType": "bytes32",
          "name": "_promotionId",
          "type": "bytes32"
        },
        {
          "internalType": "address",
          "name": "_to",
          "type": "address"
        }
      ],
      "name": "refundGas",
      "outputs": [],
      "stateMutability": "nonpayable",
      "type": "function"
    },
    {
      "inputs": [],
      "name": "renounceOwnership",
      "outputs": [],
      "stateMutability": "nonpayable",
      "type": "function"
    },
    {
      "inputs": [
        {
          "internalType": "address",
          "name": "newOwner",
          "type": "address"
        }
      ],
      "name": "transferOwnership",
      "outputs": [],
      "stateMutability": "nonpayable",
      "type": "function"
    }
  ],
  "transactionHash": "0xe3987dcabe7b173e84bd0842bada0e6ae575692b3452c7e607bd70bf61cf8b3f",
  "args": [],
  "numDeployments": 1,
  "solcInputHash": "62a00d6394f671ea30bcf5500e59f2f0",
  "bytecode": "0x608060405234801561001057600080fd5b5061001a33610023565b60018055610073565b600080546001600160a01b038381166001600160a01b0319831681178455604051919092169283917f8be0079c531659141344cd1fd0a4f28419497f9722a3daafe3b4186f6b6457e09190a35050565b613ecf806100826000396000f3fe608060405260043610620001075760003560e01c806392256c0e1162000095578063ea272e391162000060578063ea272e391462000372578063f28b2daa1462000422578063f2fde38b146200044c578063f8717e8d146200047157600080fd5b806392256c0e1462000273578063cade147d146200030c578063d5438eae1462000331578063d8b0857f146200035b57600080fd5b806360cb07d011620000d657806360cb07d014620001a7578063715018a614620001ea5780638b203dd414620002025780638da5cb5b146200025357600080fd5b806319a832ba146200010c5780633b86b52d14620001335780634262e0ad146200016b57806358b063fd1462000190575b600080fd5b3480156200011957600080fd5b50620001316200012b366004620018d3565b620004a2565b005b3480156200014057600080fd5b50620001586200015236600462001982565b62000bb6565b6040519081526020015b60405180910390f35b3480156200017857600080fd5b50620001316200018a366004620019af565b62000c46565b62000131620001a136600462001a92565b62000caa565b348015620001b457600080fd5b50620001d173f782c6c4a02f2c71bb8a1db0166fab40ea95681881565b6040516001600160a01b03909116815260200162000162565b348015620001f757600080fd5b50620001316200114e565b3480156200020f57600080fd5b506200023d6200022136600462001b54565b6005602052600090815260409020805460019091015460ff1682565b6040805192835290151560208301520162000162565b3480156200026057600080fd5b506000546001600160a01b0316620001d1565b3480156200028057600080fd5b50620002da6200029236600462001b79565b600360209081526000928352604080842090915290825290208054600182015460029092015463ffffffff8216926401000000009092046001600160a01b0316919060ff1684565b6040805163ffffffff90951685526001600160a01b039093166020850152918301521515606082015260800162000162565b3480156200031957600080fd5b50620001316200032b36600462001b79565b62001166565b3480156200033e57600080fd5b50620001d173cc737a94fecaec165abcf12ded095bb13f03768581565b620001316200036c36600462001b9f565b62001313565b3480156200037f57600080fd5b50620003dd6200039136600462001b9f565b6002602081905260009182526040909120805460018201549282015460038301546004909301546001600160a01b0380841695600160a01b90940463ffffffff16949316929060ff1686565b604080516001600160a01b03978816815263ffffffff96909616602087015293909516928401929092526060830152608082015290151560a082015260c00162000162565b3480156200042f57600080fd5b50620001d173f90cb82a76492614d07b82a7658917f3ac811ac181565b3480156200045957600080fd5b50620001316200046b36600462001bb9565b62001382565b3480156200047e57600080fd5b50620001586200049036600462001b9f565b60046020526000908152604090205481565b63ffffffff851660009081526005602052604090206001015460ff16620005065760405162461bcd60e51b815260206004820152601360248201527224b73b30b634b2102232b9ba34b730ba34b7b760691b60448201526064015b60405180910390fd5b6000600260008881526020019081526020016000206040518060c00160405290816000820160009054906101000a90046001600160a01b03166001600160a01b03166001600160a01b031681526020016000820160149054906101000a900463ffffffff1663ffffffff1663ffffffff1681526020016001820160009054906101000a90046001600160a01b03166001600160a01b03166001600160a01b0316815260200160028201548152602001600382015481526020016004820160009054906101000a900460ff16151515158152505090506000600360008981526020019081526020016000206000856001600160a01b03166001600160a01b031681526020019081526020016000206040518060800160405290816000820160009054906101000a900463ffffffff1663ffffffff1663ffffffff1681526020016000820160049054906101000a90046001600160a01b03166001600160a01b03166001600160a01b03168152602001600182015481526020016002820160009054906101000a900460ff161515151581525050905060008888846000015133604051602001620006f5949392919093845260e09290921b6001600160e01b0319166020840152606090811b6bffffffffffffffffffffffff19908116602485015291901b166038820152604c0190565b604051602081830303815290604052805190602001209050846001600160a01b03166200075b88888080601f0160208091040260200160405190810160405280939291908181526020018383808284376000920191909152508693925050620014019050565b6001600160a01b031614620007a25760405162461bcd60e51b815260206004820152600c60248201526b1d5b985d5d1a1bdc9a5e995960a21b6044820152606401620004fd565b8260a00151620007e95760405162461bcd60e51b815260206004820152601160248201527024b73b30b634b210283937b6b7ba34b7b760791b6044820152606401620004fd565b8160600151158062000802575081604001518360800151115b620008415760405162461bcd60e51b815260206004820152600e60248201526d4e6f206d6f726520636c61696d7360901b6044820152606401620004fd565b604080516001600160a01b0387166020820152600091016040516020818303038152906040529050600073cc737a94fecaec165abcf12ded095bb13f0376856001600160a01b031663fa31de018b620008a488600001516001600160a01b031690565b856040518463ffffffff1660e01b8152600401620008c59392919062001c38565b6020604051808303816000875af1158015620008e5573d6000803e3d6000fd5b505050506040513d601f19601f820116820180604052508101906200090b919062001c68565b905060006200091b8b8862000bb6565b60008d815260046020526040902054909150811115620009715760405162461bcd60e51b815260206004820152601060248201526f496e73756666696369656e742067617360801b6044820152606401620004fd565b60008c815260046020526040812080548392906200099190849062001c98565b90915550506040868101519051630237e58360e31b81526004810184905263ffffffff8d166024820152604481018990526001600160a01b03909116606482015273f90cb82a76492614d07b82a7658917f3ac811ac1906311bf2c189083906084016000604051808303818588803b15801562000a0d57600080fd5b505af115801562000a22573d6000803e3d6000fd5b505050505060008560400151905060405180608001604052808d63ffffffff16815260200188600001516001600160a01b0316815260200182600162000a69919062001cb2565b815260200160011515815250600360008f815260200190815260200160002060008b6001600160a01b03166001600160a01b0316815260200190815260200160002060008201518160000160006101000a81548163ffffffff021916908363ffffffff16021790555060208201518160000160046101000a8154816001600160a01b0302191690836001600160a01b031602179055506040820151816001015560608201518160020160006101000a81548160ff0219169083151502179055509050507f1d784a2e6117c9c7790cd6effb9ad66fee4286853a212a375d7a5c8c7bf175a78d8860000151338f85600162000b64919062001cb2565b604080519586526001600160a01b039485166020870152929093169184019190915263ffffffff16606083015260808201524260a082015260c00160405180910390a150505050505050505050505050565b60405163a692979360e01b815263ffffffff8316600482015260248101829052600090819073f90cb82a76492614d07b82a7658917f3ac811ac19063a692979390604401602060405180830381865afa15801562000c18573d6000803e3d6000fd5b505050506040513d601f19601f8201168201806040525081019062000c3e919062001c68565b949350505050565b62000c5062001429565b604051806040016040528062000c6c836001600160a01b031690565b81526001602091820181905263ffffffff9490941660009081526005825260409020825181559101519201805460ff19169215159290921790915550565b63ffffffff851660009081526005602052604090206001015460ff1662000d0a5760405162461bcd60e51b815260206004820152601360248201527224b73b30b634b2102232b9ba34b730ba34b7b760691b6044820152606401620004fd565b60405160009062000d2a9089908990879033908a90899060200162001ccd565b60408051601f1981840301815282825263ffffffff8916600090815260056020529182205463fa31de0160e01b8452909350909173cc737a94fecaec165abcf12ded095bb13f0376859163fa31de019162000d8c918b91879060040162001c38565b6020604051808303816000875af115801562000dac573d6000803e3d6000fd5b505050506040513d601f19601f8201168201806040525081019062000dd2919062001c68565b9050600062000de68a8a8a8a8a8a62001485565b905060008a8a838b8b8b334260405160200162000e0b98979695949392919062001d34565b60408051601f1981840301815291815281516020928301206000818152600290935291206004015490915060ff161562000e7b5760405162461bcd60e51b815260206004820152601060248201526f50726f6d6f74696f6e2065786973747360801b6044820152606401620004fd565b600062000e898a8762000bb6565b90508034101562000ed05760405162461bcd60e51b815260206004820152601060248201526f496e73756666696369656e742067617360801b6044820152606401620004fd565b62000edc813462001c98565b6000838152600460205260408120805490919062000efc90849062001cb2565b9091555050604051630237e58360e31b81526004810185905263ffffffff8b1660248201526044810187905233606482015273f90cb82a76492614d07b82a7658917f3ac811ac1906311bf2c189083906084016000604051808303818588803b15801562000f6957600080fd5b505af115801562000f7e573d6000803e3d6000fd5b50505050506040518060c00160405280846001600160a01b031681526020018b63ffffffff168152602001336001600160a01b031681526020014281526020018a8152602001600115158152506002600084815260200190815260200160002060008201518160000160006101000a8154816001600160a01b0302191690836001600160a01b0316021790555060208201518160000160146101000a81548163ffffffff021916908363ffffffff16021790555060408201518160010160006101000a8154816001600160a01b0302191690836001600160a01b03160217905550606082015181600201556080820151816003015560a08201518160040160006101000a81548160ff021916908315150217905550905050600060046000848152602001908152602001600020541115620010fb57600082815260046020908152604091829020548251858152918201527f1b70566610f058a3248c965ad2923a4829beb0d4cbe6a069e49c71ff46ce07ea910160405180910390a15b7fd4a6ee30ad1cd3b2f4f9f76e9abd1d4954e098a7aebc8af7c92439acd488907682848c33428e8e60405162001138979695949392919062001dcc565b60405180910390a1505050505050505050505050565b6200115862001429565b62001164600062001579565b565b62001170620015c9565b6000828152600260205260409020600101546001600160a01b03163314620011ca5760405162461bcd60e51b815260206004820152600c60248201526b155b985d5d1a1bdc9a5e995960a21b6044820152606401620004fd565b600082815260046020526040902054620012145760405162461bcd60e51b815260206004820152600a6024820152694e6f2062616c616e636560b01b6044820152606401620004fd565b60008281526004602052604080822054905182916001600160a01b038516918381818185875af1925050503d80600081146200126d576040519150601f19603f3d011682016040523d82523d6000602084013e62001272565b606091505b50915091508115620012d1576000848152600460209081526040808320805493905580518781529182018390527f5aafa436e7bcce48335a89fd368e909dee8d7387d9349daaed3b167446d6841c910160405180910390a15062001303565b60405162461bcd60e51b815260206004820152600660248201526511985a5b195960d21b6044820152606401620004fd565b50506200130f60018055565b5050565b600081815260046020526040812080543492906200133390849062001cb2565b9091555050600081815260046020908152604091829020548251848152918201527f1b70566610f058a3248c965ad2923a4829beb0d4cbe6a069e49c71ff46ce07ea910160405180910390a150565b6200138c62001429565b6001600160a01b038116620013f35760405162461bcd60e51b815260206004820152602660248201527f4f776e61626c653a206e6577206f776e657220697320746865207a65726f206160448201526564647265737360d01b6064820152608401620004fd565b620013fe8162001579565b50565b600080600062001412858562001624565b9150915062001421816200166d565b509392505050565b6000546001600160a01b03163314620011645760405162461bcd60e51b815260206004820181905260248201527f4f776e61626c653a2063616c6c6572206973206e6f7420746865206f776e65726044820152606401620004fd565b600080604051806020016200149a9062001893565b601f1982820381018352601f909101166040819052620014dd908a908a90889033908b9073cc737a94fecaec165abcf12ded095bb13f0376859060200162001e27565b60408051601f1981840301815290829052620014fd929160200162001e92565b60408051808303601f1901815282825263ffffffff8916600090815260056020908152928120548251848401206001600160f81b031994860194909452602185015260418401879052606184019290925292509060810160408051808303601f1901815291905280516020909101209998505050505050505050565b600080546001600160a01b038381166001600160a01b0319831681178455604051919092169283917f8be0079c531659141344cd1fd0a4f28419497f9722a3daafe3b4186f6b6457e09190a35050565b6002600154036200161d5760405162461bcd60e51b815260206004820152601f60248201527f5265656e7472616e637947756172643a207265656e7472616e742063616c6c006044820152606401620004fd565b6002600155565b60008082516041036200165e5760208301516040840151606085015160001a6200165187828585620017ca565b9450945050505062001666565b506000905060025b9250929050565b600081600481111562001684576200168462001ec5565b036200168d5750565b6001816004811115620016a457620016a462001ec5565b03620016f35760405162461bcd60e51b815260206004820152601860248201527f45434453413a20696e76616c6964207369676e617475726500000000000000006044820152606401620004fd565b60028160048111156200170a576200170a62001ec5565b03620017595760405162461bcd60e51b815260206004820152601f60248201527f45434453413a20696e76616c6964207369676e6174757265206c656e677468006044820152606401620004fd565b600381600481111562001770576200177062001ec5565b03620013fe5760405162461bcd60e51b815260206004820152602260248201527f45434453413a20696e76616c6964207369676e6174757265202773272076616c604482015261756560f01b6064820152608401620004fd565b6000807f7fffffffffffffffffffffffffffffff5d576e7357a4501ddfe92f46681b20a08311156200180357506000905060036200188a565b6040805160008082526020820180845289905260ff881692820192909252606081018690526080810185905260019060a0016020604051602081039080840390855afa15801562001858573d6000803e3d6000fd5b5050604051601f1901519150506001600160a01b03811662001883576000600192509250506200188a565b9150600090505b94509492505050565b611fbe8062001edc83390190565b803563ffffffff81168114620018b657600080fd5b919050565b80356001600160a01b0381168114620018b657600080fd5b60008060008060008060a08789031215620018ed57600080fd5b86359550620018ff60208801620018a1565b9450604087013567ffffffffffffffff808211156200191d57600080fd5b818901915089601f8301126200193257600080fd5b8135818111156200194257600080fd5b8a60208285010111156200195557600080fd5b6020830196508095505050506200196f60608801620018bb565b9150608087013590509295509295509295565b600080604083850312156200199657600080fd5b620019a183620018a1565b946020939093013593505050565b60008060408385031215620019c357600080fd5b620019ce83620018a1565b9150620019de60208401620018bb565b90509250929050565b634e487b7160e01b600052604160045260246000fd5b600082601f83011262001a0f57600080fd5b813567ffffffffffffffff8082111562001a2d5762001a2d620019e7565b604051601f8301601f19908116603f0116810190828211818310171562001a585762001a58620019e7565b8160405283815286602085880101111562001a7257600080fd5b836020870160208301376000602085830101528094505050505092915050565b600080600080600080600060e0888a03121562001aae57600080fd5b873567ffffffffffffffff8082111562001ac757600080fd5b62001ad58b838c01620019fd565b985060208a013591508082111562001aec57600080fd5b62001afa8b838c01620019fd565b975062001b0a60408b01620018a1565b965060608a0135955060808a013591508082111562001b2857600080fd5b5062001b378a828b01620019fd565b93505060a0880135915060c0880135905092959891949750929550565b60006020828403121562001b6757600080fd5b62001b7282620018a1565b9392505050565b6000806040838503121562001b8d57600080fd5b82359150620019de60208401620018bb565b60006020828403121562001bb257600080fd5b5035919050565b60006020828403121562001bcc57600080fd5b62001b7282620018bb565b60005b8381101562001bf457818101518382015260200162001bda565b8381111562001c04576000848401525b50505050565b6000815180845262001c2481602086016020860162001bd7565b601f01601f19169290920160200192915050565b63ffffffff8416815282602082015260606040820152600062001c5f606083018462001c0a565b95945050505050565b60006020828403121562001c7b57600080fd5b5051919050565b634e487b7160e01b600052601160045260246000fd5b60008282101562001cad5762001cad62001c82565b500390565b6000821982111562001cc85762001cc862001c82565b500190565b60c08152600062001ce260c083018962001c0a565b828103602084015262001cf6818962001c0a565b9050828103604084015262001d0c818862001c0a565b6001600160a01b039690961660608401525050608081019290925260a0909101529392505050565b6000895162001d48818460208e0162001bd7565b89519083019062001d5e818360208e0162001bd7565b8082019150506bffffffffffffffffffffffff19808a60601b16825263ffffffff60e01b8960e01b166014830152876018830152865162001da7816038850160208b0162001bd7565b60609690961b16940160388101949094525050604c820152606c019695505050505050565b8781526001600160a01b03878116602083015263ffffffff87166040830152851660608201526080810184905260a0810183905260e060c0820181905260009062001e1a9083018462001c0a565b9998505050505050505050565b60c08152600062001e3c60c083018962001c0a565b828103602084015262001e50818962001c0a565b9050828103604084015262001e66818862001c0a565b6001600160a01b03968716606085015260808401959095525050921660a0909201919091529392505050565b6000835162001ea681846020880162001bd7565b83519083019062001ebc81836020880162001bd7565b01949350505050565b634e487b7160e01b600052602160045260246000fdfe60a06040523480156200001157600080fd5b5060405162001fbe38038062001fbe8339810160408190526200003491620002b2565b8551869086906200004d90600090602085019062000122565b5080516200006390600190602084019062000122565b505050620000806200007a620000cc60201b60201c565b620000d0565b83516200009590600990602087019062000122565b50600a919091556001600160a01b03908116608052600c80546001600160a01b0319169290911691909117905550620003ad915050565b3390565b600780546001600160a01b038381166001600160a01b0319831681179093556040519116919082907f8be0079c531659141344cd1fd0a4f28419497f9722a3daafe3b4186f6b6457e090600090a35050565b828054620001309062000371565b90600052602060002090601f0160209004810192826200015457600085556200019f565b82601f106200016f57805160ff19168380011785556200019f565b828001600101855582156200019f579182015b828111156200019f57825182559160200191906001019062000182565b50620001ad929150620001b1565b5090565b5b80821115620001ad5760008155600101620001b2565b634e487b7160e01b600052604160045260246000fd5b600082601f830112620001f057600080fd5b81516001600160401b03808211156200020d576200020d620001c8565b604051601f8301601f19908116603f01168101908282118183101715620002385762000238620001c8565b816040528381526020925086838588010111156200025557600080fd5b600091505b838210156200027957858201830151818301840152908201906200025a565b838211156200028b5760008385830101525b9695505050505050565b80516001600160a01b0381168114620002ad57600080fd5b919050565b60008060008060008060c08789031215620002cc57600080fd5b86516001600160401b0380821115620002e457600080fd5b620002f28a838b01620001de565b975060208901519150808211156200030957600080fd5b620003178a838b01620001de565b965060408901519150808211156200032e57600080fd5b506200033d89828a01620001de565b9450506200034e6060880162000295565b9250608087015191506200036560a0880162000295565b90509295509295509295565b600181811c908216806200038657607f821691505b602082108103620003a757634e487b7160e01b600052602260045260246000fd5b50919050565b608051611bee620003d0600039600081816102b4015261064b0152611bee6000f3fe608060405234801561001057600080fd5b50600436106101425760003560e01c8063715018a6116100b8578063b88d4fde1161007c578063b88d4fde14610289578063c87b56dd1461029c578063d5438eae146102af578063e0df5b6f146102d6578063e985e9c5146102e9578063f2fde38b1461032557600080fd5b8063715018a61461024c5780638da5cb5b1461025457806395d89b4114610265578063a22cb4651461026d578063b212ba9f1461028057600080fd5b806342842e0e1161010a57806342842e0e146101d75780634f8aaac6146101ea57806356d5d475146101f25780636352211e146102055780636769a0c41461021857806370a082311461022b57600080fd5b806301ffc9a71461014757806306fdde031461016f578063081812fc14610184578063095ea7b3146101af57806323b872dd146101c4575b600080fd5b61015a6101553660046116a5565b610338565b60405190151581526020015b60405180910390f35b61017761038a565b604051610166919061171a565b61019761019236600461172d565b61041c565b6040516001600160a01b039091168152602001610166565b6101c26101bd36600461175b565b610443565b005b6101c26101d2366004611787565b61055d565b6101c26101e5366004611787565b610597565b6101776105b2565b6101c26102003660046117c8565b610640565b61019761021336600461172d565b61071c565b600c54610197906001600160a01b031681565b61023e61023936600461185a565b61077c565b604051908152602001610166565b6101c2610802565b6007546001600160a01b0316610197565b610177610816565b6101c261027b366004611877565b610825565b61023e600a5481565b6101c2610297366004611941565b610834565b6101776102aa36600461172d565b6108b2565b6101977f000000000000000000000000000000000000000000000000000000000000000081565b6101c26102e43660046119c1565b6108bd565b61015a6102f7366004611a0a565b6001600160a01b03918216600090815260056020908152604080832093909416825291909152205460ff1690565b6101c261033336600461185a565b6108d8565b60006001600160e01b031982166380ac58cd60e01b148061036957506001600160e01b03198216635b5e139f60e01b145b8061038457506301ffc9a760e01b6001600160e01b03198316145b92915050565b60606000805461039990611a38565b80601f01602080910402602001604051908101604052809291908181526020018280546103c590611a38565b80156104125780601f106103e757610100808354040283529160200191610412565b820191906000526020600020905b8154815290600101906020018083116103f557829003601f168201915b5050505050905090565b600061042782610951565b506000908152600460205260409020546001600160a01b031690565b600061044e8261071c565b9050806001600160a01b0316836001600160a01b0316036104c05760405162461bcd60e51b815260206004820152602160248201527f4552433732313a20617070726f76616c20746f2063757272656e74206f776e656044820152603960f91b60648201526084015b60405180910390fd5b336001600160a01b03821614806104dc57506104dc81336102f7565b61054e5760405162461bcd60e51b815260206004820152603d60248201527f4552433732313a20617070726f76652063616c6c6572206973206e6f7420746f60448201527f6b656e206f776e6572206f7220617070726f76656420666f7220616c6c00000060648201526084016104b7565b61055883836109b0565b505050565b60405162461bcd60e51b815260206004820152600f60248201526e21b0b73737ba103a3930b739b332b960891b60448201526064016104b7565b61055883838360405180602001604052806000815250610834565b600980546105bf90611a38565b80601f01602080910402602001604051908101604052809291908181526020018280546105eb90611a38565b80156106385780601f1061060d57610100808354040283529160200191610638565b820191906000526020600020905b81548152906001019060200180831161061b57829003601f168201915b505050505081565b336001600160a01b037f0000000000000000000000000000000000000000000000000000000000000000161461067557600080fd5b60006106838284018461185a565b6001600160a01b0381166000908152600b6020526040812054919250036106b2576106ad81610a1e565b610715565b600a546001600160a01b0382166000908152600b60205260409020541061070c5760405162461bcd60e51b815260206004820152600e60248201526d4e6f206d6f726520636c61696d7360901b60448201526064016104b7565b61071581610b8a565b5050505050565b6000818152600260205260408120546001600160a01b0316806103845760405162461bcd60e51b8152602060048201526018602482015277115490cdcc8c4e881a5b9d985b1a59081d1bdad95b88125160421b60448201526064016104b7565b60006001600160a01b0382166107e65760405162461bcd60e51b815260206004820152602960248201527f4552433732313a2061646472657373207a65726f206973206e6f7420612076616044820152683634b21037bbb732b960b91b60648201526084016104b7565b506001600160a01b031660009081526003602052604090205490565b61080a610c0c565b6108146000610c66565b565b60606001805461039990611a38565b610830338383610cb8565b5050565b61083e3383610d86565b6108a05760405162461bcd60e51b815260206004820152602d60248201527f4552433732313a2063616c6c6572206973206e6f7420746f6b656e206f776e6560448201526c1c881bdc88185c1c1c9bdd9959609a1b60648201526084016104b7565b6108ac84848484610e05565b50505050565b606061038482610e38565b6108c5610c0c565b80516108309060099060208401906115f6565b6108e0610c0c565b6001600160a01b0381166109455760405162461bcd60e51b815260206004820152602660248201527f4f776e61626c653a206e6577206f776e657220697320746865207a65726f206160448201526564647265737360d01b60648201526084016104b7565b61094e81610c66565b50565b6000818152600260205260409020546001600160a01b031661094e5760405162461bcd60e51b8152602060048201526018602482015277115490cdcc8c4e881a5b9d985b1a59081d1bdad95b88125160421b60448201526064016104b7565b600081815260046020526040902080546001600160a01b0319166001600160a01b03841690811790915581906109e58261071c565b6001600160a01b03167f8c5be1e5ebec7d5bd14f71427d1e84f3dd0314c0f7b2291e5b200ac8c7c3b92560405160405180910390a45050565b6001600160a01b0381166000908152600b602052604090205415610a775760405162461bcd60e51b815260206004820152601060248201526f105b1c9958591e481bdddb9cc813919560821b60448201526064016104b7565b6000610a8260085490565b9050610a92600880546001019055565b610a9c8282610f40565b610b308160098054610aad90611a38565b80601f0160208091040260200160405190810160405280929190818152602001828054610ad990611a38565b8015610b265780601f10610afb57610100808354040283529160200191610b26565b820191906000526020600020905b815481529060010190602001808311610b0957829003601f168201915b5050505050610f5a565b6001600160a01b0382166000818152600b60209081526040918290206001908190558251938452908301527f2ace47925ca5e5683eb2c2eab99a115e60455cbfbe81a22bceb46f3399846c64910160405180910390a15050565b6001600160a01b0381166000908152600b60205260408120805460019290610bb3908490611a72565b90915550506001600160a01b0381166000818152600b6020908152604091829020548251938452908301527f2ace47925ca5e5683eb2c2eab99a115e60455cbfbe81a22bceb46f3399846c64910160405180910390a150565b6007546001600160a01b031633146108145760405162461bcd60e51b815260206004820181905260248201527f4f776e61626c653a2063616c6c6572206973206e6f7420746865206f776e657260448201526064016104b7565b600780546001600160a01b038381166001600160a01b0319831681179093556040519116919082907f8be0079c531659141344cd1fd0a4f28419497f9722a3daafe3b4186f6b6457e090600090a35050565b816001600160a01b0316836001600160a01b031603610d195760405162461bcd60e51b815260206004820152601960248201527f4552433732313a20617070726f766520746f2063616c6c65720000000000000060448201526064016104b7565b6001600160a01b03838116600081815260056020908152604080832094871680845294825291829020805460ff191686151590811790915591519182527f17307eab39ab6107e8899845ad3d59bd9653f200f220920489ca2b5937696c31910160405180910390a3505050565b600080610d928361071c565b9050806001600160a01b0316846001600160a01b03161480610dd957506001600160a01b0380821660009081526005602090815260408083209388168352929052205460ff165b80610dfd5750836001600160a01b0316610df28461041c565b6001600160a01b0316145b949350505050565b610e10848484610ff4565b610e1c84848484611158565b6108ac5760405162461bcd60e51b81526004016104b790611a98565b6060610e4382610951565b60008281526006602052604081208054610e5c90611a38565b80601f0160208091040260200160405190810160405280929190818152602001828054610e8890611a38565b8015610ed55780601f10610eaa57610100808354040283529160200191610ed5565b820191906000526020600020905b815481529060010190602001808311610eb857829003601f168201915b505050505090506000610ef360408051602081019091526000815290565b90508051600003610f05575092915050565b815115610f37578082604051602001610f1f929190611aea565b60405160208183030381529060405292505050919050565b610dfd84611259565b6108308282604051806020016040528060008152506112cd565b6000828152600260205260409020546001600160a01b0316610fd55760405162461bcd60e51b815260206004820152602e60248201527f45524337323155524953746f726167653a2055524920736574206f66206e6f6e60448201526d32bc34b9ba32b73a103a37b5b2b760911b60648201526084016104b7565b60008281526006602090815260409091208251610558928401906115f6565b826001600160a01b03166110078261071c565b6001600160a01b03161461102d5760405162461bcd60e51b81526004016104b790611b19565b6001600160a01b03821661108f5760405162461bcd60e51b8152602060048201526024808201527f4552433732313a207472616e7366657220746f20746865207a65726f206164646044820152637265737360e01b60648201526084016104b7565b826001600160a01b03166110a28261071c565b6001600160a01b0316146110c85760405162461bcd60e51b81526004016104b790611b19565b600081815260046020908152604080832080546001600160a01b03199081169091556001600160a01b0387811680865260038552838620805460001901905590871680865283862080546001019055868652600290945282852080549092168417909155905184937fddf252ad1be2c89b69c2b068fc378daa952ba7f163c4a11628f55a4df523b3ef91a4505050565b60006001600160a01b0384163b1561124e57604051630a85bd0160e11b81526001600160a01b0385169063150b7a029061119c903390899088908890600401611b5e565b6020604051808303816000875af19250505080156111d7575060408051601f3d908101601f191682019092526111d491810190611b9b565b60015b611234573d808015611205576040519150601f19603f3d011682016040523d82523d6000602084013e61120a565b606091505b50805160000361122c5760405162461bcd60e51b81526004016104b790611a98565b805181602001fd5b6001600160e01b031916630a85bd0160e11b149050610dfd565b506001949350505050565b606061126482610951565b600061127b60408051602081019091526000815290565b9050600081511161129b57604051806020016040528060008152506112c6565b806112a584611300565b6040516020016112b6929190611aea565b6040516020818303038152906040525b9392505050565b6112d78383611393565b6112e46000848484611158565b6105585760405162461bcd60e51b81526004016104b790611a98565b6060600061130d8361151e565b600101905060008167ffffffffffffffff81111561132d5761132d6118b5565b6040519080825280601f01601f191660200182016040528015611357576020820181803683370190505b5090508181016020015b600019016f181899199a1a9b1b9c1cb0b131b232b360811b600a86061a8153600a850494508461136157509392505050565b6001600160a01b0382166113e95760405162461bcd60e51b815260206004820181905260248201527f4552433732313a206d696e7420746f20746865207a65726f206164647265737360448201526064016104b7565b6000818152600260205260409020546001600160a01b03161561144e5760405162461bcd60e51b815260206004820152601c60248201527f4552433732313a20746f6b656e20616c7265616479206d696e7465640000000060448201526064016104b7565b6000818152600260205260409020546001600160a01b0316156114b35760405162461bcd60e51b815260206004820152601c60248201527f4552433732313a20746f6b656e20616c7265616479206d696e7465640000000060448201526064016104b7565b6001600160a01b038216600081815260036020908152604080832080546001019055848352600290915280822080546001600160a01b0319168417905551839291907fddf252ad1be2c89b69c2b068fc378daa952ba7f163c4a11628f55a4df523b3ef908290a45050565b60008072184f03e93ff9f4daa797ed6e38ed64bf6a1f0160401b831061155d5772184f03e93ff9f4daa797ed6e38ed64bf6a1f0160401b830492506040015b6d04ee2d6d415b85acef81000000008310611589576d04ee2d6d415b85acef8100000000830492506020015b662386f26fc1000083106115a757662386f26fc10000830492506010015b6305f5e10083106115bf576305f5e100830492506008015b61271083106115d357612710830492506004015b606483106115e5576064830492506002015b600a83106103845760010192915050565b82805461160290611a38565b90600052602060002090601f016020900481019282611624576000855561166a565b82601f1061163d57805160ff191683800117855561166a565b8280016001018555821561166a579182015b8281111561166a57825182559160200191906001019061164f565b5061167692915061167a565b5090565b5b80821115611676576000815560010161167b565b6001600160e01b03198116811461094e57600080fd5b6000602082840312156116b757600080fd5b81356112c68161168f565b60005b838110156116dd5781810151838201526020016116c5565b838111156108ac5750506000910152565b600081518084526117068160208601602086016116c2565b601f01601f19169290920160200192915050565b6020815260006112c660208301846116ee565b60006020828403121561173f57600080fd5b5035919050565b6001600160a01b038116811461094e57600080fd5b6000806040838503121561176e57600080fd5b823561177981611746565b946020939093013593505050565b60008060006060848603121561179c57600080fd5b83356117a781611746565b925060208401356117b781611746565b929592945050506040919091013590565b600080600080606085870312156117de57600080fd5b843563ffffffff811681146117f257600080fd5b935060208501359250604085013567ffffffffffffffff8082111561181657600080fd5b818701915087601f83011261182a57600080fd5b81358181111561183957600080fd5b88602082850101111561184b57600080fd5b95989497505060200194505050565b60006020828403121561186c57600080fd5b81356112c681611746565b6000806040838503121561188a57600080fd5b823561189581611746565b9150602083013580151581146118aa57600080fd5b809150509250929050565b634e487b7160e01b600052604160045260246000fd5b600067ffffffffffffffff808411156118e6576118e66118b5565b604051601f8501601f19908116603f0116810190828211818310171561190e5761190e6118b5565b8160405280935085815286868601111561192757600080fd5b858560208301376000602087830101525050509392505050565b6000806000806080858703121561195757600080fd5b843561196281611746565b9350602085013561197281611746565b925060408501359150606085013567ffffffffffffffff81111561199557600080fd5b8501601f810187136119a657600080fd5b6119b5878235602084016118cb565b91505092959194509250565b6000602082840312156119d357600080fd5b813567ffffffffffffffff8111156119ea57600080fd5b8201601f810184136119fb57600080fd5b610dfd848235602084016118cb565b60008060408385031215611a1d57600080fd5b8235611a2881611746565b915060208301356118aa81611746565b600181811c90821680611a4c57607f821691505b602082108103611a6c57634e487b7160e01b600052602260045260246000fd5b50919050565b60008219821115611a9357634e487b7160e01b600052601160045260246000fd5b500190565b60208082526032908201527f4552433732313a207472616e7366657220746f206e6f6e20455243373231526560408201527131b2b4bb32b91034b6b83632b6b2b73a32b960711b606082015260800190565b60008351611afc8184602088016116c2565b835190830190611b108183602088016116c2565b01949350505050565b60208082526025908201527f4552433732313a207472616e736665722066726f6d20696e636f72726563742060408201526437bbb732b960d91b606082015260800190565b6001600160a01b0385811682528416602082015260408101839052608060608201819052600090611b91908301846116ee565b9695505050505050565b600060208284031215611bad57600080fd5b81516112c68161168f56fea264697066735822122026ffb14a05535fd4ae0cb98c25e1d04bc0e4d6788a68bfdfb98b0b9c4342a49964736f6c634300080e0033a26469706673582212200d99e11a9ec8430a651b436cae4b9d68f8df1f188ffa6a1bf84ff18616b1006064736f6c634300080e0033",
  "devdoc": {
    "kind": "dev",
    "methods": {
      "owner()": {
        "details": "Returns the address of the current owner."
      },
      "renounceOwnership()": {
        "details": "Leaves the contract without owner. It will not be possible to call `onlyOwner` functions anymore. Can only be called by the current owner. NOTE: Renouncing ownership will leave the contract without an owner, thereby removing any functionality that is only available to the owner."
      },
      "transferOwnership(address)": {
        "details": "Transfers ownership of the contract to a new account (`newOwner`). Can only be called by the current owner."
      }
    },
    "version": 1
  },
  "userdoc": {
    "kind": "user",
    "methods": {},
    "version": 1
  },
  "storageLayout": {
    "storage": [
      {
        "astId": 7,
        "contract": "contracts/PromotionMain.sol:PromotionMain",
        "label": "_owner",
        "offset": 0,
        "slot": "0",
        "type": "t_address"
      },
      {
        "astId": 123,
        "contract": "contracts/PromotionMain.sol:PromotionMain",
        "label": "_status",
        "offset": 0,
        "slot": "1",
        "type": "t_uint256"
      },
      {
        "astId": 3548,
        "contract": "contracts/PromotionMain.sol:PromotionMain",
        "label": "promotions",
        "offset": 0,
        "slot": "2",
        "type": "t_mapping(t_bytes32,t_struct(Promotion)3534_storage)"
      },
      {
        "astId": 3555,
        "contract": "contracts/PromotionMain.sol:PromotionMain",
        "label": "claims",
        "offset": 0,
        "slot": "3",
        "type": "t_mapping(t_bytes32,t_mapping(t_address,t_struct(Claim)3543_storage))"
      },
      {
        "astId": 3559,
        "contract": "contracts/PromotionMain.sol:PromotionMain",
        "label": "gasTank",
        "offset": 0,
        "slot": "4",
        "type": "t_mapping(t_bytes32,t_uint256)"
      },
      {
        "astId": 3564,
        "contract": "contracts/PromotionMain.sol:PromotionMain",
        "label": "chains",
        "offset": 0,
        "slot": "5",
        "type": "t_mapping(t_uint32,t_struct(Receiver)3521_storage)"
      }
    ],
    "types": {
      "t_address": {
        "encoding": "inplace",
        "label": "address",
        "numberOfBytes": "20"
      },
      "t_bool": {
        "encoding": "inplace",
        "label": "bool",
        "numberOfBytes": "1"
      },
      "t_bytes32": {
        "encoding": "inplace",
        "label": "bytes32",
        "numberOfBytes": "32"
      },
      "t_mapping(t_address,t_struct(Claim)3543_storage)": {
        "encoding": "mapping",
        "key": "t_address",
        "label": "mapping(address => struct PromotionMain.Claim)",
        "numberOfBytes": "32",
        "value": "t_struct(Claim)3543_storage"
      },
      "t_mapping(t_bytes32,t_mapping(t_address,t_struct(Claim)3543_storage))": {
        "encoding": "mapping",
        "key": "t_bytes32",
        "label": "mapping(bytes32 => mapping(address => struct PromotionMain.Claim))",
        "numberOfBytes": "32",
        "value": "t_mapping(t_address,t_struct(Claim)3543_storage)"
      },
      "t_mapping(t_bytes32,t_struct(Promotion)3534_storage)": {
        "encoding": "mapping",
        "key": "t_bytes32",
        "label": "mapping(bytes32 => struct PromotionMain.Promotion)",
        "numberOfBytes": "32",
        "value": "t_struct(Promotion)3534_storage"
      },
      "t_mapping(t_bytes32,t_uint256)": {
        "encoding": "mapping",
        "key": "t_bytes32",
        "label": "mapping(bytes32 => uint256)",
        "numberOfBytes": "32",
        "value": "t_uint256"
      },
      "t_mapping(t_uint32,t_struct(Receiver)3521_storage)": {
        "encoding": "mapping",
        "key": "t_uint32",
        "label": "mapping(uint32 => struct PromotionMain.Receiver)",
        "numberOfBytes": "32",
        "value": "t_struct(Receiver)3521_storage"
      },
      "t_struct(Claim)3543_storage": {
        "encoding": "inplace",
        "label": "struct PromotionMain.Claim",
        "members": [
          {
            "astId": 3536,
            "contract": "contracts/PromotionMain.sol:PromotionMain",
            "label": "destinationDomain",
            "offset": 0,
            "slot": "0",
            "type": "t_uint32"
          },
          {
            "astId": 3538,
            "contract": "contracts/PromotionMain.sol:PromotionMain",
            "label": "promotionAddress",
            "offset": 4,
            "slot": "0",
            "type": "t_address"
          },
          {
            "astId": 3540,
            "contract": "contracts/PromotionMain.sol:PromotionMain",
            "label": "claimsCount",
            "offset": 0,
            "slot": "1",
            "type": "t_uint256"
          },
          {
            "astId": 3542,
            "contract": "contracts/PromotionMain.sol:PromotionMain",
            "label": "isExists",
            "offset": 0,
            "slot": "2",
            "type": "t_bool"
          }
        ],
        "numberOfBytes": "96"
      },
      "t_struct(Promotion)3534_storage": {
        "encoding": "inplace",
        "label": "struct PromotionMain.Promotion",
        "members": [
          {
            "astId": 3523,
            "contract": "contracts/PromotionMain.sol:PromotionMain",
            "label": "promotionAddress",
            "offset": 0,
            "slot": "0",
            "type": "t_address"
          },
          {
            "astId": 3525,
            "contract": "contracts/PromotionMain.sol:PromotionMain",
            "label": "destinationDomain",
            "offset": 20,
            "slot": "0",
            "type": "t_uint32"
          },
          {
            "astId": 3527,
            "contract": "contracts/PromotionMain.sol:PromotionMain",
            "label": "creator",
            "offset": 0,
            "slot": "1",
            "type": "t_address"
          },
          {
            "astId": 3529,
            "contract": "contracts/PromotionMain.sol:PromotionMain",
            "label": "createdAt",
            "offset": 0,
            "slot": "2",
            "type": "t_uint256"
          },
          {
            "astId": 3531,
            "contract": "contracts/PromotionMain.sol:PromotionMain",
            "label": "claimsPerPerson",
            "offset": 0,
            "slot": "3",
            "type": "t_uint256"
          },
          {
            "astId": 3533,
            "contract": "contracts/PromotionMain.sol:PromotionMain",
            "label": "isExists",
            "offset": 0,
            "slot": "4",
            "type": "t_bool"
          }
        ],
        "numberOfBytes": "160"
      },
      "t_struct(Receiver)3521_storage": {
        "encoding": "inplace",
        "label": "struct PromotionMain.Receiver",
        "members": [
          {
            "astId": 3518,
            "contract": "contracts/PromotionMain.sol:PromotionMain",
            "label": "destinationReceiverAddress",
            "offset": 0,
            "slot": "0",
            "type": "t_bytes32"
          },
          {
            "astId": 3520,
            "contract": "contracts/PromotionMain.sol:PromotionMain",
            "label": "isExists",
            "offset": 0,
            "slot": "1",
            "type": "t_bool"
          }
        ],
        "numberOfBytes": "64"
      },
      "t_uint256": {
        "encoding": "inplace",
        "label": "uint256",
        "numberOfBytes": "32"
      },
      "t_uint32": {
        "encoding": "inplace",
        "label": "uint32",
        "numberOfBytes": "4"
      }
    }
  }
}