{
  "address": "0xe7f1725E7734CE288F8367e1Bb143E90bb3F0512",
  "abi": [
    {
      "anonymous": false,
      "inputs": [
        {
          "indexed": false,
          "internalType": "address",
          "name": "promotionNFTAddress",
          "type": "address"
        }
      ],
      "name": "PromotionNFTDeployed",
      "type": "event"
    },
    {
      "anonymous": false,
      "inputs": [
        {
          "indexed": false,
          "internalType": "address",
          "name": "contractAddress",
          "type": "address"
        },
        {
          "indexed": false,
          "internalType": "address",
          "name": "creator",
          "type": "address"
        },
        {
          "indexed": false,
          "internalType": "string",
          "name": "newURI",
          "type": "string"
        }
      ],
      "name": "TokenURIChanged",
      "type": "event"
    },
    {
      "inputs": [
        {
          "internalType": "bytes32",
          "name": "_bytes32",
          "type": "bytes32"
        }
      ],
      "name": "bytes32ToString",
      "outputs": [
        {
          "internalType": "string",
          "name": "",
          "type": "string"
        }
      ],
      "stateMutability": "pure",
      "type": "function"
    },
    {
      "inputs": [
        {
          "internalType": "address",
          "name": "contractAddress",
          "type": "address"
        },
        {
          "internalType": "string",
          "name": "newURI",
          "type": "string"
        }
      ],
      "name": "changeTokenURI",
      "outputs": [],
      "stateMutability": "nonpayable",
      "type": "function"
    },
    {
      "inputs": [
        {
          "internalType": "address",
          "name": "",
          "type": "address"
        }
      ],
      "name": "deploymentCreator",
      "outputs": [
        {
          "internalType": "address",
          "name": "",
          "type": "address"
        }
      ],
      "stateMutability": "view",
      "type": "function"
    },
    {
      "inputs": [
        {
          "internalType": "address",
          "name": "promoter",
          "type": "address"
        }
      ],
      "name": "getLatestPromotionDeployment",
      "outputs": [
        {
          "internalType": "address",
          "name": "",
          "type": "address"
        }
      ],
      "stateMutability": "view",
      "type": "function"
    },
    {
      "inputs": [
        {
          "internalType": "uint32",
          "name": "_origin",
          "type": "uint32"
        },
        {
          "internalType": "bytes32",
          "name": "_sender",
          "type": "bytes32"
        },
        {
          "internalType": "bytes",
          "name": "_body",
          "type": "bytes"
        }
      ],
      "name": "handle",
      "outputs": [],
      "stateMutability": "nonpayable",
      "type": "function"
    },
    {
      "inputs": [
        {
          "internalType": "address",
          "name": "",
          "type": "address"
        }
      ],
      "name": "latestPromotionDeployment",
      "outputs": [
        {
          "internalType": "address",
          "name": "",
          "type": "address"
        }
      ],
      "stateMutability": "view",
      "type": "function"
    },
    {
      "inputs": [],
      "name": "mailbox",
      "outputs": [
        {
          "internalType": "address",
          "name": "",
          "type": "address"
        }
      ],
      "stateMutability": "view",
      "type": "function"
    }
  ],
  "transactionHash": "0x9e29320825f0257ca4628ce6f43d92acc2484b1d15826134782ca3a3d9a9f17b",
  "args": [],
  "numDeployments": 1,
  "solcInputHash": "0ca03ad8f5e33c55115d664f32736906",
  "bytecode": "0x60a060405273cc737a94fecaec165abcf12ded095bb13f03768560805234801561002857600080fd5b506080516127d761004b6000396000818161018c01526101b901526127d76000f3fe60806040523480156200001157600080fd5b5060043610620000875760003560e01c80639201de5511620000625780639201de55146200011a57806397eb01131462000140578063c1c253a9146200016f578063d5438eae146200018657600080fd5b80632b951aa3146200008c57806356d5d47514620000d55780637d45933b14620000ee575b600080fd5b620000b86200009d36600462000530565b6000602081905290815260409020546001600160a01b031681565b6040516001600160a01b0390911681526020015b60405180910390f35b620000ec620000e63660046200059a565b620001ae565b005b620000b8620000ff36600462000530565b6001602052600090815260409020546001600160a01b031681565b620001316200012b36600462000604565b620002b2565b604051620000cc919062000651565b620000b86200015136600462000530565b6001600160a01b039081166000908152602081905260409020541690565b620000ec6200018036600462000686565b62000403565b620000b87f000000000000000000000000000000000000000000000000000000000000000081565b336001600160a01b037f00000000000000000000000000000000000000000000000000000000000000001614620001e457600080fd5b6040517f0123456789abcdef0123456789abcdef0123456789abcdef0123456789abcdef9060009081906200021c6020820162000505565b601f1982820381018352601f90910116604081905262000244919087908790602001620006df565b6040516020818303038152906040529050828151602083016000f59150813b6200026d57600080fd5b6040516001600160a01b03831681527f1b71783b8dedd09b09a23e4631acfd5d04520f7e3c3c9ff1a7fa55aa32834ed29060200160405180910390a150505050505050565b606060005b60208160ff16108015620002ef5750828160ff1660208110620002de57620002de62000709565b1a60f81b6001600160f81b03191615155b156200030a578062000301816200071f565b915050620002b7565b60008160ff1667ffffffffffffffff8111156200032b576200032b6200074d565b6040519080825280601f01601f19166020018201604052801562000356576020820181803683370190505b509050600091505b60208260ff16108015620003965750838260ff166020811062000385576200038562000709565b1a60f81b6001600160f81b03191615155b15620003fc57838260ff1660208110620003b457620003b462000709565b1a60f81b818360ff1681518110620003d057620003d062000709565b60200101906001600160f81b031916908160001a90535081620003f3816200071f565b9250506200035e565b9392505050565b6001600160a01b038381166000908152600160205260409020541633146200045d5760405162461bcd60e51b8152602060048201526009602482015268139bdd081bdddb995960ba1b604482015260640160405180910390fd5b60405163e0df5b6f60e01b81526001600160a01b0384169063e0df5b6f906200048d90859085906004016200078c565b600060405180830381600087803b158015620004a857600080fd5b505af1158015620004bd573d6000803e3d6000fd5b505050507f4c76bac06cb8c6c3a184c7ca049a43e32e126ecccc406b612f103653d9cb071783338484604051620004f89493929190620007aa565b60405180910390a1505050565b611fbe80620007e483390190565b80356001600160a01b03811681146200052b57600080fd5b919050565b6000602082840312156200054357600080fd5b620003fc8262000513565b60008083601f8401126200056157600080fd5b50813567ffffffffffffffff8111156200057a57600080fd5b6020830191508360208285010111156200059357600080fd5b9250929050565b60008060008060608587031215620005b157600080fd5b843563ffffffff81168114620005c657600080fd5b935060208501359250604085013567ffffffffffffffff811115620005ea57600080fd5b620005f8878288016200054e565b95989497509550505050565b6000602082840312156200061757600080fd5b5035919050565b60005b838110156200063b57818101518382015260200162000621565b838111156200064b576000848401525b50505050565b6020815260008251806020840152620006728160408501602087016200061e565b601f01601f19169190910160400192915050565b6000806000604084860312156200069c57600080fd5b620006a78462000513565b9250602084013567ffffffffffffffff811115620006c457600080fd5b620006d2868287016200054e565b9497909650939450505050565b60008451620006f38184602089016200061e565b8201838582376000930192835250909392505050565b634e487b7160e01b600052603260045260246000fd5b600060ff821660ff81036200074457634e487b7160e01b600052601160045260246000fd5b60010192915050565b634e487b7160e01b600052604160045260246000fd5b81835281816020850137506000828201602090810191909152601f909101601f19169091010190565b602081526000620007a260208301848662000763565b949350505050565b6001600160a01b03858116825284166020820152606060408201819052600090620007d9908301848662000763565b969550505050505056fe60a06040523480156200001157600080fd5b5060405162001fbe38038062001fbe8339810160408190526200003491620002b2565b8551869086906200004d90600090602085019062000122565b5080516200006390600190602084019062000122565b505050620000806200007a620000cc60201b60201c565b620000d0565b83516200009590600990602087019062000122565b50600a919091556001600160a01b03908116608052600c80546001600160a01b0319169290911691909117905550620003ad915050565b3390565b600780546001600160a01b038381166001600160a01b0319831681179093556040519116919082907f8be0079c531659141344cd1fd0a4f28419497f9722a3daafe3b4186f6b6457e090600090a35050565b828054620001309062000371565b90600052602060002090601f0160209004810192826200015457600085556200019f565b82601f106200016f57805160ff19168380011785556200019f565b828001600101855582156200019f579182015b828111156200019f57825182559160200191906001019062000182565b50620001ad929150620001b1565b5090565b5b80821115620001ad5760008155600101620001b2565b634e487b7160e01b600052604160045260246000fd5b600082601f830112620001f057600080fd5b81516001600160401b03808211156200020d576200020d620001c8565b604051601f8301601f19908116603f01168101908282118183101715620002385762000238620001c8565b816040528381526020925086838588010111156200025557600080fd5b600091505b838210156200027957858201830151818301840152908201906200025a565b838211156200028b5760008385830101525b9695505050505050565b80516001600160a01b0381168114620002ad57600080fd5b919050565b60008060008060008060c08789031215620002cc57600080fd5b86516001600160401b0380821115620002e457600080fd5b620002f28a838b01620001de565b975060208901519150808211156200030957600080fd5b620003178a838b01620001de565b965060408901519150808211156200032e57600080fd5b506200033d89828a01620001de565b9450506200034e6060880162000295565b9250608087015191506200036560a0880162000295565b90509295509295509295565b600181811c908216806200038657607f821691505b602082108103620003a757634e487b7160e01b600052602260045260246000fd5b50919050565b608051611bee620003d0600039600081816102b4015261064b0152611bee6000f3fe608060405234801561001057600080fd5b50600436106101425760003560e01c8063715018a6116100b8578063b88d4fde1161007c578063b88d4fde14610289578063c87b56dd1461029c578063d5438eae146102af578063e0df5b6f146102d6578063e985e9c5146102e9578063f2fde38b1461032557600080fd5b8063715018a61461024c5780638da5cb5b1461025457806395d89b4114610265578063a22cb4651461026d578063b212ba9f1461028057600080fd5b806342842e0e1161010a57806342842e0e146101d75780634f8aaac6146101ea57806356d5d475146101f25780636352211e146102055780636769a0c41461021857806370a082311461022b57600080fd5b806301ffc9a71461014757806306fdde031461016f578063081812fc14610184578063095ea7b3146101af57806323b872dd146101c4575b600080fd5b61015a6101553660046116a5565b610338565b60405190151581526020015b60405180910390f35b61017761038a565b604051610166919061171a565b61019761019236600461172d565b61041c565b6040516001600160a01b039091168152602001610166565b6101c26101bd36600461175b565b610443565b005b6101c26101d2366004611787565b61055d565b6101c26101e5366004611787565b610597565b6101776105b2565b6101c26102003660046117c8565b610640565b61019761021336600461172d565b61071c565b600c54610197906001600160a01b031681565b61023e61023936600461185a565b61077c565b604051908152602001610166565b6101c2610802565b6007546001600160a01b0316610197565b610177610816565b6101c261027b366004611877565b610825565b61023e600a5481565b6101c2610297366004611941565b610834565b6101776102aa36600461172d565b6108b2565b6101977f000000000000000000000000000000000000000000000000000000000000000081565b6101c26102e43660046119c1565b6108bd565b61015a6102f7366004611a0a565b6001600160a01b03918216600090815260056020908152604080832093909416825291909152205460ff1690565b6101c261033336600461185a565b6108d8565b60006001600160e01b031982166380ac58cd60e01b148061036957506001600160e01b03198216635b5e139f60e01b145b8061038457506301ffc9a760e01b6001600160e01b03198316145b92915050565b60606000805461039990611a38565b80601f01602080910402602001604051908101604052809291908181526020018280546103c590611a38565b80156104125780601f106103e757610100808354040283529160200191610412565b820191906000526020600020905b8154815290600101906020018083116103f557829003601f168201915b5050505050905090565b600061042782610951565b506000908152600460205260409020546001600160a01b031690565b600061044e8261071c565b9050806001600160a01b0316836001600160a01b0316036104c05760405162461bcd60e51b815260206004820152602160248201527f4552433732313a20617070726f76616c20746f2063757272656e74206f776e656044820152603960f91b60648201526084015b60405180910390fd5b336001600160a01b03821614806104dc57506104dc81336102f7565b61054e5760405162461bcd60e51b815260206004820152603d60248201527f4552433732313a20617070726f76652063616c6c6572206973206e6f7420746f60448201527f6b656e206f776e6572206f7220617070726f76656420666f7220616c6c00000060648201526084016104b7565b61055883836109b0565b505050565b60405162461bcd60e51b815260206004820152600f60248201526e21b0b73737ba103a3930b739b332b960891b60448201526064016104b7565b61055883838360405180602001604052806000815250610834565b600980546105bf90611a38565b80601f01602080910402602001604051908101604052809291908181526020018280546105eb90611a38565b80156106385780601f1061060d57610100808354040283529160200191610638565b820191906000526020600020905b81548152906001019060200180831161061b57829003601f168201915b505050505081565b336001600160a01b037f0000000000000000000000000000000000000000000000000000000000000000161461067557600080fd5b60006106838284018461185a565b6001600160a01b0381166000908152600b6020526040812054919250036106b2576106ad81610a1e565b610715565b600a546001600160a01b0382166000908152600b60205260409020541061070c5760405162461bcd60e51b815260206004820152600e60248201526d4e6f206d6f726520636c61696d7360901b60448201526064016104b7565b61071581610b8a565b5050505050565b6000818152600260205260408120546001600160a01b0316806103845760405162461bcd60e51b8152602060048201526018602482015277115490cdcc8c4e881a5b9d985b1a59081d1bdad95b88125160421b60448201526064016104b7565b60006001600160a01b0382166107e65760405162461bcd60e51b815260206004820152602960248201527f4552433732313a2061646472657373207a65726f206973206e6f7420612076616044820152683634b21037bbb732b960b91b60648201526084016104b7565b506001600160a01b031660009081526003602052604090205490565b61080a610c0c565b6108146000610c66565b565b60606001805461039990611a38565b610830338383610cb8565b5050565b61083e3383610d86565b6108a05760405162461bcd60e51b815260206004820152602d60248201527f4552433732313a2063616c6c6572206973206e6f7420746f6b656e206f776e6560448201526c1c881bdc88185c1c1c9bdd9959609a1b60648201526084016104b7565b6108ac84848484610e05565b50505050565b606061038482610e38565b6108c5610c0c565b80516108309060099060208401906115f6565b6108e0610c0c565b6001600160a01b0381166109455760405162461bcd60e51b815260206004820152602660248201527f4f776e61626c653a206e6577206f776e657220697320746865207a65726f206160448201526564647265737360d01b60648201526084016104b7565b61094e81610c66565b50565b6000818152600260205260409020546001600160a01b031661094e5760405162461bcd60e51b8152602060048201526018602482015277115490cdcc8c4e881a5b9d985b1a59081d1bdad95b88125160421b60448201526064016104b7565b600081815260046020526040902080546001600160a01b0319166001600160a01b03841690811790915581906109e58261071c565b6001600160a01b03167f8c5be1e5ebec7d5bd14f71427d1e84f3dd0314c0f7b2291e5b200ac8c7c3b92560405160405180910390a45050565b6001600160a01b0381166000908152600b602052604090205415610a775760405162461bcd60e51b815260206004820152601060248201526f105b1c9958591e481bdddb9cc813919560821b60448201526064016104b7565b6000610a8260085490565b9050610a92600880546001019055565b610a9c8282610f40565b610b308160098054610aad90611a38565b80601f0160208091040260200160405190810160405280929190818152602001828054610ad990611a38565b8015610b265780601f10610afb57610100808354040283529160200191610b26565b820191906000526020600020905b815481529060010190602001808311610b0957829003601f168201915b5050505050610f5a565b6001600160a01b0382166000818152600b60209081526040918290206001908190558251938452908301527f2ace47925ca5e5683eb2c2eab99a115e60455cbfbe81a22bceb46f3399846c64910160405180910390a15050565b6001600160a01b0381166000908152600b60205260408120805460019290610bb3908490611a72565b90915550506001600160a01b0381166000818152600b6020908152604091829020548251938452908301527f2ace47925ca5e5683eb2c2eab99a115e60455cbfbe81a22bceb46f3399846c64910160405180910390a150565b6007546001600160a01b031633146108145760405162461bcd60e51b815260206004820181905260248201527f4f776e61626c653a2063616c6c6572206973206e6f7420746865206f776e657260448201526064016104b7565b600780546001600160a01b038381166001600160a01b0319831681179093556040519116919082907f8be0079c531659141344cd1fd0a4f28419497f9722a3daafe3b4186f6b6457e090600090a35050565b816001600160a01b0316836001600160a01b031603610d195760405162461bcd60e51b815260206004820152601960248201527f4552433732313a20617070726f766520746f2063616c6c65720000000000000060448201526064016104b7565b6001600160a01b03838116600081815260056020908152604080832094871680845294825291829020805460ff191686151590811790915591519182527f17307eab39ab6107e8899845ad3d59bd9653f200f220920489ca2b5937696c31910160405180910390a3505050565b600080610d928361071c565b9050806001600160a01b0316846001600160a01b03161480610dd957506001600160a01b0380821660009081526005602090815260408083209388168352929052205460ff165b80610dfd5750836001600160a01b0316610df28461041c565b6001600160a01b0316145b949350505050565b610e10848484610ff4565b610e1c84848484611158565b6108ac5760405162461bcd60e51b81526004016104b790611a98565b6060610e4382610951565b60008281526006602052604081208054610e5c90611a38565b80601f0160208091040260200160405190810160405280929190818152602001828054610e8890611a38565b8015610ed55780601f10610eaa57610100808354040283529160200191610ed5565b820191906000526020600020905b815481529060010190602001808311610eb857829003601f168201915b505050505090506000610ef360408051602081019091526000815290565b90508051600003610f05575092915050565b815115610f37578082604051602001610f1f929190611aea565b60405160208183030381529060405292505050919050565b610dfd84611259565b6108308282604051806020016040528060008152506112cd565b6000828152600260205260409020546001600160a01b0316610fd55760405162461bcd60e51b815260206004820152602e60248201527f45524337323155524953746f726167653a2055524920736574206f66206e6f6e60448201526d32bc34b9ba32b73a103a37b5b2b760911b60648201526084016104b7565b60008281526006602090815260409091208251610558928401906115f6565b826001600160a01b03166110078261071c565b6001600160a01b03161461102d5760405162461bcd60e51b81526004016104b790611b19565b6001600160a01b03821661108f5760405162461bcd60e51b8152602060048201526024808201527f4552433732313a207472616e7366657220746f20746865207a65726f206164646044820152637265737360e01b60648201526084016104b7565b826001600160a01b03166110a28261071c565b6001600160a01b0316146110c85760405162461bcd60e51b81526004016104b790611b19565b600081815260046020908152604080832080546001600160a01b03199081169091556001600160a01b0387811680865260038552838620805460001901905590871680865283862080546001019055868652600290945282852080549092168417909155905184937fddf252ad1be2c89b69c2b068fc378daa952ba7f163c4a11628f55a4df523b3ef91a4505050565b60006001600160a01b0384163b1561124e57604051630a85bd0160e11b81526001600160a01b0385169063150b7a029061119c903390899088908890600401611b5e565b6020604051808303816000875af19250505080156111d7575060408051601f3d908101601f191682019092526111d491810190611b9b565b60015b611234573d808015611205576040519150601f19603f3d011682016040523d82523d6000602084013e61120a565b606091505b50805160000361122c5760405162461bcd60e51b81526004016104b790611a98565b805181602001fd5b6001600160e01b031916630a85bd0160e11b149050610dfd565b506001949350505050565b606061126482610951565b600061127b60408051602081019091526000815290565b9050600081511161129b57604051806020016040528060008152506112c6565b806112a584611300565b6040516020016112b6929190611aea565b6040516020818303038152906040525b9392505050565b6112d78383611393565b6112e46000848484611158565b6105585760405162461bcd60e51b81526004016104b790611a98565b6060600061130d8361151e565b600101905060008167ffffffffffffffff81111561132d5761132d6118b5565b6040519080825280601f01601f191660200182016040528015611357576020820181803683370190505b5090508181016020015b600019016f181899199a1a9b1b9c1cb0b131b232b360811b600a86061a8153600a850494508461136157509392505050565b6001600160a01b0382166113e95760405162461bcd60e51b815260206004820181905260248201527f4552433732313a206d696e7420746f20746865207a65726f206164647265737360448201526064016104b7565b6000818152600260205260409020546001600160a01b03161561144e5760405162461bcd60e51b815260206004820152601c60248201527f4552433732313a20746f6b656e20616c7265616479206d696e7465640000000060448201526064016104b7565b6000818152600260205260409020546001600160a01b0316156114b35760405162461bcd60e51b815260206004820152601c60248201527f4552433732313a20746f6b656e20616c7265616479206d696e7465640000000060448201526064016104b7565b6001600160a01b038216600081815260036020908152604080832080546001019055848352600290915280822080546001600160a01b0319168417905551839291907fddf252ad1be2c89b69c2b068fc378daa952ba7f163c4a11628f55a4df523b3ef908290a45050565b60008072184f03e93ff9f4daa797ed6e38ed64bf6a1f0160401b831061155d5772184f03e93ff9f4daa797ed6e38ed64bf6a1f0160401b830492506040015b6d04ee2d6d415b85acef81000000008310611589576d04ee2d6d415b85acef8100000000830492506020015b662386f26fc1000083106115a757662386f26fc10000830492506010015b6305f5e10083106115bf576305f5e100830492506008015b61271083106115d357612710830492506004015b606483106115e5576064830492506002015b600a83106103845760010192915050565b82805461160290611a38565b90600052602060002090601f016020900481019282611624576000855561166a565b82601f1061163d57805160ff191683800117855561166a565b8280016001018555821561166a579182015b8281111561166a57825182559160200191906001019061164f565b5061167692915061167a565b5090565b5b80821115611676576000815560010161167b565b6001600160e01b03198116811461094e57600080fd5b6000602082840312156116b757600080fd5b81356112c68161168f565b60005b838110156116dd5781810151838201526020016116c5565b838111156108ac5750506000910152565b600081518084526117068160208601602086016116c2565b601f01601f19169290920160200192915050565b6020815260006112c660208301846116ee565b60006020828403121561173f57600080fd5b5035919050565b6001600160a01b038116811461094e57600080fd5b6000806040838503121561176e57600080fd5b823561177981611746565b946020939093013593505050565b60008060006060848603121561179c57600080fd5b83356117a781611746565b925060208401356117b781611746565b929592945050506040919091013590565b600080600080606085870312156117de57600080fd5b843563ffffffff811681146117f257600080fd5b935060208501359250604085013567ffffffffffffffff8082111561181657600080fd5b818701915087601f83011261182a57600080fd5b81358181111561183957600080fd5b88602082850101111561184b57600080fd5b95989497505060200194505050565b60006020828403121561186c57600080fd5b81356112c681611746565b6000806040838503121561188a57600080fd5b823561189581611746565b9150602083013580151581146118aa57600080fd5b809150509250929050565b634e487b7160e01b600052604160045260246000fd5b600067ffffffffffffffff808411156118e6576118e66118b5565b604051601f8501601f19908116603f0116810190828211818310171561190e5761190e6118b5565b8160405280935085815286868601111561192757600080fd5b858560208301376000602087830101525050509392505050565b6000806000806080858703121561195757600080fd5b843561196281611746565b9350602085013561197281611746565b925060408501359150606085013567ffffffffffffffff81111561199557600080fd5b8501601f810187136119a657600080fd5b6119b5878235602084016118cb565b91505092959194509250565b6000602082840312156119d357600080fd5b813567ffffffffffffffff8111156119ea57600080fd5b8201601f810184136119fb57600080fd5b610dfd848235602084016118cb565b60008060408385031215611a1d57600080fd5b8235611a2881611746565b915060208301356118aa81611746565b600181811c90821680611a4c57607f821691505b602082108103611a6c57634e487b7160e01b600052602260045260246000fd5b50919050565b60008219821115611a9357634e487b7160e01b600052601160045260246000fd5b500190565b60208082526032908201527f4552433732313a207472616e7366657220746f206e6f6e20455243373231526560408201527131b2b4bb32b91034b6b83632b6b2b73a32b960711b606082015260800190565b60008351611afc8184602088016116c2565b835190830190611b108183602088016116c2565b01949350505050565b60208082526025908201527f4552433732313a207472616e736665722066726f6d20696e636f72726563742060408201526437bbb732b960d91b606082015260800190565b6001600160a01b0385811682528416602082015260408101839052608060608201819052600090611b91908301846116ee565b9695505050505050565b600060208284031215611bad57600080fd5b81516112c68161168f56fea264697066735822122026ffb14a05535fd4ae0cb98c25e1d04bc0e4d6788a68bfdfb98b0b9c4342a49964736f6c634300080e0033a2646970667358221220216fe85c4df00950e482d8fc25b319191261486bc468cd4445da568bf9ffc9aa64736f6c634300080e0033",
  "devdoc": {
    "kind": "dev",
    "methods": {
      "handle(uint32,bytes32,bytes)": {
        "params": {
          "_body": "Raw bytes content of message body",
          "_origin": "Domain ID of the chain from which the message came",
          "_sender": "Address of the message sender on the origin chain as bytes32"
        }
      }
    },
    "version": 1
  },
  "userdoc": {
    "kind": "user",
    "methods": {
      "handle(uint32,bytes32,bytes)": {
        "notice": "Handle an interchain message"
      }
    },
    "version": 1
  },
  "storageLayout": {
    "storage": [
      {
        "astId": 3094,
        "contract": "contracts/Receiver.sol:Receiver",
        "label": "latestPromotionDeployment",
        "offset": 0,
        "slot": "0",
        "type": "t_mapping(t_address,t_address)"
      },
      {
        "astId": 3098,
        "contract": "contracts/Receiver.sol:Receiver",
        "label": "deploymentCreator",
        "offset": 0,
        "slot": "1",
        "type": "t_mapping(t_address,t_address)"
      }
    ],
    "types": {
      "t_address": {
        "encoding": "inplace",
        "label": "address",
        "numberOfBytes": "20"
      },
      "t_mapping(t_address,t_address)": {
        "encoding": "mapping",
        "key": "t_address",
        "label": "mapping(address => address)",
        "numberOfBytes": "32",
        "value": "t_address"
      }
    }
  }
}