{
  "_format": "hh-sol-artifact-1",
  "contractName": "ERC721Promotion",
  "sourceName": "contracts/ERC721Promotion.sol",
  "abi": [
    {
      "inputs": [
        {
          "internalType": "string",
          "name": "name",
          "type": "string"
        },
        {
          "internalType": "string",
          "name": "symbol",
          "type": "string"
        },
        {
          "internalType": "string",
          "name": "_tokenURI",
          "type": "string"
        },
        {
          "internalType": "address",
          "name": "_promoterAddress",
          "type": "address"
        },
        {
          "internalType": "uint256",
          "name": "_amountOfClaimsPerPerson",
          "type": "uint256"
        }
      ],
      "stateMutability": "nonpayable",
      "type": "constructor"
    },
    {
      "anonymous": false,
      "inputs": [
        {
          "indexed": true,
          "internalType": "address",
          "name": "owner",
          "type": "address"
        },
        {
          "indexed": true,
          "internalType": "address",
          "name": "approved",
          "type": "address"
        },
        {
          "indexed": true,
          "internalType": "uint256",
          "name": "tokenId",
          "type": "uint256"
        }
      ],
      "name": "Approval",
      "type": "event"
    },
    {
      "anonymous": false,
      "inputs": [
        {
          "indexed": true,
          "internalType": "address",
          "name": "owner",
          "type": "address"
        },
        {
          "indexed": true,
          "internalType": "address",
          "name": "operator",
          "type": "address"
        },
        {
          "indexed": false,
          "internalType": "bool",
          "name": "approved",
          "type": "bool"
        }
      ],
      "name": "ApprovalForAll",
      "type": "event"
    },
    {
      "anonymous": false,
      "inputs": [
        {
          "indexed": false,
          "internalType": "address",
          "name": "claimer",
          "type": "address"
        },
        {
          "indexed": false,
          "internalType": "uint256",
          "name": "claimCount",
          "type": "uint256"
        }
      ],
      "name": "ClaimedPromotion",
      "type": "event"
    },
    {
      "anonymous": false,
      "inputs": [
        {
          "indexed": true,
          "internalType": "address",
          "name": "previousOwner",
          "type": "address"
        },
        {
          "indexed": true,
          "internalType": "address",
          "name": "newOwner",
          "type": "address"
        }
      ],
      "name": "OwnershipTransferred",
      "type": "event"
    },
    {
      "anonymous": false,
      "inputs": [
        {
          "indexed": true,
          "internalType": "address",
          "name": "from",
          "type": "address"
        },
        {
          "indexed": true,
          "internalType": "address",
          "name": "to",
          "type": "address"
        },
        {
          "indexed": true,
          "internalType": "uint256",
          "name": "tokenId",
          "type": "uint256"
        }
      ],
      "name": "Transfer",
      "type": "event"
    },
    {
      "inputs": [],
      "name": "MAILBOX_ADDRESS",
      "outputs": [
        {
          "internalType": "address",
          "name": "",
          "type": "address"
        }
      ],
      "stateMutability": "view",
      "type": "function"
    },
    {
      "inputs": [],
      "name": "amountOfClaimsPerPerson",
      "outputs": [
        {
          "internalType": "uint256",
          "name": "",
          "type": "uint256"
        }
      ],
      "stateMutability": "view",
      "type": "function"
    },
    {
      "inputs": [
        {
          "internalType": "address",
          "name": "to",
          "type": "address"
        },
        {
          "internalType": "uint256",
          "name": "tokenId",
          "type": "uint256"
        }
      ],
      "name": "approve",
      "outputs": [],
      "stateMutability": "nonpayable",
      "type": "function"
    },
    {
      "inputs": [],
      "name": "badgeTokenURI",
      "outputs": [
        {
          "internalType": "string",
          "name": "",
          "type": "string"
        }
      ],
      "stateMutability": "view",
      "type": "function"
    },
    {
      "inputs": [
        {
          "internalType": "address",
          "name": "owner",
          "type": "address"
        }
      ],
      "name": "balanceOf",
      "outputs": [
        {
          "internalType": "uint256",
          "name": "",
          "type": "uint256"
        }
      ],
      "stateMutability": "view",
      "type": "function"
    },
    {
      "inputs": [
        {
          "internalType": "uint256",
          "name": "tokenId",
          "type": "uint256"
        }
      ],
      "name": "getApproved",
      "outputs": [
        {
          "internalType": "address",
          "name": "",
          "type": "address"
        }
      ],
      "stateMutability": "view",
      "type": "function"
    },
    {
      "inputs": [
        {
          "internalType": "uint32",
          "name": "_origin",
          "type": "uint32"
        },
        {
          "internalType": "bytes32",
          "name": "_sender",
          "type": "bytes32"
        },
        {
          "internalType": "bytes",
          "name": "_body",
          "type": "bytes"
        }
      ],
      "name": "handle",
      "outputs": [],
      "stateMutability": "nonpayable",
      "type": "function"
    },
    {
      "inputs": [
        {
          "internalType": "address",
          "name": "owner",
          "type": "address"
        },
        {
          "internalType": "address",
          "name": "operator",
          "type": "address"
        }
      ],
      "name": "isApprovedForAll",
      "outputs": [
        {
          "internalType": "bool",
          "name": "",
          "type": "bool"
        }
      ],
      "stateMutability": "view",
      "type": "function"
    },
    {
      "inputs": [],
      "name": "name",
      "outputs": [
        {
          "internalType": "string",
          "name": "",
          "type": "string"
        }
      ],
      "stateMutability": "view",
      "type": "function"
    },
    {
      "inputs": [],
      "name": "owner",
      "outputs": [
        {
          "internalType": "address",
          "name": "",
          "type": "address"
        }
      ],
      "stateMutability": "view",
      "type": "function"
    },
    {
      "inputs": [
        {
          "internalType": "uint256",
          "name": "tokenId",
          "type": "uint256"
        }
      ],
      "name": "ownerOf",
      "outputs": [
        {
          "internalType": "address",
          "name": "",
          "type": "address"
        }
      ],
      "stateMutability": "view",
      "type": "function"
    },
    {
      "inputs": [],
      "name": "promoter",
      "outputs": [
        {
          "internalType": "address",
          "name": "",
          "type": "address"
        }
      ],
      "stateMutability": "view",
      "type": "function"
    },
    {
      "inputs": [],
      "name": "renounceOwnership",
      "outputs": [],
      "stateMutability": "nonpayable",
      "type": "function"
    },
    {
      "inputs": [
        {
          "internalType": "address",
          "name": "from",
          "type": "address"
        },
        {
          "internalType": "address",
          "name": "to",
          "type": "address"
        },
        {
          "internalType": "uint256",
          "name": "tokenId",
          "type": "uint256"
        }
      ],
      "name": "safeTransferFrom",
      "outputs": [],
      "stateMutability": "nonpayable",
      "type": "function"
    },
    {
      "inputs": [
        {
          "internalType": "address",
          "name": "from",
          "type": "address"
        },
        {
          "internalType": "address",
          "name": "to",
          "type": "address"
        },
        {
          "internalType": "uint256",
          "name": "tokenId",
          "type": "uint256"
        },
        {
          "internalType": "bytes",
          "name": "data",
          "type": "bytes"
        }
      ],
      "name": "safeTransferFrom",
      "outputs": [],
      "stateMutability": "nonpayable",
      "type": "function"
    },
    {
      "inputs": [
        {
          "internalType": "address",
          "name": "operator",
          "type": "address"
        },
        {
          "internalType": "bool",
          "name": "approved",
          "type": "bool"
        }
      ],
      "name": "setApprovalForAll",
      "outputs": [],
      "stateMutability": "nonpayable",
      "type": "function"
    },
    {
      "inputs": [
        {
          "internalType": "string",
          "name": "_tokenURI",
          "type": "string"
        }
      ],
      "name": "setTokenURI",
      "outputs": [],
      "stateMutability": "nonpayable",
      "type": "function"
    },
    {
      "inputs": [
        {
          "internalType": "bytes4",
          "name": "interfaceId",
          "type": "bytes4"
        }
      ],
      "name": "supportsInterface",
      "outputs": [
        {
          "internalType": "bool",
          "name": "",
          "type": "bool"
        }
      ],
      "stateMutability": "view",
      "type": "function"
    },
    {
      "inputs": [],
      "name": "symbol",
      "outputs": [
        {
          "internalType": "string",
          "name": "",
          "type": "string"
        }
      ],
      "stateMutability": "view",
      "type": "function"
    },
    {
      "inputs": [
        {
          "internalType": "uint256",
          "name": "tokenId",
          "type": "uint256"
        }
      ],
      "name": "tokenURI",
      "outputs": [
        {
          "internalType": "string",
          "name": "",
          "type": "string"
        }
      ],
      "stateMutability": "view",
      "type": "function"
    },
    {
      "inputs": [
        {
          "internalType": "address",
          "name": "from",
          "type": "address"
        },
        {
          "internalType": "address",
          "name": "to",
          "type": "address"
        },
        {
          "internalType": "uint256",
          "name": "tokenId",
          "type": "uint256"
        }
      ],
      "name": "transferFrom",
      "outputs": [],
      "stateMutability": "pure",
      "type": "function"
    },
    {
      "inputs": [
        {
          "internalType": "address",
          "name": "newOwner",
          "type": "address"
        }
      ],
      "name": "transferOwnership",
      "outputs": [],
      "stateMutability": "nonpayable",
      "type": "function"
    }
  ],
  "bytecode": "0x60806040523480156200001157600080fd5b5060405162001f6438038062001f6483398101604081905262000034916200028c565b8451859085906200004d90600090602085019062000119565b5080516200006390600190602084019062000119565b505050620000806200007a620000c360201b60201c565b620000c7565b82516200009590600990602086019062000119565b50600a55600c80546001600160a01b0319166001600160a01b03929092169190911790555062000387915050565b3390565b600780546001600160a01b038381166001600160a01b0319831681179093556040519116919082907f8be0079c531659141344cd1fd0a4f28419497f9722a3daafe3b4186f6b6457e090600090a35050565b82805462000127906200034b565b90600052602060002090601f0160209004810192826200014b576000855562000196565b82601f106200016657805160ff191683800117855562000196565b8280016001018555821562000196579182015b828111156200019657825182559160200191906001019062000179565b50620001a4929150620001a8565b5090565b5b80821115620001a45760008155600101620001a9565b634e487b7160e01b600052604160045260246000fd5b600082601f830112620001e757600080fd5b81516001600160401b0380821115620002045762000204620001bf565b604051601f8301601f19908116603f011681019082821181831017156200022f576200022f620001bf565b816040528381526020925086838588010111156200024c57600080fd5b600091505b8382101562000270578582018301518183018401529082019062000251565b83821115620002825760008385830101525b9695505050505050565b600080600080600060a08688031215620002a557600080fd5b85516001600160401b0380821115620002bd57600080fd5b620002cb89838a01620001d5565b96506020880151915080821115620002e257600080fd5b620002f089838a01620001d5565b955060408801519150808211156200030757600080fd5b506200031688828901620001d5565b606088015190945090506001600160a01b03811681146200033657600080fd5b80925050608086015190509295509295909350565b600181811c908216806200036057607f821691505b6020821081036200038157634e487b7160e01b600052602260045260246000fd5b50919050565b611bcd80620003976000396000f3fe608060405234801561001057600080fd5b50600436106101425760003560e01c8063715018a6116100b8578063b85ec5051161007c578063b85ec50514610289578063b88d4fde146102a4578063c87b56dd146102b7578063e0df5b6f146102ca578063e985e9c5146102dd578063f2fde38b1461031957600080fd5b8063715018a61461024c5780638da5cb5b1461025457806395d89b4114610265578063a22cb4651461026d578063b212ba9f1461028057600080fd5b806342842e0e1161010a57806342842e0e146101d75780634f8aaac6146101ea57806356d5d475146101f25780636352211e146102055780636769a0c41461021857806370a082311461022b57600080fd5b806301ffc9a71461014757806306fdde031461016f578063081812fc14610184578063095ea7b3146101af57806323b872dd146101c4575b600080fd5b61015a610155366004611684565b61032c565b60405190151581526020015b60405180910390f35b61017761037e565b60405161016691906116f9565b61019761019236600461170c565b610410565b6040516001600160a01b039091168152602001610166565b6101c26101bd36600461173a565b610437565b005b6101c26101d2366004611766565b610551565b6101c26101e5366004611766565b61058b565b6101776105a6565b6101c26102003660046117a7565b610634565b61019761021336600461170c565b6106fb565b600c54610197906001600160a01b031681565b61023e610239366004611839565b61075b565b604051908152602001610166565b6101c26107e1565b6007546001600160a01b0316610197565b6101776107f5565b6101c261027b366004611856565b610804565b61023e600a5481565b61019773cc737a94fecaec165abcf12ded095bb13f03768581565b6101c26102b2366004611920565b610813565b6101776102c536600461170c565b610891565b6101c26102d83660046119a0565b61089c565b61015a6102eb3660046119e9565b6001600160a01b03918216600090815260056020908152604080832093909416825291909152205460ff1690565b6101c2610327366004611839565b6108b7565b60006001600160e01b031982166380ac58cd60e01b148061035d57506001600160e01b03198216635b5e139f60e01b145b8061037857506301ffc9a760e01b6001600160e01b03198316145b92915050565b60606000805461038d90611a17565b80601f01602080910402602001604051908101604052809291908181526020018280546103b990611a17565b80156104065780601f106103db57610100808354040283529160200191610406565b820191906000526020600020905b8154815290600101906020018083116103e957829003601f168201915b5050505050905090565b600061041b82610930565b506000908152600460205260409020546001600160a01b031690565b6000610442826106fb565b9050806001600160a01b0316836001600160a01b0316036104b45760405162461bcd60e51b815260206004820152602160248201527f4552433732313a20617070726f76616c20746f2063757272656e74206f776e656044820152603960f91b60648201526084015b60405180910390fd5b336001600160a01b03821614806104d057506104d081336102eb565b6105425760405162461bcd60e51b815260206004820152603d60248201527f4552433732313a20617070726f76652063616c6c6572206973206e6f7420746f60448201527f6b656e206f776e6572206f7220617070726f76656420666f7220616c6c00000060648201526084016104ab565b61054c838361098f565b505050565b60405162461bcd60e51b815260206004820152600f60248201526e21b0b73737ba103a3930b739b332b960891b60448201526064016104ab565b61054c83838360405180602001604052806000815250610813565b600980546105b390611a17565b80601f01602080910402602001604051908101604052809291908181526020018280546105df90611a17565b801561062c5780601f106106015761010080835404028352916020019161062c565b820191906000526020600020905b81548152906001019060200180831161060f57829003601f168201915b505050505081565b3373cc737a94fecaec165abcf12ded095bb13f0376851461065457600080fd5b600061066282840184611839565b6001600160a01b0381166000908152600b6020526040812054919250036106915761068c816109fd565b6106f4565b600a546001600160a01b0382166000908152600b6020526040902054106106eb5760405162461bcd60e51b815260206004820152600e60248201526d4e6f206d6f726520636c61696d7360901b60448201526064016104ab565b6106f481610b69565b5050505050565b6000818152600260205260408120546001600160a01b0316806103785760405162461bcd60e51b8152602060048201526018602482015277115490cdcc8c4e881a5b9d985b1a59081d1bdad95b88125160421b60448201526064016104ab565b60006001600160a01b0382166107c55760405162461bcd60e51b815260206004820152602960248201527f4552433732313a2061646472657373207a65726f206973206e6f7420612076616044820152683634b21037bbb732b960b91b60648201526084016104ab565b506001600160a01b031660009081526003602052604090205490565b6107e9610beb565b6107f36000610c45565b565b60606001805461038d90611a17565b61080f338383610c97565b5050565b61081d3383610d65565b61087f5760405162461bcd60e51b815260206004820152602d60248201527f4552433732313a2063616c6c6572206973206e6f7420746f6b656e206f776e6560448201526c1c881bdc88185c1c1c9bdd9959609a1b60648201526084016104ab565b61088b84848484610de4565b50505050565b606061037882610e17565b6108a4610beb565b805161080f9060099060208401906115d5565b6108bf610beb565b6001600160a01b0381166109245760405162461bcd60e51b815260206004820152602660248201527f4f776e61626c653a206e6577206f776e657220697320746865207a65726f206160448201526564647265737360d01b60648201526084016104ab565b61092d81610c45565b50565b6000818152600260205260409020546001600160a01b031661092d5760405162461bcd60e51b8152602060048201526018602482015277115490cdcc8c4e881a5b9d985b1a59081d1bdad95b88125160421b60448201526064016104ab565b600081815260046020526040902080546001600160a01b0319166001600160a01b03841690811790915581906109c4826106fb565b6001600160a01b03167f8c5be1e5ebec7d5bd14f71427d1e84f3dd0314c0f7b2291e5b200ac8c7c3b92560405160405180910390a45050565b6001600160a01b0381166000908152600b602052604090205415610a565760405162461bcd60e51b815260206004820152601060248201526f105b1c9958591e481bdddb9cc813919560821b60448201526064016104ab565b6000610a6160085490565b9050610a71600880546001019055565b610a7b8282610f1f565b610b0f8160098054610a8c90611a17565b80601f0160208091040260200160405190810160405280929190818152602001828054610ab890611a17565b8015610b055780601f10610ada57610100808354040283529160200191610b05565b820191906000526020600020905b815481529060010190602001808311610ae857829003601f168201915b5050505050610f39565b6001600160a01b0382166000818152600b60209081526040918290206001908190558251938452908301527f2ace47925ca5e5683eb2c2eab99a115e60455cbfbe81a22bceb46f3399846c64910160405180910390a15050565b6001600160a01b0381166000908152600b60205260408120805460019290610b92908490611a51565b90915550506001600160a01b0381166000818152600b6020908152604091829020548251938452908301527f2ace47925ca5e5683eb2c2eab99a115e60455cbfbe81a22bceb46f3399846c64910160405180910390a150565b6007546001600160a01b031633146107f35760405162461bcd60e51b815260206004820181905260248201527f4f776e61626c653a2063616c6c6572206973206e6f7420746865206f776e657260448201526064016104ab565b600780546001600160a01b038381166001600160a01b0319831681179093556040519116919082907f8be0079c531659141344cd1fd0a4f28419497f9722a3daafe3b4186f6b6457e090600090a35050565b816001600160a01b0316836001600160a01b031603610cf85760405162461bcd60e51b815260206004820152601960248201527f4552433732313a20617070726f766520746f2063616c6c65720000000000000060448201526064016104ab565b6001600160a01b03838116600081815260056020908152604080832094871680845294825291829020805460ff191686151590811790915591519182527f17307eab39ab6107e8899845ad3d59bd9653f200f220920489ca2b5937696c31910160405180910390a3505050565b600080610d71836106fb565b9050806001600160a01b0316846001600160a01b03161480610db857506001600160a01b0380821660009081526005602090815260408083209388168352929052205460ff165b80610ddc5750836001600160a01b0316610dd184610410565b6001600160a01b0316145b949350505050565b610def848484610fd3565b610dfb84848484611137565b61088b5760405162461bcd60e51b81526004016104ab90611a77565b6060610e2282610930565b60008281526006602052604081208054610e3b90611a17565b80601f0160208091040260200160405190810160405280929190818152602001828054610e6790611a17565b8015610eb45780601f10610e8957610100808354040283529160200191610eb4565b820191906000526020600020905b815481529060010190602001808311610e9757829003601f168201915b505050505090506000610ed260408051602081019091526000815290565b90508051600003610ee4575092915050565b815115610f16578082604051602001610efe929190611ac9565b60405160208183030381529060405292505050919050565b610ddc84611238565b61080f8282604051806020016040528060008152506112ac565b6000828152600260205260409020546001600160a01b0316610fb45760405162461bcd60e51b815260206004820152602e60248201527f45524337323155524953746f726167653a2055524920736574206f66206e6f6e60448201526d32bc34b9ba32b73a103a37b5b2b760911b60648201526084016104ab565b6000828152600660209081526040909120825161054c928401906115d5565b826001600160a01b0316610fe6826106fb565b6001600160a01b03161461100c5760405162461bcd60e51b81526004016104ab90611af8565b6001600160a01b03821661106e5760405162461bcd60e51b8152602060048201526024808201527f4552433732313a207472616e7366657220746f20746865207a65726f206164646044820152637265737360e01b60648201526084016104ab565b826001600160a01b0316611081826106fb565b6001600160a01b0316146110a75760405162461bcd60e51b81526004016104ab90611af8565b600081815260046020908152604080832080546001600160a01b03199081169091556001600160a01b0387811680865260038552838620805460001901905590871680865283862080546001019055868652600290945282852080549092168417909155905184937fddf252ad1be2c89b69c2b068fc378daa952ba7f163c4a11628f55a4df523b3ef91a4505050565b60006001600160a01b0384163b1561122d57604051630a85bd0160e11b81526001600160a01b0385169063150b7a029061117b903390899088908890600401611b3d565b6020604051808303816000875af19250505080156111b6575060408051601f3d908101601f191682019092526111b391810190611b7a565b60015b611213573d8080156111e4576040519150601f19603f3d011682016040523d82523d6000602084013e6111e9565b606091505b50805160000361120b5760405162461bcd60e51b81526004016104ab90611a77565b805181602001fd5b6001600160e01b031916630a85bd0160e11b149050610ddc565b506001949350505050565b606061124382610930565b600061125a60408051602081019091526000815290565b9050600081511161127a57604051806020016040528060008152506112a5565b80611284846112df565b604051602001611295929190611ac9565b6040516020818303038152906040525b9392505050565b6112b68383611372565b6112c36000848484611137565b61054c5760405162461bcd60e51b81526004016104ab90611a77565b606060006112ec836114fd565b600101905060008167ffffffffffffffff81111561130c5761130c611894565b6040519080825280601f01601f191660200182016040528015611336576020820181803683370190505b5090508181016020015b600019016f181899199a1a9b1b9c1cb0b131b232b360811b600a86061a8153600a850494508461134057509392505050565b6001600160a01b0382166113c85760405162461bcd60e51b815260206004820181905260248201527f4552433732313a206d696e7420746f20746865207a65726f206164647265737360448201526064016104ab565b6000818152600260205260409020546001600160a01b03161561142d5760405162461bcd60e51b815260206004820152601c60248201527f4552433732313a20746f6b656e20616c7265616479206d696e7465640000000060448201526064016104ab565b6000818152600260205260409020546001600160a01b0316156114925760405162461bcd60e51b815260206004820152601c60248201527f4552433732313a20746f6b656e20616c7265616479206d696e7465640000000060448201526064016104ab565b6001600160a01b038216600081815260036020908152604080832080546001019055848352600290915280822080546001600160a01b0319168417905551839291907fddf252ad1be2c89b69c2b068fc378daa952ba7f163c4a11628f55a4df523b3ef908290a45050565b60008072184f03e93ff9f4daa797ed6e38ed64bf6a1f0160401b831061153c5772184f03e93ff9f4daa797ed6e38ed64bf6a1f0160401b830492506040015b6d04ee2d6d415b85acef81000000008310611568576d04ee2d6d415b85acef8100000000830492506020015b662386f26fc10000831061158657662386f26fc10000830492506010015b6305f5e100831061159e576305f5e100830492506008015b61271083106115b257612710830492506004015b606483106115c4576064830492506002015b600a83106103785760010192915050565b8280546115e190611a17565b90600052602060002090601f0160209004810192826116035760008555611649565b82601f1061161c57805160ff1916838001178555611649565b82800160010185558215611649579182015b8281111561164957825182559160200191906001019061162e565b50611655929150611659565b5090565b5b80821115611655576000815560010161165a565b6001600160e01b03198116811461092d57600080fd5b60006020828403121561169657600080fd5b81356112a58161166e565b60005b838110156116bc5781810151838201526020016116a4565b8381111561088b5750506000910152565b600081518084526116e58160208601602086016116a1565b601f01601f19169290920160200192915050565b6020815260006112a560208301846116cd565b60006020828403121561171e57600080fd5b5035919050565b6001600160a01b038116811461092d57600080fd5b6000806040838503121561174d57600080fd5b823561175881611725565b946020939093013593505050565b60008060006060848603121561177b57600080fd5b833561178681611725565b9250602084013561179681611725565b929592945050506040919091013590565b600080600080606085870312156117bd57600080fd5b843563ffffffff811681146117d157600080fd5b935060208501359250604085013567ffffffffffffffff808211156117f557600080fd5b818701915087601f83011261180957600080fd5b81358181111561181857600080fd5b88602082850101111561182a57600080fd5b95989497505060200194505050565b60006020828403121561184b57600080fd5b81356112a581611725565b6000806040838503121561186957600080fd5b823561187481611725565b91506020830135801515811461188957600080fd5b809150509250929050565b634e487b7160e01b600052604160045260246000fd5b600067ffffffffffffffff808411156118c5576118c5611894565b604051601f8501601f19908116603f011681019082821181831017156118ed576118ed611894565b8160405280935085815286868601111561190657600080fd5b858560208301376000602087830101525050509392505050565b6000806000806080858703121561193657600080fd5b843561194181611725565b9350602085013561195181611725565b925060408501359150606085013567ffffffffffffffff81111561197457600080fd5b8501601f8101871361198557600080fd5b611994878235602084016118aa565b91505092959194509250565b6000602082840312156119b257600080fd5b813567ffffffffffffffff8111156119c957600080fd5b8201601f810184136119da57600080fd5b610ddc848235602084016118aa565b600080604083850312156119fc57600080fd5b8235611a0781611725565b9150602083013561188981611725565b600181811c90821680611a2b57607f821691505b602082108103611a4b57634e487b7160e01b600052602260045260246000fd5b50919050565b60008219821115611a7257634e487b7160e01b600052601160045260246000fd5b500190565b60208082526032908201527f4552433732313a207472616e7366657220746f206e6f6e20455243373231526560408201527131b2b4bb32b91034b6b83632b6b2b73a32b960711b606082015260800190565b60008351611adb8184602088016116a1565b835190830190611aef8183602088016116a1565b01949350505050565b60208082526025908201527f4552433732313a207472616e736665722066726f6d20696e636f72726563742060408201526437bbb732b960d91b606082015260800190565b6001600160a01b0385811682528416602082015260408101839052608060608201819052600090611b70908301846116cd565b9695505050505050565b600060208284031215611b8c57600080fd5b81516112a58161166e56fea264697066735822122001af2b2e2e2a2aa7c39ed7ec21ad558aab5c03554451cc0383b7d0589878c80564736f6c634300080e0033",
  "linkReferences": {},
  "deployedLinkReferences": {}
}