{
  "_format": "hh-sol-artifact-1",
  "contractName": "HydraS2Verifier",
  "sourceName": "@sismo-core/hydra-s2/contracts/HydraS2Verifier.sol",
  "abi": [
    {
      "inputs": [
        {
          "internalType": "uint256[2]",
          "name": "a",
          "type": "uint256[2]"
        },
        {
          "internalType": "uint256[2][2]",
          "name": "b",
          "type": "uint256[2][2]"
        },
        {
          "internalType": "uint256[2]",
          "name": "c",
          "type": "uint256[2]"
        },
        {
          "internalType": "uint256[14]",
          "name": "input",
          "type": "uint256[14]"
        }
      ],
      "name": "verifyProof",
      "outputs": [
        {
          "internalType": "bool",
          "name": "r",
          "type": "bool"
        }
      ],
      "stateMutability": "view",
      "type": "function"
    }
  ],
  "bytecode": "0x608060405234801561001057600080fd5b50611762806100206000396000f3fe608060405234801561001057600080fd5b506004361061002b5760003560e01c80638d15f88f14610030575b600080fd5b61004361003e3660046115aa565b610057565b604051901515815260200160405180910390f35b60006100616113bd565b604080518082018252875181526020808901518183015290835281516080810183528751518184019081528851830151606083015281528251808401845288830180515182525183015181840152818301528382015281518083018352865181528682015181830152838301528151600e8082526101e08201909352600092909182016101c08036833701905050905060005b600e811015610143578481600e811061010f5761010f611688565b602002015182828151811061012657610126611688565b60209081029190910101528061013b816116b4565b9150506100f4565b5061014e818361016f565b60000361016057600192505050610167565b6000925050505b949350505050565b60007f30644e72e131a029b85045b68181585d2833e84879b9709143e1f593f00000018161019b610366565b9050806080015151855160016101b191906116cd565b146101f85760405162461bcd60e51b81526020600482015260126024820152711d995c9a599a595c8b5898590b5a5b9c1d5d60721b60448201526064015b60405180910390fd5b604080518082019091526000808252602082018190525b86518110156102e9578387828151811061022b5761022b611688565b6020026020010151106102805760405162461bcd60e51b815260206004820152601f60248201527f76657269666965722d6774652d736e61726b2d7363616c61722d6669656c640060448201526064016101ef565b6102d5826102d0856080015184600161029991906116cd565b815181106102a9576102a9611688565b60200260200101518a85815181106102c3576102c3611688565b6020026020010151610d0c565b610da2565b9150806102e1816116b4565b91505061020f565b5061031281836080015160008151811061030557610305611688565b6020026020010151610da2565b90506103486103248660000151610e3b565b8660200151846000015185602001518587604001518b604001518960600151610eda565b6103585760019350505050610360565b600093505050505b92915050565b61036e61140e565b6040805180820182527f2d4d9aa7e302d9df41749d5507949d05dbea33fbb16c643b22f599a2be6df2e281527f14bedd503c37ceb061d8ec60209fe345ce89830a19230301f076caff004d19266020808301919091529083528151608080820184527f0967032fcbf776d1afc985f88877f182d38480a653f2decaa9794cbc3bf3060c8285019081527f0e187847ad4c798374d0d6732bf501847dd68bc0e071241e0213bc7fc13db7ab606080850191909152908352845180860186527f304cfbd1e08a704a99f5e847d93f8c3caafddec46b7a0d379da69a4d112346a781527f1739c1b1a457a8c7313123d24d2f9192f896b7c63eea05a9d57f06547ad0cec8818601528385015285840192909252835180820185527f198e9393920d483a7260bfb731fb5d25f1aa493335a9e71297e485b7aef312c28186019081527f1800deef121f1e76426a00665e5c4479674322d4f75edadd46debd5cd992f6ed828501528152845180860186527f090689d0585ff075ec9e99ad690c3395bc4b313370b38ef355acdadcd122975b81527f12c85ea5db8c6deb4aab71808dcb408fe3d1e7690c43d37b4ce6cc0166fa7daa818601528185015285850152835190810184527f219ddeeb85b05513476c15dfb0c846bb4b3464e439d0e3f100b4efeaf058d6e98185019081527f07b636846e9e004fb2d2e819a1114bc9f8419aaa1b20143f522c4bd24fde6650828401528152835180850185527f1a598e4924dd54b2f7a57bd479a4f893e058d46ed4725788d02e59f522662eb681527f0616f49f257723d180b7aee5b4e6daf206e08c830cf9aa1bdeb9f088240908988185015281840152908401528151600f8082526102008201909352919082015b60408051808201909152600080825260208201528152602001906001900390816105ea57505060808201908152604080518082019091527f014d3371808f9c3d8a6c984861673c8b825be9e2165f4b9186fb682702e91de681527f034feb2e2734c25fc7b211738e6700c316cc954de346e473ceb60b248ff6628960208201529051805160009061067d5761067d611688565b602002602001018190525060405180604001604052807f26b1f3f6835857553694befd5d13f35c6adc7ef84deed67573341c06d0331b8e81526020017f0abb1c6bce91984433bbd294b73e0df079f471332919f7a00110bce11b50003181525081608001516001815181106106f4576106f4611688565b602002602001018190525060405180604001604052807f0258c7d36a4d0cac1066b0e251b7a81e218a72071552d50b2d77a39eb0e8868681526020017f19ff210dcc86787c8cf70f0000ba7cc6a28b9cabb5e17808a8c8405295ca5cfa815250816080015160028151811061076b5761076b611688565b602002602001018190525060405180604001604052807f10a2faabb657aeeade9b08054b800be564bab8e2ddd44097724d9f4e42f1301281526020017f07f1fe70da76be6f4177a776de71e72417d0c6935cc9ebee125aed21fab89a9f81525081608001516003815181106107e2576107e2611688565b602002602001018190525060405180604001604052807f03fc95fb3fce4522f96184599a9dba3a44a2196751df25959cabae705d1d4b0681526020017f0ab4e27d7966553c7f7718354282e23a9df88feb1b7b29bcb4dae701f0404f34815250816080015160048151811061085957610859611688565b602002602001018190525060405180604001604052807f105ff1e04b5f839ecf578604c9ed1a5c889c897a1f46a331a416ce1071db649881526020017f0ed17ecd790b094da0ec14144e9a791a9239ee87c3656da0136919cc1d4099ae81525081608001516005815181106108d0576108d0611688565b602002602001018190525060405180604001604052807f113bd22c0170e040eccfb9bbf0ddd992e773a529d1093979a3c91d71afa97a9f81526020017f1d61985e6e91d62888e08455b7aa61b3042615469e4f44edd6dabee9903ef8bd815250816080015160068151811061094757610947611688565b602002602001018190525060405180604001604052807f03f6e972d8d1e0885e36cacc217bd1321f6db4f9dc10bbbfaff61505417a133381526020017f26afbf56cb345581f889f70a80bb9977e59e6d2a92a77e0d69089eb366d3c0a481525081608001516007815181106109be576109be611688565b602002602001018190525060405180604001604052807f15f44fcaf503ea9c516a069f5a095d3029c17399b5b5277191259b35429d325b81526020017f2dc45b2f53f8eb0b4d34bbbc1138e75fe768461b46cb3432b56a063b38c057f28152508160800151600881518110610a3557610a35611688565b602002602001018190525060405180604001604052807f02256a9d9370de9a1a8f4657474e58b432d82cead2c17a4371b3846ac40c473e81526020017f083ddb7bd0b8f58c02db0feb5c2d9814b1febcbd1091bf6b438e39afc82a20318152508160800151600981518110610aac57610aac611688565b602002602001018190525060405180604001604052807f1252df2b96901b88a723aa9c20f65d11f52595639543aebb79c2b6f0a791defc81526020017f2369ea6c635bf0c3b2a5ccd33c2f16e67b681ba95e56a0b153f7f6a3dd94e1ef8152508160800151600a81518110610b2357610b23611688565b602002602001018190525060405180604001604052807f1f42da888601dbe1236aa19d51a610db8f3444b8b25284d3c25dc896d91c877d81526020017f04d0a845ce8c4f0fca6c5311f65999fa00ba4311238efcd28b11f8e76e146b028152508160800151600b81518110610b9a57610b9a611688565b602002602001018190525060405180604001604052807f1c08d6f684b8d595a45b9616f8d04341813bfc67aa290a1e9ae2fd51088f335a81526020017f12fb2ce620403dd403830f52b86badb68c543e5bede6747268757bfe811270668152508160800151600c81518110610c1157610c11611688565b602002602001018190525060405180604001604052807f18271afa9eb1b7e1af30d8de2bb9b9d9040a6690599a756a37b24ba784a45c0581526020017f209943f8021555ad83aba5b9cb70deff72a72e7556e686bd291dc2375848e05b8152508160800151600d81518110610c8857610c88611688565b602002602001018190525060405180604001604052807e20108b4a8753b1927365cf2c3b64da7ed41a084cb075a2c6f7d9f702baf62c81526020017f01618e47be3b2aa1157c70a5e2145fd9127f88237c0b7d59aeeeec8441470ac28152508160800151600e81518110610cfe57610cfe611688565b602002602001018190525090565b6040805180820190915260008082526020820152610d2861145f565b835181526020808501519082015260408101839052600060608360808460076107d05a03fa90508080610d5757fe5b5080610d9a5760405162461bcd60e51b81526020600482015260126024820152711c185a5c9a5b99cb5b5d5b0b59985a5b195960721b60448201526064016101ef565b505092915050565b6040805180820190915260008082526020820152610dbe61147d565b8351815260208085015181830152835160408301528301516060808301919091526000908360c08460066107d05a03fa90508080610df857fe5b5080610d9a5760405162461bcd60e51b81526020600482015260126024820152711c185a5c9a5b99cb5859190b59985a5b195960721b60448201526064016101ef565b604080518082019091526000808252602082015281517f30644e72e131a029b85045b68181585d97816a916871ca8d3c208c16d87cfd4790158015610e8257506020830151155b15610ea25750506040805180820190915260008082526020820152919050565b604051806040016040528084600001518152602001828560200151610ec791906116e0565b610ed19084611702565b90529392505050565b60408051600480825260a08201909252600091829190816020015b6040805180820190915260008082526020820152815260200190600190039081610ef557505060408051600480825260a0820190925291925060009190602082015b610f3f61149b565b815260200190600190039081610f375790505090508a82600081518110610f6857610f68611688565b60200260200101819052508882600181518110610f8757610f87611688565b60200260200101819052508682600281518110610fa657610fa6611688565b60200260200101819052508482600381518110610fc557610fc5611688565b60200260200101819052508981600081518110610fe457610fe4611688565b6020026020010181905250878160018151811061100357611003611688565b6020026020010181905250858160028151811061102257611022611688565b6020026020010181905250838160038151811061104157611041611688565b60200260200101819052506110568282611065565b9b9a5050505050505050505050565b600081518351146110b15760405162461bcd60e51b81526020600482015260166024820152751c185a5c9a5b99cb5b195b99dd1a1ccb59985a5b195960521b60448201526064016101ef565b825160006110c0826006611715565b905060008167ffffffffffffffff8111156110dd576110dd6114f7565b604051908082528060200260200182016040528015611106578160200160208202803683370190505b50905060005b838110156113415786818151811061112657611126611688565b602002602001015160000151828260066111409190611715565b61114b9060006116cd565b8151811061115b5761115b611688565b60200260200101818152505086818151811061117957611179611688565b602002602001015160200151828260066111939190611715565b61119e9060016116cd565b815181106111ae576111ae611688565b6020026020010181815250508581815181106111cc576111cc611688565b60209081029190910101515151826111e5836006611715565b6111f09060026116cd565b8151811061120057611200611688565b60200260200101818152505085818151811061121e5761121e611688565b60209081029190910181015151015182611239836006611715565b6112449060036116cd565b8151811061125457611254611688565b60200260200101818152505085818151811061127257611272611688565b60200260200101516020015160006002811061129057611290611688565b6020020151826112a1836006611715565b6112ac9060046116cd565b815181106112bc576112bc611688565b6020026020010181815250508581815181106112da576112da611688565b6020026020010151602001516001600281106112f8576112f8611688565b602002015182611309836006611715565b6113149060056116cd565b8151811061132457611324611688565b602090810291909101015280611339816116b4565b91505061110c565b5061134a6114bb565b6000602082602086026020860160086107d05a03fa9050808061136957fe5b50806113af5760405162461bcd60e51b81526020600482015260156024820152741c185a5c9a5b99cb5bdc18dbd9194b59985a5b1959605a1b60448201526064016101ef565b505115159695505050505050565b6040805160a0810190915260006060820181815260808301919091528152602081016113e761149b565b8152602001611409604051806040016040528060008152602001600081525090565b905290565b6040805160e08101909152600060a0820181815260c083019190915281526020810161143861149b565b815260200161144561149b565b815260200161145261149b565b8152602001606081525090565b60405180606001604052806003906020820280368337509192915050565b60405180608001604052806004906020820280368337509192915050565b60405180604001604052806114ae6114d9565b81526020016114096114d9565b60405180602001604052806001906020820280368337509192915050565b60405180604001604052806002906020820280368337509192915050565b634e487b7160e01b600052604160045260246000fd5b6040805190810167ffffffffffffffff81118282101715611530576115306114f7565b60405290565b6040516101c0810167ffffffffffffffff81118282101715611530576115306114f7565b600082601f83011261156b57600080fd5b61157361150d565b80604084018581111561158557600080fd5b845b8181101561159f578035845260209384019301611587565b509095945050505050565b6000806000806102c08086880312156115c257600080fd5b6115cc878761155a565b9450604087605f8801126115df57600080fd5b6115e761150d565b8060c089018a8111156115f957600080fd5b838a015b8181101561161e5761160f8c8261155a565b845260209093019284016115fd565b5081975061162c8b8261155a565b9650505050508661011f87011261164257600080fd5b61164a611536565b90860190808883111561165c57600080fd5b61010088015b8381101561167a578035835260209283019201611662565b509598949750929550505050565b634e487b7160e01b600052603260045260246000fd5b634e487b7160e01b600052601160045260246000fd5b6000600182016116c6576116c661169e565b5060010190565b808201808211156103605761036061169e565b6000826116fd57634e487b7160e01b600052601260045260246000fd5b500690565b818103818111156103605761036061169e565b80820281158282048414176103605761036061169e56fea2646970667358221220bcb315a3426d0516af744b6ecc5dfdea12b7bcefe4ad3719c3cedcfa56b651e964736f6c63430008110033",
  "linkReferences": {},
  "deployedLinkReferences": {}
}