{
  "_format": "hh-sol-artifact-1",
  "contractName": "CommitmentMapperRegistry",
  "sourceName": "contracts/lib/periphery/CommitmentMapperRegistry.sol",
  "abi": [
    {
      "inputs": [
        {
          "internalType": "address",
          "name": "owner",
          "type": "address"
        },
        {
          "internalType": "uint256[2]",
          "name": "commitmentMapperEdDSAPubKey",
          "type": "uint256[2]"
        }
      ],
      "stateMutability": "nonpayable",
      "type": "constructor"
    },
    {
      "inputs": [
        {
          "internalType": "uint256[2]",
          "name": "pubKey",
          "type": "uint256[2]"
        }
      ],
      "name": "PubKeyNotValid",
      "type": "error"
    },
    {
      "anonymous": false,
      "inputs": [
        {
          "indexed": false,
          "internalType": "uint8",
          "name": "version",
          "type": "uint8"
        }
      ],
      "name": "Initialized",
      "type": "event"
    },
    {
      "anonymous": false,
      "inputs": [
        {
          "indexed": true,
          "internalType": "address",
          "name": "previousOwner",
          "type": "address"
        },
        {
          "indexed": true,
          "internalType": "address",
          "name": "newOwner",
          "type": "address"
        }
      ],
      "name": "OwnershipTransferred",
      "type": "event"
    },
    {
      "anonymous": false,
      "inputs": [
        {
          "indexed": false,
          "internalType": "uint256[2]",
          "name": "newEdDSAPubKey",
          "type": "uint256[2]"
        }
      ],
      "name": "UpdatedCommitmentMapperEdDSAPubKey",
      "type": "event"
    },
    {
      "inputs": [],
      "name": "IMPLEMENTATION_VERSION",
      "outputs": [
        {
          "internalType": "uint8",
          "name": "",
          "type": "uint8"
        }
      ],
      "stateMutability": "view",
      "type": "function"
    },
    {
      "inputs": [],
      "name": "getEdDSAPubKey",
      "outputs": [
        {
          "internalType": "uint256[2]",
          "name": "",
          "type": "uint256[2]"
        }
      ],
      "stateMutability": "view",
      "type": "function"
    },
    {
      "inputs": [
        {
          "internalType": "address",
          "name": "ownerAddress",
          "type": "address"
        },
        {
          "internalType": "uint256[2]",
          "name": "commitmentMapperEdDSAPubKey",
          "type": "uint256[2]"
        }
      ],
      "name": "initialize",
      "outputs": [],
      "stateMutability": "nonpayable",
      "type": "function"
    },
    {
      "inputs": [],
      "name": "owner",
      "outputs": [
        {
          "internalType": "address",
          "name": "",
          "type": "address"
        }
      ],
      "stateMutability": "view",
      "type": "function"
    },
    {
      "inputs": [],
      "name": "renounceOwnership",
      "outputs": [],
      "stateMutability": "nonpayable",
      "type": "function"
    },
    {
      "inputs": [
        {
          "internalType": "address",
          "name": "newOwner",
          "type": "address"
        }
      ],
      "name": "transferOwnership",
      "outputs": [],
      "stateMutability": "nonpayable",
      "type": "function"
    },
    {
      "inputs": [
        {
          "internalType": "uint256[2]",
          "name": "newEdDSAPubKey",
          "type": "uint256[2]"
        }
      ],
      "name": "updateCommitmentMapperEdDSAPubKey",
      "outputs": [],
      "stateMutability": "nonpayable",
      "type": "function"
    }
  ],
  "bytecode": "0x608060405234801561001057600080fd5b5060405161096438038061096483398101604081905261002f9161027b565b61003833610049565b61004282826100a4565b505061034a565b600080546001600160a01b038381166201000081810262010000600160b01b0319851617855560405193049190911692909183917f8be0079c531659141344cd1fd0a4f28419497f9722a3daafe3b4186f6b6457e091a35050565b600054600190610100900460ff161580156100c6575060005460ff8083169116105b61012d5760405162461bcd60e51b815260206004820152602e60248201527f496e697469616c697a61626c653a20636f6e747261637420697320616c72656160448201526d191e481a5b9a5d1a585b1a5e995960921b606482015260840160405180910390fd5b6000805461ffff191660ff8316176101001781556101596000546201000090046001600160a01b031690565b6001600160a01b0316148061016d5750303b155b156101845761017b83610049565b610184826101ca565b6000805461ff001916905560405160ff821681527f7f26b83ff96e1f2b6a682f133852f6798a09c465da95921460cefb38474024989060200160405180910390a1505050565b6101d76001826002610212565b507f9d99ec80e15298d9dae698493e9c61daaae3977b0f131ded44fc6b0f7766ab15816040516102079190610319565b60405180910390a150565b8260028101928215610240579160200282015b82811115610240578251825591602001919060010190610225565b5061024c929150610250565b5090565b5b8082111561024c5760008155600101610251565b634e487b7160e01b600052604160045260246000fd5b6000806060838503121561028e57600080fd5b82516001600160a01b03811681146102a557600080fd5b91506020603f840185136102b857600080fd5b604080519081016001600160401b03811182821017156102da576102da610265565b6040528060608601878111156102ef57600080fd5b8387015b8181101561030a57805183529184019184016102f3565b50505080925050509250929050565b60408101818360005b6002811015610341578151835260209283019290910190600101610322565b50505092915050565b61060b806103596000396000f3fe608060405234801561001057600080fd5b506004361061007d5760003560e01c8063715018a61161005b578063715018a6146100c8578063754b377c146100d05780638da5cb5b146100ea578063f2fde38b1461011457600080fd5b8063579cb8a61461008257806359a80d0d146100975780637098a5f4146100b5575b600080fd5b610095610090366004610532565b610127565b005b61009f61024f565b6040516100ac9190610566565b60405180910390f35b6100956100c3366004610597565b610289565b61009561029d565b6100d8600181565b60405160ff90911681526020016100ac565b6000546201000090046001600160a01b03166040516001600160a01b0390911681526020016100ac565b6100956101223660046105ba565b6102b1565b600054600190610100900460ff16158015610149575060005460ff8083169116105b6101b15760405162461bcd60e51b815260206004820152602e60248201527f496e697469616c697a61626c653a20636f6e747261637420697320616c72656160448201526d191e481a5b9a5d1a585b1a5e995960921b60648201526084015b60405180910390fd5b6000805461ffff191660ff8316176101001781556101de6000546001600160a01b03620100009091041690565b6001600160a01b031614806101f25750303b155b156102095761020083610323565b6102098261037e565b6000805461ff001916905560405160ff821681527f7f26b83ff96e1f2b6a682f133852f6798a09c465da95921460cefb38474024989060200160405180910390a1505050565b610257610427565b60408051808201918290529060019060029082845b81548152602001906001019080831161026c575050505050905090565b6102916103c6565b61029a8161037e565b50565b6102a56103c6565b6102af6000610323565b565b6102b96103c6565b6001600160a01b03811661031e5760405162461bcd60e51b815260206004820152602660248201527f4f776e61626c653a206e6577206f776e657220697320746865207a65726f206160448201526564647265737360d01b60648201526084016101a8565b61029a815b600080546001600160a01b038381166201000081810262010000600160b01b0319851617855560405193049190911692909183917f8be0079c531659141344cd1fd0a4f28419497f9722a3daafe3b4186f6b6457e091a35050565b61038b6001826002610445565b507f9d99ec80e15298d9dae698493e9c61daaae3977b0f131ded44fc6b0f7766ab15816040516103bb9190610566565b60405180910390a150565b6000546001600160a01b03620100009091041633146102af5760405162461bcd60e51b815260206004820181905260248201527f4f776e61626c653a2063616c6c6572206973206e6f7420746865206f776e657260448201526064016101a8565b60405180604001604052806002906020820280368337509192915050565b8260028101928215610473579160200282015b82811115610473578251825591602001919060010190610458565b5061047f929150610483565b5090565b5b8082111561047f5760008155600101610484565b80356001600160a01b03811681146104af57600080fd5b919050565b600082601f8301126104c557600080fd5b6040516040810181811067ffffffffffffffff821117156104f657634e487b7160e01b600052604160045260246000fd5b806040525080604084018581111561050d57600080fd5b845b8181101561052757803583526020928301920161050f565b509195945050505050565b6000806060838503121561054557600080fd5b61054e83610498565b915061055d84602085016104b4565b90509250929050565b60408101818360005b600281101561058e57815183526020928301929091019060010161056f565b50505092915050565b6000604082840312156105a957600080fd5b6105b383836104b4565b9392505050565b6000602082840312156105cc57600080fd5b6105b38261049856fea264697066735822122055d82bf51e310d41c1da2aa3a624244b770f2a536d399bf84e28f88cf111bbe864736f6c63430008110033",
  "linkReferences": {},
  "deployedLinkReferences": {}
}