{
  "_format": "hh-sol-artifact-1",
  "contractName": "PromotionMain",
  "sourceName": "contracts/PromotionMain.sol",
  "abi": [
    {
      "anonymous": false,
      "inputs": [
        {
          "indexed": false,
          "internalType": "bytes32",
          "name": "promotionId",
          "type": "bytes32"
        },
        {
          "indexed": false,
          "internalType": "address",
          "name": "promotionAddress",
          "type": "address"
        },
        {
          "indexed": false,
          "internalType": "address",
          "name": "claimer",
          "type": "address"
        },
        {
          "indexed": false,
          "internalType": "uint32",
          "name": "destinationDomain",
          "type": "uint32"
        },
        {
          "indexed": false,
          "internalType": "uint256",
          "name": "claimsCount",
          "type": "uint256"
        },
        {
          "indexed": false,
          "internalType": "uint256",
          "name": "claimedAt",
          "type": "uint256"
        }
      ],
      "name": "ClaimedPromotion",
      "type": "event"
    },
    {
      "anonymous": false,
      "inputs": [
        {
          "indexed": false,
          "internalType": "bytes32",
          "name": "promotionId",
          "type": "bytes32"
        },
        {
          "indexed": false,
          "internalType": "uint256",
          "name": "amount",
          "type": "uint256"
        }
      ],
      "name": "GasTankFilled",
      "type": "event"
    },
    {
      "anonymous": false,
      "inputs": [
        {
          "indexed": false,
          "internalType": "bytes32",
          "name": "promotionId",
          "type": "bytes32"
        },
        {
          "indexed": false,
          "internalType": "uint256",
          "name": "amount",
          "type": "uint256"
        }
      ],
      "name": "GasTankRefunded",
      "type": "event"
    },
    {
      "anonymous": false,
      "inputs": [
        {
          "indexed": false,
          "internalType": "uint32",
          "name": "destinationDomain",
          "type": "uint32"
        }
      ],
      "name": "NewChainAdded",
      "type": "event"
    },
    {
      "anonymous": false,
      "inputs": [
        {
          "indexed": true,
          "internalType": "address",
          "name": "previousOwner",
          "type": "address"
        },
        {
          "indexed": true,
          "internalType": "address",
          "name": "newOwner",
          "type": "address"
        }
      ],
      "name": "OwnershipTransferred",
      "type": "event"
    },
    {
      "anonymous": false,
      "inputs": [
        {
          "indexed": false,
          "internalType": "bytes32",
          "name": "promotionId",
          "type": "bytes32"
        },
        {
          "indexed": false,
          "internalType": "address",
          "name": "promotionAddress",
          "type": "address"
        },
        {
          "indexed": false,
          "internalType": "uint32",
          "name": "destinationDomain",
          "type": "uint32"
        },
        {
          "indexed": false,
          "internalType": "address",
          "name": "creator",
          "type": "address"
        },
        {
          "indexed": false,
          "internalType": "uint256",
          "name": "createdAt",
          "type": "uint256"
        },
        {
          "indexed": false,
          "internalType": "uint256",
          "name": "claimsPerPerson",
          "type": "uint256"
        },
        {
          "indexed": false,
          "internalType": "string",
          "name": "badgeURI",
          "type": "string"
        }
      ],
      "name": "PromotionCreated",
      "type": "event"
    },
    {
      "inputs": [
        {
          "internalType": "uint32",
          "name": "destinationDomain",
          "type": "uint32"
        },
        {
          "internalType": "address",
          "name": "destinationReceiver",
          "type": "address"
        }
      ],
      "name": "addChain",
      "outputs": [],
      "stateMutability": "nonpayable",
      "type": "function"
    },
    {
      "inputs": [
        {
          "internalType": "uint32",
          "name": "",
          "type": "uint32"
        }
      ],
      "name": "chains",
      "outputs": [
        {
          "internalType": "bytes32",
          "name": "destinationReceiverAddress",
          "type": "bytes32"
        },
        {
          "internalType": "bool",
          "name": "isExists",
          "type": "bool"
        }
      ],
      "stateMutability": "view",
      "type": "function"
    },
    {
      "inputs": [
        {
          "internalType": "bytes32",
          "name": "_promotionId",
          "type": "bytes32"
        },
        {
          "internalType": "uint32",
          "name": "destinationDomain",
          "type": "uint32"
        },
        {
          "internalType": "bytes",
          "name": "signature",
          "type": "bytes"
        },
        {
          "internalType": "address",
          "name": "claimer",
          "type": "address"
        },
        {
          "internalType": "uint256",
          "name": "gasAmount",
          "type": "uint256"
        }
      ],
      "name": "claimPromotion",
      "outputs": [],
      "stateMutability": "nonpayable",
      "type": "function"
    },
    {
      "inputs": [
        {
          "internalType": "bytes32",
          "name": "",
          "type": "bytes32"
        },
        {
          "internalType": "address",
          "name": "",
          "type": "address"
        }
      ],
      "name": "claims",
      "outputs": [
        {
          "internalType": "uint32",
          "name": "destinationDomain",
          "type": "uint32"
        },
        {
          "internalType": "address",
          "name": "promotionAddress",
          "type": "address"
        },
        {
          "internalType": "uint256",
          "name": "claimsCount",
          "type": "uint256"
        },
        {
          "internalType": "bool",
          "name": "isExists",
          "type": "bool"
        }
      ],
      "stateMutability": "view",
      "type": "function"
    },
    {
      "inputs": [
        {
          "internalType": "string",
          "name": "name",
          "type": "string"
        },
        {
          "internalType": "string",
          "name": "symbol",
          "type": "string"
        },
        {
          "internalType": "uint32",
          "name": "destinationDomain",
          "type": "uint32"
        },
        {
          "internalType": "uint256",
          "name": "claimsPerPerson",
          "type": "uint256"
        },
        {
          "internalType": "string",
          "name": "badgeURI",
          "type": "string"
        },
        {
          "internalType": "uint256",
          "name": "_salt",
          "type": "uint256"
        },
        {
          "internalType": "uint256",
          "name": "gasAmount",
          "type": "uint256"
        }
      ],
      "name": "createPromotion",
      "outputs": [],
      "stateMutability": "payable",
      "type": "function"
    },
    {
      "inputs": [
        {
          "internalType": "bytes32",
          "name": "_promotionId",
          "type": "bytes32"
        }
      ],
      "name": "fillGas",
      "outputs": [],
      "stateMutability": "payable",
      "type": "function"
    },
    {
      "inputs": [
        {
          "internalType": "bytes32",
          "name": "",
          "type": "bytes32"
        }
      ],
      "name": "gasTank",
      "outputs": [
        {
          "internalType": "uint256",
          "name": "",
          "type": "uint256"
        }
      ],
      "stateMutability": "view",
      "type": "function"
    },
    {
      "inputs": [
        {
          "internalType": "uint32",
          "name": "destinationDomain",
          "type": "uint32"
        },
        {
          "internalType": "uint256",
          "name": "gasAmount",
          "type": "uint256"
        }
      ],
      "name": "getQuotedPayment",
      "outputs": [
        {
          "internalType": "uint256",
          "name": "",
          "type": "uint256"
        }
      ],
      "stateMutability": "view",
      "type": "function"
    },
    {
      "inputs": [],
      "name": "igp",
      "outputs": [
        {
          "internalType": "contract IInterchainGasPaymaster",
          "name": "",
          "type": "address"
        }
      ],
      "stateMutability": "view",
      "type": "function"
    },
    {
      "inputs": [],
      "name": "iqsRouter",
      "outputs": [
        {
          "internalType": "contract IInterchainQueryRouter",
          "name": "",
          "type": "address"
        }
      ],
      "stateMutability": "view",
      "type": "function"
    },
    {
      "inputs": [],
      "name": "mailbox",
      "outputs": [
        {
          "internalType": "contract IMailbox",
          "name": "",
          "type": "address"
        }
      ],
      "stateMutability": "view",
      "type": "function"
    },
    {
      "inputs": [],
      "name": "owner",
      "outputs": [
        {
          "internalType": "address",
          "name": "",
          "type": "address"
        }
      ],
      "stateMutability": "view",
      "type": "function"
    },
    {
      "inputs": [
        {
          "internalType": "bytes32",
          "name": "",
          "type": "bytes32"
        }
      ],
      "name": "promotions",
      "outputs": [
        {
          "internalType": "address",
          "name": "promotionAddress",
          "type": "address"
        },
        {
          "internalType": "uint32",
          "name": "destinationDomain",
          "type": "uint32"
        },
        {
          "internalType": "address",
          "name": "creator",
          "type": "address"
        },
        {
          "internalType": "uint256",
          "name": "createdAt",
          "type": "uint256"
        },
        {
          "internalType": "uint256",
          "name": "claimsPerPerson",
          "type": "uint256"
        },
        {
          "internalType": "bool",
          "name": "isExists",
          "type": "bool"
        }
      ],
      "stateMutability": "view",
      "type": "function"
    },
    {
      "inputs": [
        {
          "internalType": "bytes32",
          "name": "_promotionId",
          "type": "bytes32"
        },
        {
          "internalType": "address",
          "name": "_to",
          "type": "address"
        }
      ],
      "name": "refundGas",
      "outputs": [],
      "stateMutability": "nonpayable",
      "type": "function"
    },
    {
      "inputs": [],
      "name": "renounceOwnership",
      "outputs": [],
      "stateMutability": "nonpayable",
      "type": "function"
    },
    {
      "inputs": [
        {
          "internalType": "address",
          "name": "newOwner",
          "type": "address"
        }
      ],
      "name": "transferOwnership",
      "outputs": [],
      "stateMutability": "nonpayable",
      "type": "function"
    }
  ],
  "bytecode": "0x608060405234801561001057600080fd5b5061001a33610023565b60018055610073565b600080546001600160a01b038381166001600160a01b0319831681178455604051919092169283917f8be0079c531659141344cd1fd0a4f28419497f9722a3daafe3b4186f6b6457e09190a35050565b613ed6806100826000396000f3fe608060405260043610620001075760003560e01c806392256c0e1162000095578063ea272e391162000060578063ea272e391462000372578063f28b2daa1462000422578063f2fde38b146200044c578063f8717e8d146200047157600080fd5b806392256c0e1462000273578063cade147d146200030c578063d5438eae1462000331578063d8b0857f146200035b57600080fd5b806360cb07d011620000d657806360cb07d014620001a7578063715018a614620001ea5780638b203dd414620002025780638da5cb5b146200025357600080fd5b806319a832ba146200010c5780633b86b52d14620001335780634262e0ad146200016b57806358b063fd1462000190575b600080fd5b3480156200011957600080fd5b50620001316200012b366004620018bf565b620004a2565b005b3480156200014057600080fd5b5062000158620001523660046200196e565b62000bb6565b6040519081526020015b60405180910390f35b3480156200017857600080fd5b50620001316200018a3660046200199b565b62000c48565b62000131620001a136600462001a7e565b62000cac565b348015620001b457600080fd5b50620001d173f782c6c4a02f2c71bb8a1db0166fab40ea95681881565b6040516001600160a01b03909116815260200162000162565b348015620001f757600080fd5b506200013162001150565b3480156200020f57600080fd5b506200023d6200022136600462001b40565b6005602052600090815260409020805460019091015460ff1682565b6040805192835290151560208301520162000162565b3480156200026057600080fd5b506000546001600160a01b0316620001d1565b3480156200028057600080fd5b50620002da6200029236600462001b65565b600360209081526000928352604080842090915290825290208054600182015460029092015463ffffffff8216926401000000009092046001600160a01b0316919060ff1684565b6040805163ffffffff90951685526001600160a01b039093166020850152918301521515606082015260800162000162565b3480156200031957600080fd5b50620001316200032b36600462001b65565b62001168565b3480156200033e57600080fd5b50620001d173cc737a94fecaec165abcf12ded095bb13f03768581565b620001316200036c36600462001b8b565b62001315565b3480156200037f57600080fd5b50620003dd6200039136600462001b8b565b6002602081905260009182526040909120805460018201549282015460038301546004909301546001600160a01b0380841695600160a01b90940463ffffffff16949316929060ff1686565b604080516001600160a01b03978816815263ffffffff96909616602087015293909516928401929092526060830152608082015290151560a082015260c00162000162565b3480156200042f57600080fd5b50620001d173f90cb82a76492614d07b82a7658917f3ac811ac181565b3480156200045957600080fd5b50620001316200046b36600462001ba5565b62001384565b3480156200047e57600080fd5b50620001586200049036600462001b8b565b60046020526000908152604090205481565b63ffffffff851660009081526005602052604090206001015460ff16620005065760405162461bcd60e51b815260206004820152601360248201527224b73b30b634b2102232b9ba34b730ba34b7b760691b60448201526064015b60405180910390fd5b6000600260008881526020019081526020016000206040518060c00160405290816000820160009054906101000a90046001600160a01b03166001600160a01b03166001600160a01b031681526020016000820160149054906101000a900463ffffffff1663ffffffff1663ffffffff1681526020016001820160009054906101000a90046001600160a01b03166001600160a01b03166001600160a01b0316815260200160028201548152602001600382015481526020016004820160009054906101000a900460ff16151515158152505090506000600360008981526020019081526020016000206000856001600160a01b03166001600160a01b031681526020019081526020016000206040518060800160405290816000820160009054906101000a900463ffffffff1663ffffffff1663ffffffff1681526020016000820160049054906101000a90046001600160a01b03166001600160a01b03166001600160a01b03168152602001600182015481526020016002820160009054906101000a900460ff161515151581525050905060008888846000015133604051602001620006f5949392919093845260e09290921b6001600160e01b0319166020840152606090811b6bffffffffffffffffffffffff19908116602485015291901b166038820152604c0190565b604051602081830303815290604052805190602001209050846001600160a01b03166200075b88888080601f0160208091040260200160405190810160405280939291908181526020018383808284376000920191909152508693925050620014039050565b6001600160a01b031614620007a25760405162461bcd60e51b815260206004820152600c60248201526b1d5b985d5d1a1bdc9a5e995960a21b6044820152606401620004fd565b8260a00151620007e95760405162461bcd60e51b815260206004820152601160248201527024b73b30b634b210283937b6b7ba34b7b760791b6044820152606401620004fd565b8160600151158062000802575081604001518360800151115b620008415760405162461bcd60e51b815260206004820152600e60248201526d4e6f206d6f726520636c61696d7360901b6044820152606401620004fd565b604080516001600160a01b0387166020820152600091016040516020818303038152906040529050600073cc737a94fecaec165abcf12ded095bb13f0376856001600160a01b031663fa31de018b620008a488600001516001600160a01b031690565b856040518463ffffffff1660e01b8152600401620008c59392919062001c17565b6020604051808303816000875af1158015620008e5573d6000803e3d6000fd5b505050506040513d601f19601f820116820180604052508101906200090b919062001c47565b905060006200091b8b8862000bb6565b60008d815260046020526040902054909150811115620009715760405162461bcd60e51b815260206004820152601060248201526f496e73756666696369656e742067617360801b6044820152606401620004fd565b60008c815260046020526040812080548392906200099190849062001c77565b90915550506040868101519051630237e58360e31b81526004810184905263ffffffff8d166024820152604481018990526001600160a01b03909116606482015273f90cb82a76492614d07b82a7658917f3ac811ac1906311bf2c189083906084016000604051808303818588803b15801562000a0d57600080fd5b505af115801562000a22573d6000803e3d6000fd5b505050505060008560400151905060405180608001604052808d63ffffffff16815260200188600001516001600160a01b0316815260200182600162000a69919062001c8d565b815260200160011515815250600360008f815260200190815260200160002060008b6001600160a01b03166001600160a01b0316815260200190815260200160002060008201518160000160006101000a81548163ffffffff021916908363ffffffff16021790555060208201518160000160046101000a8154816001600160a01b0302191690836001600160a01b031602179055506040820151816001015560608201518160020160006101000a81548160ff0219169083151502179055509050507f1d784a2e6117c9c7790cd6effb9ad66fee4286853a212a375d7a5c8c7bf175a78d8860000151338f85600162000b64919062001c8d565b604080519586526001600160a01b039485166020870152929093169184019190915263ffffffff16606083015260808201524260a082015260c00160405180910390a150505050505050505050505050565b60405163a692979360e01b815263ffffffff8316600482015260248101829052600090819073f90cb82a76492614d07b82a7658917f3ac811ac19063a692979390604401602060405180830381865afa15801562000c18573d6000803e3d6000fd5b505050506040513d601f19601f8201168201806040525081019062000c3e919062001c47565b9150505b92915050565b62000c526200142b565b604051806040016040528062000c6e836001600160a01b031690565b81526001602091820181905263ffffffff9490941660009081526005825260409020825181559101519201805460ff19169215159290921790915550565b63ffffffff851660009081526005602052604090206001015460ff1662000d0c5760405162461bcd60e51b815260206004820152601360248201527224b73b30b634b2102232b9ba34b730ba34b7b760691b6044820152606401620004fd565b60405160009062000d2c9089908990879033908a90899060200162001ca3565b60408051601f1981840301815282825263ffffffff8916600090815260056020529182205463fa31de0160e01b8452909350909173cc737a94fecaec165abcf12ded095bb13f0376859163fa31de019162000d8e918b91879060040162001c17565b6020604051808303816000875af115801562000dae573d6000803e3d6000fd5b505050506040513d601f19601f8201168201806040525081019062000dd4919062001c47565b9050600062000de88a8a8a8a8a8a62001487565b905060008a8a838b8b8b334260405160200162000e0d98979695949392919062001d0a565b60408051601f1981840301815291815281516020928301206000818152600290935291206004015490915060ff161562000e7d5760405162461bcd60e51b815260206004820152601060248201526f50726f6d6f74696f6e2065786973747360801b6044820152606401620004fd565b600062000e8b8a8762000bb6565b90508034101562000ed25760405162461bcd60e51b815260206004820152601060248201526f496e73756666696369656e742067617360801b6044820152606401620004fd565b62000ede813462001c77565b6000838152600460205260408120805490919062000efe90849062001c8d565b9091555050604051630237e58360e31b81526004810185905263ffffffff8b1660248201526044810187905233606482015273f90cb82a76492614d07b82a7658917f3ac811ac1906311bf2c189083906084016000604051808303818588803b15801562000f6b57600080fd5b505af115801562000f80573d6000803e3d6000fd5b50505050506040518060c00160405280846001600160a01b031681526020018b63ffffffff168152602001336001600160a01b031681526020014281526020018a8152602001600115158152506002600084815260200190815260200160002060008201518160000160006101000a8154816001600160a01b0302191690836001600160a01b0316021790555060208201518160000160146101000a81548163ffffffff021916908363ffffffff16021790555060408201518160010160006101000a8154816001600160a01b0302191690836001600160a01b03160217905550606082015181600201556080820151816003015560a08201518160040160006101000a81548160ff021916908315150217905550905050600060046000848152602001908152602001600020541115620010fd57600082815260046020908152604091829020548251858152918201527f1b70566610f058a3248c965ad2923a4829beb0d4cbe6a069e49c71ff46ce07ea910160405180910390a15b7fd4a6ee30ad1cd3b2f4f9f76e9abd1d4954e098a7aebc8af7c92439acd488907682848c33428e8e6040516200113a979695949392919062001da2565b60405180910390a1505050505050505050505050565b6200115a6200142b565b62001166600062001565565b565b62001172620015b5565b6000828152600260205260409020600101546001600160a01b03163314620011cc5760405162461bcd60e51b815260206004820152600c60248201526b155b985d5d1a1bdc9a5e995960a21b6044820152606401620004fd565b600082815260046020526040902054620012165760405162461bcd60e51b815260206004820152600a6024820152694e6f2062616c616e636560b01b6044820152606401620004fd565b60008281526004602052604080822054905182916001600160a01b038516918381818185875af1925050503d80600081146200126f576040519150601f19603f3d011682016040523d82523d6000602084013e62001274565b606091505b50915091508115620012d3576000848152600460209081526040808320805493905580518781529182018390527f5aafa436e7bcce48335a89fd368e909dee8d7387d9349daaed3b167446d6841c910160405180910390a15062001305565b60405162461bcd60e51b815260206004820152600660248201526511985a5b195960d21b6044820152606401620004fd565b50506200131160018055565b5050565b600081815260046020526040812080543492906200133590849062001c8d565b9091555050600081815260046020908152604091829020548251848152918201527f1b70566610f058a3248c965ad2923a4829beb0d4cbe6a069e49c71ff46ce07ea910160405180910390a150565b6200138e6200142b565b6001600160a01b038116620013f55760405162461bcd60e51b815260206004820152602660248201527f4f776e61626c653a206e6577206f776e657220697320746865207a65726f206160448201526564647265737360d01b6064820152608401620004fd565b620014008162001565565b50565b600080600062001414858562001610565b91509150620014238162001659565b509392505050565b6000546001600160a01b03163314620011665760405162461bcd60e51b815260206004820181905260248201527f4f776e61626c653a2063616c6c6572206973206e6f7420746865206f776e65726044820152606401620004fd565b600080604051806020016200149c906200187f565b601f1982820381018352601f909101166040819052620014c9908a908a90889033908b9060200162001dfd565b60408051601f1981840301815290829052620014e9929160200162001e5a565b60408051808303601f1901815282825263ffffffff8916600090815260056020908152928120548251848401206001600160f81b031994860194909452602185015260418401879052606184019290925292509060810160408051808303601f1901815291905280516020909101209998505050505050505050565b600080546001600160a01b038381166001600160a01b0319831681178455604051919092169283917f8be0079c531659141344cd1fd0a4f28419497f9722a3daafe3b4186f6b6457e09190a35050565b600260015403620016095760405162461bcd60e51b815260206004820152601f60248201527f5265656e7472616e637947756172643a207265656e7472616e742063616c6c006044820152606401620004fd565b6002600155565b60008082516041036200164a5760208301516040840151606085015160001a6200163d87828585620017b6565b9450945050505062001652565b506000905060025b9250929050565b600081600481111562001670576200167062001e8d565b03620016795750565b600181600481111562001690576200169062001e8d565b03620016df5760405162461bcd60e51b815260206004820152601860248201527f45434453413a20696e76616c6964207369676e617475726500000000000000006044820152606401620004fd565b6002816004811115620016f657620016f662001e8d565b03620017455760405162461bcd60e51b815260206004820152601f60248201527f45434453413a20696e76616c6964207369676e6174757265206c656e677468006044820152606401620004fd565b60038160048111156200175c576200175c62001e8d565b03620014005760405162461bcd60e51b815260206004820152602260248201527f45434453413a20696e76616c6964207369676e6174757265202773272076616c604482015261756560f01b6064820152608401620004fd565b6000807f7fffffffffffffffffffffffffffffff5d576e7357a4501ddfe92f46681b20a0831115620017ef575060009050600362001876565b6040805160008082526020820180845289905260ff881692820192909252606081018690526080810185905260019060a0016020604051602081039080840390855afa15801562001844573d6000803e3d6000fd5b5050604051601f1901519150506001600160a01b0381166200186f5760006001925092505062001876565b9150600090505b94509492505050565b611ffd8062001ea483390190565b803563ffffffff81168114620018a257600080fd5b919050565b80356001600160a01b0381168114620018a257600080fd5b60008060008060008060a08789031215620018d957600080fd5b86359550620018eb602088016200188d565b9450604087013567ffffffffffffffff808211156200190957600080fd5b818901915089601f8301126200191e57600080fd5b8135818111156200192e57600080fd5b8a60208285010111156200194157600080fd5b6020830196508095505050506200195b60608801620018a7565b9150608087013590509295509295509295565b600080604083850312156200198257600080fd5b6200198d836200188d565b946020939093013593505050565b60008060408385031215620019af57600080fd5b620019ba836200188d565b9150620019ca60208401620018a7565b90509250929050565b634e487b7160e01b600052604160045260246000fd5b600082601f830112620019fb57600080fd5b813567ffffffffffffffff8082111562001a195762001a19620019d3565b604051601f8301601f19908116603f0116810190828211818310171562001a445762001a44620019d3565b8160405283815286602085880101111562001a5e57600080fd5b836020870160208301376000602085830101528094505050505092915050565b600080600080600080600060e0888a03121562001a9a57600080fd5b873567ffffffffffffffff8082111562001ab357600080fd5b62001ac18b838c01620019e9565b985060208a013591508082111562001ad857600080fd5b62001ae68b838c01620019e9565b975062001af660408b016200188d565b965060608a0135955060808a013591508082111562001b1457600080fd5b5062001b238a828b01620019e9565b93505060a0880135915060c0880135905092959891949750929550565b60006020828403121562001b5357600080fd5b62001b5e826200188d565b9392505050565b6000806040838503121562001b7957600080fd5b82359150620019ca60208401620018a7565b60006020828403121562001b9e57600080fd5b5035919050565b60006020828403121562001bb857600080fd5b62001b5e82620018a7565b60005b8381101562001be057818101518382015260200162001bc6565b50506000910152565b6000815180845262001c0381602086016020860162001bc3565b601f01601f19169290920160200192915050565b63ffffffff8416815282602082015260606040820152600062001c3e606083018462001be9565b95945050505050565b60006020828403121562001c5a57600080fd5b5051919050565b634e487b7160e01b600052601160045260246000fd5b8181038181111562000c425762000c4262001c61565b8082018082111562000c425762000c4262001c61565b60c08152600062001cb860c083018962001be9565b828103602084015262001ccc818962001be9565b9050828103604084015262001ce2818862001be9565b6001600160a01b039690961660608401525050608081019290925260a0909101529392505050565b6000895162001d1e818460208e0162001bc3565b89519083019062001d34818360208e0162001bc3565b8082019150506bffffffffffffffffffffffff19808a60601b16825263ffffffff60e01b8960e01b166014830152876018830152865162001d7d816038850160208b0162001bc3565b60609690961b16940160388101949094525050604c820152606c019695505050505050565b8781526001600160a01b03878116602083015263ffffffff87166040830152851660608201526080810184905260a0810183905260e060c0820181905260009062001df09083018462001be9565b9998505050505050505050565b60a08152600062001e1260a083018862001be9565b828103602084015262001e26818862001be9565b9050828103604084015262001e3c818762001be9565b6001600160a01b039590951660608401525050608001529392505050565b6000835162001e6e81846020880162001bc3565b83519083019062001e8481836020880162001bc3565b01949350505050565b634e487b7160e01b600052602160045260246000fdfe60806040523480156200001157600080fd5b5060405162001ffd38038062001ffd8339810160408190526200003491620001c7565b8484600062000044838262000315565b50600162000053828262000315565b505050620000706200006a620000ac60201b60201c565b620000b0565b60096200007e848262000315565b50600a55600c80546001600160a01b0319166001600160a01b039290921691909117905550620003e1915050565b3390565b600780546001600160a01b038381166001600160a01b0319831681179093556040519116919082907f8be0079c531659141344cd1fd0a4f28419497f9722a3daafe3b4186f6b6457e090600090a35050565b634e487b7160e01b600052604160045260246000fd5b600082601f8301126200012a57600080fd5b81516001600160401b038082111562000147576200014762000102565b604051601f8301601f19908116603f0116810190828211818310171562000172576200017262000102565b816040528381526020925086838588010111156200018f57600080fd5b600091505b83821015620001b3578582018301518183018401529082019062000194565b600093810190920192909252949350505050565b600080600080600060a08688031215620001e057600080fd5b85516001600160401b0380821115620001f857600080fd5b6200020689838a0162000118565b965060208801519150808211156200021d57600080fd5b6200022b89838a0162000118565b955060408801519150808211156200024257600080fd5b50620002518882890162000118565b606088015190945090506001600160a01b03811681146200027157600080fd5b80925050608086015190509295509295909350565b600181811c908216806200029b57607f821691505b602082108103620002bc57634e487b7160e01b600052602260045260246000fd5b50919050565b601f8211156200031057600081815260208120601f850160051c81016020861015620002eb5750805b601f850160051c820191505b818110156200030c57828155600101620002f7565b5050505b505050565b81516001600160401b0381111562000331576200033162000102565b620003498162000342845462000286565b84620002c2565b602080601f831160018114620003815760008415620003685750858301515b600019600386901b1c1916600185901b1785556200030c565b600085815260208120601f198616915b82811015620003b25788860151825594840194600190910190840162000391565b5085821015620003d15787850151600019600388901b60f8161c191681555b5050505050600190811b01905550565b611c0c80620003f16000396000f3fe608060405234801561001057600080fd5b50600436106101425760003560e01c8063715018a6116100b8578063b85ec5051161007c578063b85ec50514610289578063b88d4fde146102a4578063c87b56dd146102b7578063e0df5b6f146102ca578063e985e9c5146102dd578063f2fde38b146102f057600080fd5b8063715018a61461024c5780638da5cb5b1461025457806395d89b4114610265578063a22cb4651461026d578063b212ba9f1461028057600080fd5b806342842e0e1161010a57806342842e0e146101d75780634f8aaac6146101ea57806356d5d475146101f25780636352211e146102055780636769a0c41461021857806370a082311461022b57600080fd5b806301ffc9a71461014757806306fdde031461016f578063081812fc14610184578063095ea7b3146101af57806323b872dd146101c4575b600080fd5b61015a6101553660046115c2565b610303565b60405190151581526020015b60405180910390f35b610177610355565b604051610166919061162f565b610197610192366004611642565b6103e7565b6040516001600160a01b039091168152602001610166565b6101c26101bd366004611670565b61040e565b005b6101c26101d236600461169c565b610528565b6101c26101e536600461169c565b610562565b61017761057d565b6101c26102003660046116dd565b61060b565b610197610213366004611642565b6106d2565b600c54610197906001600160a01b031681565b61023e61023936600461176f565b610732565b604051908152602001610166565b6101c26107b8565b6007546001600160a01b0316610197565b6101776107cc565b6101c261027b36600461178c565b6107db565b61023e600a5481565b61019773cc737a94fecaec165abcf12ded095bb13f03768581565b6101c26102b2366004611856565b6107ea565b6101776102c5366004611642565b610868565b6101c26102d83660046118d6565b610873565b61015a6102eb36600461191f565b610887565b6101c26102fe36600461176f565b6108b5565b60006001600160e01b031982166380ac58cd60e01b148061033457506001600160e01b03198216635b5e139f60e01b145b8061034f57506301ffc9a760e01b6001600160e01b03198316145b92915050565b6060600080546103649061194d565b80601f01602080910402602001604051908101604052809291908181526020018280546103909061194d565b80156103dd5780601f106103b2576101008083540402835291602001916103dd565b820191906000526020600020905b8154815290600101906020018083116103c057829003601f168201915b5050505050905090565b60006103f28261092e565b506000908152600460205260409020546001600160a01b031690565b6000610419826106d2565b9050806001600160a01b0316836001600160a01b03160361048b5760405162461bcd60e51b815260206004820152602160248201527f4552433732313a20617070726f76616c20746f2063757272656e74206f776e656044820152603960f91b60648201526084015b60405180910390fd5b336001600160a01b03821614806104a757506104a78133610887565b6105195760405162461bcd60e51b815260206004820152603d60248201527f4552433732313a20617070726f76652063616c6c6572206973206e6f7420746f60448201527f6b656e206f776e6572206f7220617070726f76656420666f7220616c6c0000006064820152608401610482565b610523838361098d565b505050565b60405162461bcd60e51b815260206004820152600f60248201526e21b0b73737ba103a3930b739b332b960891b6044820152606401610482565b610523838383604051806020016040528060008152506107ea565b6009805461058a9061194d565b80601f01602080910402602001604051908101604052809291908181526020018280546105b69061194d565b80156106035780601f106105d857610100808354040283529160200191610603565b820191906000526020600020905b8154815290600101906020018083116105e657829003601f168201915b505050505081565b3373cc737a94fecaec165abcf12ded095bb13f0376851461062b57600080fd5b60006106398284018461176f565b6001600160a01b0381166000908152600b60205260408120549192500361066857610663816109fb565b6106cb565b600a546001600160a01b0382166000908152600b6020526040902054106106c25760405162461bcd60e51b815260206004820152600e60248201526d4e6f206d6f726520636c61696d7360901b6044820152606401610482565b6106cb81610b67565b5050505050565b6000818152600260205260408120546001600160a01b03168061034f5760405162461bcd60e51b8152602060048201526018602482015277115490cdcc8c4e881a5b9d985b1a59081d1bdad95b88125160421b6044820152606401610482565b60006001600160a01b03821661079c5760405162461bcd60e51b815260206004820152602960248201527f4552433732313a2061646472657373207a65726f206973206e6f7420612076616044820152683634b21037bbb732b960b91b6064820152608401610482565b506001600160a01b031660009081526003602052604090205490565b6107c0610be9565b6107ca6000610c43565b565b6060600180546103649061194d565b6107e6338383610c95565b5050565b6107f43383610d63565b6108565760405162461bcd60e51b815260206004820152602d60248201527f4552433732313a2063616c6c6572206973206e6f7420746f6b656e206f776e6560448201526c1c881bdc88185c1c1c9bdd9959609a1b6064820152608401610482565b61086284848484610dc2565b50505050565b606061034f82610df5565b61087b610be9565b60096107e682826119d5565b6001600160a01b03918216600090815260056020908152604080832093909416825291909152205460ff1690565b6108bd610be9565b6001600160a01b0381166109225760405162461bcd60e51b815260206004820152602660248201527f4f776e61626c653a206e6577206f776e657220697320746865207a65726f206160448201526564647265737360d01b6064820152608401610482565b61092b81610c43565b50565b6000818152600260205260409020546001600160a01b031661092b5760405162461bcd60e51b8152602060048201526018602482015277115490cdcc8c4e881a5b9d985b1a59081d1bdad95b88125160421b6044820152606401610482565b600081815260046020526040902080546001600160a01b0319166001600160a01b03841690811790915581906109c2826106d2565b6001600160a01b03167f8c5be1e5ebec7d5bd14f71427d1e84f3dd0314c0f7b2291e5b200ac8c7c3b92560405160405180910390a45050565b6001600160a01b0381166000908152600b602052604090205415610a545760405162461bcd60e51b815260206004820152601060248201526f105b1c9958591e481bdddb9cc813919560821b6044820152606401610482565b6000610a5f60085490565b9050610a6f600880546001019055565b610a798282610efd565b610b0d8160098054610a8a9061194d565b80601f0160208091040260200160405190810160405280929190818152602001828054610ab69061194d565b8015610b035780601f10610ad857610100808354040283529160200191610b03565b820191906000526020600020905b815481529060010190602001808311610ae657829003601f168201915b5050505050610f17565b6001600160a01b0382166000818152600b60209081526040918290206001908190558251938452908301527f2ace47925ca5e5683eb2c2eab99a115e60455cbfbe81a22bceb46f3399846c64910160405180910390a15050565b6001600160a01b0381166000908152600b60205260408120805460019290610b90908490611a95565b90915550506001600160a01b0381166000818152600b6020908152604091829020548251938452908301527f2ace47925ca5e5683eb2c2eab99a115e60455cbfbe81a22bceb46f3399846c64910160405180910390a150565b6007546001600160a01b031633146107ca5760405162461bcd60e51b815260206004820181905260248201527f4f776e61626c653a2063616c6c6572206973206e6f7420746865206f776e65726044820152606401610482565b600780546001600160a01b038381166001600160a01b0319831681179093556040519116919082907f8be0079c531659141344cd1fd0a4f28419497f9722a3daafe3b4186f6b6457e090600090a35050565b816001600160a01b0316836001600160a01b031603610cf65760405162461bcd60e51b815260206004820152601960248201527f4552433732313a20617070726f766520746f2063616c6c6572000000000000006044820152606401610482565b6001600160a01b03838116600081815260056020908152604080832094871680845294825291829020805460ff191686151590811790915591519182527f17307eab39ab6107e8899845ad3d59bd9653f200f220920489ca2b5937696c31910160405180910390a3505050565b600080610d6f836106d2565b9050806001600160a01b0316846001600160a01b03161480610d965750610d968185610887565b80610dba5750836001600160a01b0316610daf846103e7565b6001600160a01b0316145b949350505050565b610dcd848484610faa565b610dd98484848461110e565b6108625760405162461bcd60e51b815260040161048290611ab6565b6060610e008261092e565b60008281526006602052604081208054610e199061194d565b80601f0160208091040260200160405190810160405280929190818152602001828054610e459061194d565b8015610e925780601f10610e6757610100808354040283529160200191610e92565b820191906000526020600020905b815481529060010190602001808311610e7557829003601f168201915b505050505090506000610eb060408051602081019091526000815290565b90508051600003610ec2575092915050565b815115610ef4578082604051602001610edc929190611b08565b60405160208183030381529060405292505050919050565b610dba8461120f565b6107e6828260405180602001604052806000815250611283565b6000828152600260205260409020546001600160a01b0316610f925760405162461bcd60e51b815260206004820152602e60248201527f45524337323155524953746f726167653a2055524920736574206f66206e6f6e60448201526d32bc34b9ba32b73a103a37b5b2b760911b6064820152608401610482565b600082815260066020526040902061052382826119d5565b826001600160a01b0316610fbd826106d2565b6001600160a01b031614610fe35760405162461bcd60e51b815260040161048290611b37565b6001600160a01b0382166110455760405162461bcd60e51b8152602060048201526024808201527f4552433732313a207472616e7366657220746f20746865207a65726f206164646044820152637265737360e01b6064820152608401610482565b826001600160a01b0316611058826106d2565b6001600160a01b03161461107e5760405162461bcd60e51b815260040161048290611b37565b600081815260046020908152604080832080546001600160a01b03199081169091556001600160a01b0387811680865260038552838620805460001901905590871680865283862080546001019055868652600290945282852080549092168417909155905184937fddf252ad1be2c89b69c2b068fc378daa952ba7f163c4a11628f55a4df523b3ef91a4505050565b60006001600160a01b0384163b1561120457604051630a85bd0160e11b81526001600160a01b0385169063150b7a0290611152903390899088908890600401611b7c565b6020604051808303816000875af192505050801561118d575060408051601f3d908101601f1916820190925261118a91810190611bb9565b60015b6111ea573d8080156111bb576040519150601f19603f3d011682016040523d82523d6000602084013e6111c0565b606091505b5080516000036111e25760405162461bcd60e51b815260040161048290611ab6565b805181602001fd5b6001600160e01b031916630a85bd0160e11b149050610dba565b506001949350505050565b606061121a8261092e565b600061123160408051602081019091526000815290565b90506000815111611251576040518060200160405280600081525061127c565b8061125b846112b6565b60405160200161126c929190611b08565b6040516020818303038152906040525b9392505050565b61128d8383611349565b61129a600084848461110e565b6105235760405162461bcd60e51b815260040161048290611ab6565b606060006112c3836114d4565b600101905060008167ffffffffffffffff8111156112e3576112e36117ca565b6040519080825280601f01601f19166020018201604052801561130d576020820181803683370190505b5090508181016020015b600019016f181899199a1a9b1b9c1cb0b131b232b360811b600a86061a8153600a850494508461131757509392505050565b6001600160a01b03821661139f5760405162461bcd60e51b815260206004820181905260248201527f4552433732313a206d696e7420746f20746865207a65726f20616464726573736044820152606401610482565b6000818152600260205260409020546001600160a01b0316156114045760405162461bcd60e51b815260206004820152601c60248201527f4552433732313a20746f6b656e20616c7265616479206d696e746564000000006044820152606401610482565b6000818152600260205260409020546001600160a01b0316156114695760405162461bcd60e51b815260206004820152601c60248201527f4552433732313a20746f6b656e20616c7265616479206d696e746564000000006044820152606401610482565b6001600160a01b038216600081815260036020908152604080832080546001019055848352600290915280822080546001600160a01b0319168417905551839291907fddf252ad1be2c89b69c2b068fc378daa952ba7f163c4a11628f55a4df523b3ef908290a45050565b60008072184f03e93ff9f4daa797ed6e38ed64bf6a1f0160401b83106115135772184f03e93ff9f4daa797ed6e38ed64bf6a1f0160401b830492506040015b6d04ee2d6d415b85acef8100000000831061153f576d04ee2d6d415b85acef8100000000830492506020015b662386f26fc10000831061155d57662386f26fc10000830492506010015b6305f5e1008310611575576305f5e100830492506008015b612710831061158957612710830492506004015b6064831061159b576064830492506002015b600a831061034f5760010192915050565b6001600160e01b03198116811461092b57600080fd5b6000602082840312156115d457600080fd5b813561127c816115ac565b60005b838110156115fa5781810151838201526020016115e2565b50506000910152565b6000815180845261161b8160208601602086016115df565b601f01601f19169290920160200192915050565b60208152600061127c6020830184611603565b60006020828403121561165457600080fd5b5035919050565b6001600160a01b038116811461092b57600080fd5b6000806040838503121561168357600080fd5b823561168e8161165b565b946020939093013593505050565b6000806000606084860312156116b157600080fd5b83356116bc8161165b565b925060208401356116cc8161165b565b929592945050506040919091013590565b600080600080606085870312156116f357600080fd5b843563ffffffff8116811461170757600080fd5b935060208501359250604085013567ffffffffffffffff8082111561172b57600080fd5b818701915087601f83011261173f57600080fd5b81358181111561174e57600080fd5b88602082850101111561176057600080fd5b95989497505060200194505050565b60006020828403121561178157600080fd5b813561127c8161165b565b6000806040838503121561179f57600080fd5b82356117aa8161165b565b9150602083013580151581146117bf57600080fd5b809150509250929050565b634e487b7160e01b600052604160045260246000fd5b600067ffffffffffffffff808411156117fb576117fb6117ca565b604051601f8501601f19908116603f01168101908282118183101715611823576118236117ca565b8160405280935085815286868601111561183c57600080fd5b858560208301376000602087830101525050509392505050565b6000806000806080858703121561186c57600080fd5b84356118778161165b565b935060208501356118878161165b565b925060408501359150606085013567ffffffffffffffff8111156118aa57600080fd5b8501601f810187136118bb57600080fd5b6118ca878235602084016117e0565b91505092959194509250565b6000602082840312156118e857600080fd5b813567ffffffffffffffff8111156118ff57600080fd5b8201601f8101841361191057600080fd5b610dba848235602084016117e0565b6000806040838503121561193257600080fd5b823561193d8161165b565b915060208301356117bf8161165b565b600181811c9082168061196157607f821691505b60208210810361198157634e487b7160e01b600052602260045260246000fd5b50919050565b601f82111561052357600081815260208120601f850160051c810160208610156119ae5750805b601f850160051c820191505b818110156119cd578281556001016119ba565b505050505050565b815167ffffffffffffffff8111156119ef576119ef6117ca565b611a03816119fd845461194d565b84611987565b602080601f831160018114611a385760008415611a205750858301515b600019600386901b1c1916600185901b1785556119cd565b600085815260208120601f198616915b82811015611a6757888601518255948401946001909101908401611a48565b5085821015611a855787850151600019600388901b60f8161c191681555b5050505050600190811b01905550565b8082018082111561034f57634e487b7160e01b600052601160045260246000fd5b60208082526032908201527f4552433732313a207472616e7366657220746f206e6f6e20455243373231526560408201527131b2b4bb32b91034b6b83632b6b2b73a32b960711b606082015260800190565b60008351611b1a8184602088016115df565b835190830190611b2e8183602088016115df565b01949350505050565b60208082526025908201527f4552433732313a207472616e736665722066726f6d20696e636f72726563742060408201526437bbb732b960d91b606082015260800190565b6001600160a01b0385811682528416602082015260408101839052608060608201819052600090611baf90830184611603565b9695505050505050565b600060208284031215611bcb57600080fd5b815161127c816115ac56fea2646970667358221220aa1d8fdfc8234cd3ebc2eb0fa128ec3c0faf1581719e2ab7828b29e2bce5745d64736f6c63430008110033a264697066735822122047bc8577c8b33344e83d4c1113e52cece9fda3c5468b9f12b0485e42fdf26f4f64736f6c63430008110033",
  "linkReferences": {},
  "deployedLinkReferences": {}
}