{
  "_format": "hh-sol-artifact-1",
  "contractName": "HydraS2Lib",
  "sourceName": "contracts/lib/verifiers/HydraS2Lib.sol",
  "abi": [
    {
      "inputs": [],
      "name": "SNARK_FIELD",
      "outputs": [
        {
          "internalType": "uint256",
          "name": "",
          "type": "uint256"
        }
      ],
      "stateMutability": "view",
      "type": "function"
    }
  ],
  "bytecode": "0x60a6610038600b82828239805160001a607314602b57634e487b7160e01b600052600060045260246000fd5b30600052607381538281f3fe730000000000000000000000000000000000000000301460806040526004361060335760003560e01c8063218df2e3146038575b600080fd5b605e7f30644e72e131a029b85045b68181585d2833e84879b9709143e1f593f000000181565b60405190815260200160405180910390f3fea264697066735822122089d7e69348659139a07e39c972edcea801e8c7135e1232a86ac7ed38b76cd65e64736f6c63430008110033",
  "linkReferences": {},
  "deployedLinkReferences": {}
}