{
  "_format": "hh-sol-artifact-1",
  "contractName": "RequestBuilder",
  "sourceName": "contracts/lib/libs/utils/RequestBuilder.sol",
  "abi": [
    {
      "inputs": [],
      "name": "DEFAULT_AUTH_ANON_MODE",
      "outputs": [
        {
          "internalType": "bool",
          "name": "",
          "type": "bool"
        }
      ],
      "stateMutability": "view",
      "type": "function"
    },
    {
      "inputs": [],
      "name": "DEFAULT_AUTH_EXTRA_DATA",
      "outputs": [
        {
          "internalType": "bytes",
          "name": "",
          "type": "bytes"
        }
      ],
      "stateMutability": "view",
      "type": "function"
    },
    {
      "inputs": [],
      "name": "DEFAULT_AUTH_USER_ID",
      "outputs": [
        {
          "internalType": "uint256",
          "name": "",
          "type": "uint256"
        }
      ],
      "stateMutability": "view",
      "type": "function"
    },
    {
      "inputs": [],
      "name": "DEFAULT_CLAIM_EXTRA_DATA",
      "outputs": [
        {
          "internalType": "bytes",
          "name": "",
          "type": "bytes"
        }
      ],
      "stateMutability": "view",
      "type": "function"
    },
    {
      "inputs": [],
      "name": "DEFAULT_CLAIM_GROUP_ID",
      "outputs": [
        {
          "internalType": "bytes16",
          "name": "",
          "type": "bytes16"
        }
      ],
      "stateMutability": "view",
      "type": "function"
    },
    {
      "inputs": [],
      "name": "DEFAULT_CLAIM_GROUP_TIMESTAMP",
      "outputs": [
        {
          "internalType": "bytes16",
          "name": "",
          "type": "bytes16"
        }
      ],
      "stateMutability": "view",
      "type": "function"
    },
    {
      "inputs": [],
      "name": "DEFAULT_CLAIM_TYPE",
      "outputs": [
        {
          "internalType": "enum ClaimType",
          "name": "",
          "type": "ClaimType"
        }
      ],
      "stateMutability": "view",
      "type": "function"
    },
    {
      "inputs": [],
      "name": "DEFAULT_CLAIM_VALUE",
      "outputs": [
        {
          "internalType": "uint256",
          "name": "",
          "type": "uint256"
        }
      ],
      "stateMutability": "view",
      "type": "function"
    },
    {
      "inputs": [],
      "name": "DEFAULT_MESSAGE_SIGNATURE_REQUEST",
      "outputs": [
        {
          "internalType": "bytes",
          "name": "",
          "type": "bytes"
        }
      ],
      "stateMutability": "view",
      "type": "function"
    },
    {
      "inputs": [],
      "name": "DEFAULT_NAMESPACE",
      "outputs": [
        {
          "internalType": "bytes16",
          "name": "",
          "type": "bytes16"
        }
      ],
      "stateMutability": "view",
      "type": "function"
    },
    {
      "inputs": [],
      "name": "GET_DEFAULT_AUTH_REQUEST",
      "outputs": [
        {
          "components": [
            {
              "internalType": "enum AuthType",
              "name": "authType",
              "type": "AuthType"
            },
            {
              "internalType": "bool",
              "name": "anonMode",
              "type": "bool"
            },
            {
              "internalType": "uint256",
              "name": "userId",
              "type": "uint256"
            },
            {
              "internalType": "bytes",
              "name": "extraData",
              "type": "bytes"
            }
          ],
          "internalType": "struct Auth",
          "name": "",
          "type": "tuple"
        }
      ],
      "stateMutability": "pure",
      "type": "function"
    },
    {
      "inputs": [],
      "name": "GET_DEFAULT_CLAIM_REQUEST",
      "outputs": [
        {
          "components": [
            {
              "internalType": "bytes16",
              "name": "groupId",
              "type": "bytes16"
            },
            {
              "internalType": "bytes16",
              "name": "groupTimestamp",
              "type": "bytes16"
            },
            {
              "internalType": "uint256",
              "name": "value",
              "type": "uint256"
            },
            {
              "internalType": "enum ClaimType",
              "name": "claimType",
              "type": "ClaimType"
            },
            {
              "internalType": "bytes",
              "name": "extraData",
              "type": "bytes"
            }
          ],
          "internalType": "struct Claim",
          "name": "",
          "type": "tuple"
        }
      ],
      "stateMutability": "pure",
      "type": "function"
    },
    {
      "inputs": [
        {
          "internalType": "enum AuthType",
          "name": "authType",
          "type": "AuthType"
        },
        {
          "internalType": "uint256",
          "name": "userId",
          "type": "uint256"
        }
      ],
      "name": "buildAuth",
      "outputs": [
        {
          "components": [
            {
              "internalType": "enum AuthType",
              "name": "authType",
              "type": "AuthType"
            },
            {
              "internalType": "bool",
              "name": "anonMode",
              "type": "bool"
            },
            {
              "internalType": "uint256",
              "name": "userId",
              "type": "uint256"
            },
            {
              "internalType": "bytes",
              "name": "extraData",
              "type": "bytes"
            }
          ],
          "internalType": "struct Auth",
          "name": "",
          "type": "tuple"
        }
      ],
      "stateMutability": "pure",
      "type": "function"
    },
    {
      "inputs": [
        {
          "internalType": "enum AuthType",
          "name": "authType",
          "type": "AuthType"
        },
        {
          "internalType": "bytes",
          "name": "extraData",
          "type": "bytes"
        }
      ],
      "name": "buildAuth",
      "outputs": [
        {
          "components": [
            {
              "internalType": "enum AuthType",
              "name": "authType",
              "type": "AuthType"
            },
            {
              "internalType": "bool",
              "name": "anonMode",
              "type": "bool"
            },
            {
              "internalType": "uint256",
              "name": "userId",
              "type": "uint256"
            },
            {
              "internalType": "bytes",
              "name": "extraData",
              "type": "bytes"
            }
          ],
          "internalType": "struct Auth",
          "name": "",
          "type": "tuple"
        }
      ],
      "stateMutability": "pure",
      "type": "function"
    },
    {
      "inputs": [
        {
          "internalType": "enum AuthType",
          "name": "authType",
          "type": "AuthType"
        },
        {
          "internalType": "uint256",
          "name": "userId",
          "type": "uint256"
        },
        {
          "internalType": "bytes",
          "name": "extraData",
          "type": "bytes"
        }
      ],
      "name": "buildAuth",
      "outputs": [
        {
          "components": [
            {
              "internalType": "enum AuthType",
              "name": "authType",
              "type": "AuthType"
            },
            {
              "internalType": "bool",
              "name": "anonMode",
              "type": "bool"
            },
            {
              "internalType": "uint256",
              "name": "userId",
              "type": "uint256"
            },
            {
              "internalType": "bytes",
              "name": "extraData",
              "type": "bytes"
            }
          ],
          "internalType": "struct Auth",
          "name": "",
          "type": "tuple"
        }
      ],
      "stateMutability": "pure",
      "type": "function"
    },
    {
      "inputs": [
        {
          "internalType": "enum AuthType",
          "name": "authType",
          "type": "AuthType"
        },
        {
          "internalType": "bool",
          "name": "anonMode",
          "type": "bool"
        },
        {
          "internalType": "uint256",
          "name": "userId",
          "type": "uint256"
        }
      ],
      "name": "buildAuth",
      "outputs": [
        {
          "components": [
            {
              "internalType": "enum AuthType",
              "name": "authType",
              "type": "AuthType"
            },
            {
              "internalType": "bool",
              "name": "anonMode",
              "type": "bool"
            },
            {
              "internalType": "uint256",
              "name": "userId",
              "type": "uint256"
            },
            {
              "internalType": "bytes",
              "name": "extraData",
              "type": "bytes"
            }
          ],
          "internalType": "struct Auth",
          "name": "",
          "type": "tuple"
        }
      ],
      "stateMutability": "pure",
      "type": "function"
    },
    {
      "inputs": [
        {
          "internalType": "enum AuthType",
          "name": "authType",
          "type": "AuthType"
        },
        {
          "internalType": "bool",
          "name": "anonMode",
          "type": "bool"
        }
      ],
      "name": "buildAuth",
      "outputs": [
        {
          "components": [
            {
              "internalType": "enum AuthType",
              "name": "authType",
              "type": "AuthType"
            },
            {
              "internalType": "bool",
              "name": "anonMode",
              "type": "bool"
            },
            {
              "internalType": "uint256",
              "name": "userId",
              "type": "uint256"
            },
            {
              "internalType": "bytes",
              "name": "extraData",
              "type": "bytes"
            }
          ],
          "internalType": "struct Auth",
          "name": "",
          "type": "tuple"
        }
      ],
      "stateMutability": "pure",
      "type": "function"
    },
    {
      "inputs": [
        {
          "internalType": "enum AuthType",
          "name": "authType",
          "type": "AuthType"
        },
        {
          "internalType": "bool",
          "name": "anonMode",
          "type": "bool"
        },
        {
          "internalType": "bytes",
          "name": "extraData",
          "type": "bytes"
        }
      ],
      "name": "buildAuth",
      "outputs": [
        {
          "components": [
            {
              "internalType": "enum AuthType",
              "name": "authType",
              "type": "AuthType"
            },
            {
              "internalType": "bool",
              "name": "anonMode",
              "type": "bool"
            },
            {
              "internalType": "uint256",
              "name": "userId",
              "type": "uint256"
            },
            {
              "internalType": "bytes",
              "name": "extraData",
              "type": "bytes"
            }
          ],
          "internalType": "struct Auth",
          "name": "",
          "type": "tuple"
        }
      ],
      "stateMutability": "pure",
      "type": "function"
    },
    {
      "inputs": [
        {
          "internalType": "enum AuthType",
          "name": "authType",
          "type": "AuthType"
        },
        {
          "internalType": "bool",
          "name": "anonMode",
          "type": "bool"
        },
        {
          "internalType": "uint256",
          "name": "userId",
          "type": "uint256"
        },
        {
          "internalType": "bytes",
          "name": "extraData",
          "type": "bytes"
        }
      ],
      "name": "buildAuth",
      "outputs": [
        {
          "components": [
            {
              "internalType": "enum AuthType",
              "name": "authType",
              "type": "AuthType"
            },
            {
              "internalType": "bool",
              "name": "anonMode",
              "type": "bool"
            },
            {
              "internalType": "uint256",
              "name": "userId",
              "type": "uint256"
            },
            {
              "internalType": "bytes",
              "name": "extraData",
              "type": "bytes"
            }
          ],
          "internalType": "struct Auth",
          "name": "",
          "type": "tuple"
        }
      ],
      "stateMutability": "pure",
      "type": "function"
    },
    {
      "inputs": [
        {
          "internalType": "enum AuthType",
          "name": "authType",
          "type": "AuthType"
        }
      ],
      "name": "buildAuth",
      "outputs": [
        {
          "components": [
            {
              "internalType": "enum AuthType",
              "name": "authType",
              "type": "AuthType"
            },
            {
              "internalType": "bool",
              "name": "anonMode",
              "type": "bool"
            },
            {
              "internalType": "uint256",
              "name": "userId",
              "type": "uint256"
            },
            {
              "internalType": "bytes",
              "name": "extraData",
              "type": "bytes"
            }
          ],
          "internalType": "struct Auth",
          "name": "",
          "type": "tuple"
        }
      ],
      "stateMutability": "pure",
      "type": "function"
    },
    {
      "inputs": [
        {
          "internalType": "bytes16",
          "name": "groupId",
          "type": "bytes16"
        },
        {
          "internalType": "bytes16",
          "name": "groupTimestamp",
          "type": "bytes16"
        }
      ],
      "name": "buildClaim",
      "outputs": [
        {
          "components": [
            {
              "internalType": "bytes16",
              "name": "groupId",
              "type": "bytes16"
            },
            {
              "internalType": "bytes16",
              "name": "groupTimestamp",
              "type": "bytes16"
            },
            {
              "internalType": "uint256",
              "name": "value",
              "type": "uint256"
            },
            {
              "internalType": "enum ClaimType",
              "name": "claimType",
              "type": "ClaimType"
            },
            {
              "internalType": "bytes",
              "name": "extraData",
              "type": "bytes"
            }
          ],
          "internalType": "struct Claim",
          "name": "",
          "type": "tuple"
        }
      ],
      "stateMutability": "pure",
      "type": "function"
    },
    {
      "inputs": [
        {
          "internalType": "bytes16",
          "name": "groupId",
          "type": "bytes16"
        }
      ],
      "name": "buildClaim",
      "outputs": [
        {
          "components": [
            {
              "internalType": "bytes16",
              "name": "groupId",
              "type": "bytes16"
            },
            {
              "internalType": "bytes16",
              "name": "groupTimestamp",
              "type": "bytes16"
            },
            {
              "internalType": "uint256",
              "name": "value",
              "type": "uint256"
            },
            {
              "internalType": "enum ClaimType",
              "name": "claimType",
              "type": "ClaimType"
            },
            {
              "internalType": "bytes",
              "name": "extraData",
              "type": "bytes"
            }
          ],
          "internalType": "struct Claim",
          "name": "",
          "type": "tuple"
        }
      ],
      "stateMutability": "pure",
      "type": "function"
    },
    {
      "inputs": [
        {
          "internalType": "bytes16",
          "name": "groupId",
          "type": "bytes16"
        },
        {
          "internalType": "enum ClaimType",
          "name": "claimType",
          "type": "ClaimType"
        },
        {
          "internalType": "bytes",
          "name": "extraData",
          "type": "bytes"
        }
      ],
      "name": "buildClaim",
      "outputs": [
        {
          "components": [
            {
              "internalType": "bytes16",
              "name": "groupId",
              "type": "bytes16"
            },
            {
              "internalType": "bytes16",
              "name": "groupTimestamp",
              "type": "bytes16"
            },
            {
              "internalType": "uint256",
              "name": "value",
              "type": "uint256"
            },
            {
              "internalType": "enum ClaimType",
              "name": "claimType",
              "type": "ClaimType"
            },
            {
              "internalType": "bytes",
              "name": "extraData",
              "type": "bytes"
            }
          ],
          "internalType": "struct Claim",
          "name": "",
          "type": "tuple"
        }
      ],
      "stateMutability": "pure",
      "type": "function"
    },
    {
      "inputs": [
        {
          "internalType": "bytes16",
          "name": "groupId",
          "type": "bytes16"
        },
        {
          "internalType": "bytes16",
          "name": "groupTimestamp",
          "type": "bytes16"
        },
        {
          "internalType": "uint256",
          "name": "value",
          "type": "uint256"
        },
        {
          "internalType": "enum ClaimType",
          "name": "claimType",
          "type": "ClaimType"
        }
      ],
      "name": "buildClaim",
      "outputs": [
        {
          "components": [
            {
              "internalType": "bytes16",
              "name": "groupId",
              "type": "bytes16"
            },
            {
              "internalType": "bytes16",
              "name": "groupTimestamp",
              "type": "bytes16"
            },
            {
              "internalType": "uint256",
              "name": "value",
              "type": "uint256"
            },
            {
              "internalType": "enum ClaimType",
              "name": "claimType",
              "type": "ClaimType"
            },
            {
              "internalType": "bytes",
              "name": "extraData",
              "type": "bytes"
            }
          ],
          "internalType": "struct Claim",
          "name": "",
          "type": "tuple"
        }
      ],
      "stateMutability": "pure",
      "type": "function"
    },
    {
      "inputs": [
        {
          "internalType": "bytes16",
          "name": "groupId",
          "type": "bytes16"
        },
        {
          "internalType": "bytes16",
          "name": "groupTimestamp",
          "type": "bytes16"
        },
        {
          "internalType": "bytes",
          "name": "extraData",
          "type": "bytes"
        }
      ],
      "name": "buildClaim",
      "outputs": [
        {
          "components": [
            {
              "internalType": "bytes16",
              "name": "groupId",
              "type": "bytes16"
            },
            {
              "internalType": "bytes16",
              "name": "groupTimestamp",
              "type": "bytes16"
            },
            {
              "internalType": "uint256",
              "name": "value",
              "type": "uint256"
            },
            {
              "internalType": "enum ClaimType",
              "name": "claimType",
              "type": "ClaimType"
            },
            {
              "internalType": "bytes",
              "name": "extraData",
              "type": "bytes"
            }
          ],
          "internalType": "struct Claim",
          "name": "",
          "type": "tuple"
        }
      ],
      "stateMutability": "pure",
      "type": "function"
    },
    {
      "inputs": [
        {
          "internalType": "bytes16",
          "name": "groupId",
          "type": "bytes16"
        },
        {
          "internalType": "bytes",
          "name": "extraData",
          "type": "bytes"
        }
      ],
      "name": "buildClaim",
      "outputs": [
        {
          "components": [
            {
              "internalType": "bytes16",
              "name": "groupId",
              "type": "bytes16"
            },
            {
              "internalType": "bytes16",
              "name": "groupTimestamp",
              "type": "bytes16"
            },
            {
              "internalType": "uint256",
              "name": "value",
              "type": "uint256"
            },
            {
              "internalType": "enum ClaimType",
              "name": "claimType",
              "type": "ClaimType"
            },
            {
              "internalType": "bytes",
              "name": "extraData",
              "type": "bytes"
            }
          ],
          "internalType": "struct Claim",
          "name": "",
          "type": "tuple"
        }
      ],
      "stateMutability": "pure",
      "type": "function"
    },
    {
      "inputs": [
        {
          "internalType": "bytes16",
          "name": "groupId",
          "type": "bytes16"
        },
        {
          "internalType": "bytes16",
          "name": "groupTimestamp",
          "type": "bytes16"
        },
        {
          "internalType": "enum ClaimType",
          "name": "claimType",
          "type": "ClaimType"
        }
      ],
      "name": "buildClaim",
      "outputs": [
        {
          "components": [
            {
              "internalType": "bytes16",
              "name": "groupId",
              "type": "bytes16"
            },
            {
              "internalType": "bytes16",
              "name": "groupTimestamp",
              "type": "bytes16"
            },
            {
              "internalType": "uint256",
              "name": "value",
              "type": "uint256"
            },
            {
              "internalType": "enum ClaimType",
              "name": "claimType",
              "type": "ClaimType"
            },
            {
              "internalType": "bytes",
              "name": "extraData",
              "type": "bytes"
            }
          ],
          "internalType": "struct Claim",
          "name": "",
          "type": "tuple"
        }
      ],
      "stateMutability": "pure",
      "type": "function"
    },
    {
      "inputs": [
        {
          "internalType": "bytes16",
          "name": "groupId",
          "type": "bytes16"
        },
        {
          "internalType": "bytes16",
          "name": "groupTimestamp",
          "type": "bytes16"
        },
        {
          "internalType": "enum ClaimType",
          "name": "claimType",
          "type": "ClaimType"
        },
        {
          "internalType": "bytes",
          "name": "extraData",
          "type": "bytes"
        }
      ],
      "name": "buildClaim",
      "outputs": [
        {
          "components": [
            {
              "internalType": "bytes16",
              "name": "groupId",
              "type": "bytes16"
            },
            {
              "internalType": "bytes16",
              "name": "groupTimestamp",
              "type": "bytes16"
            },
            {
              "internalType": "uint256",
              "name": "value",
              "type": "uint256"
            },
            {
              "internalType": "enum ClaimType",
              "name": "claimType",
              "type": "ClaimType"
            },
            {
              "internalType": "bytes",
              "name": "extraData",
              "type": "bytes"
            }
          ],
          "internalType": "struct Claim",
          "name": "",
          "type": "tuple"
        }
      ],
      "stateMutability": "pure",
      "type": "function"
    },
    {
      "inputs": [
        {
          "internalType": "bytes16",
          "name": "groupId",
          "type": "bytes16"
        },
        {
          "internalType": "uint256",
          "name": "value",
          "type": "uint256"
        },
        {
          "internalType": "enum ClaimType",
          "name": "claimType",
          "type": "ClaimType"
        },
        {
          "internalType": "bytes",
          "name": "extraData",
          "type": "bytes"
        }
      ],
      "name": "buildClaim",
      "outputs": [
        {
          "components": [
            {
              "internalType": "bytes16",
              "name": "groupId",
              "type": "bytes16"
            },
            {
              "internalType": "bytes16",
              "name": "groupTimestamp",
              "type": "bytes16"
            },
            {
              "internalType": "uint256",
              "name": "value",
              "type": "uint256"
            },
            {
              "internalType": "enum ClaimType",
              "name": "claimType",
              "type": "ClaimType"
            },
            {
              "internalType": "bytes",
              "name": "extraData",
              "type": "bytes"
            }
          ],
          "internalType": "struct Claim",
          "name": "",
          "type": "tuple"
        }
      ],
      "stateMutability": "pure",
      "type": "function"
    },
    {
      "inputs": [
        {
          "internalType": "bytes16",
          "name": "groupId",
          "type": "bytes16"
        },
        {
          "internalType": "uint256",
          "name": "value",
          "type": "uint256"
        },
        {
          "internalType": "bytes",
          "name": "extraData",
          "type": "bytes"
        }
      ],
      "name": "buildClaim",
      "outputs": [
        {
          "components": [
            {
              "internalType": "bytes16",
              "name": "groupId",
              "type": "bytes16"
            },
            {
              "internalType": "bytes16",
              "name": "groupTimestamp",
              "type": "bytes16"
            },
            {
              "internalType": "uint256",
              "name": "value",
              "type": "uint256"
            },
            {
              "internalType": "enum ClaimType",
              "name": "claimType",
              "type": "ClaimType"
            },
            {
              "internalType": "bytes",
              "name": "extraData",
              "type": "bytes"
            }
          ],
          "internalType": "struct Claim",
          "name": "",
          "type": "tuple"
        }
      ],
      "stateMutability": "pure",
      "type": "function"
    },
    {
      "inputs": [
        {
          "internalType": "bytes16",
          "name": "groupId",
          "type": "bytes16"
        },
        {
          "internalType": "bytes16",
          "name": "groupTimestamp",
          "type": "bytes16"
        },
        {
          "internalType": "uint256",
          "name": "value",
          "type": "uint256"
        },
        {
          "internalType": "enum ClaimType",
          "name": "claimType",
          "type": "ClaimType"
        },
        {
          "internalType": "bytes",
          "name": "extraData",
          "type": "bytes"
        }
      ],
      "name": "buildClaim",
      "outputs": [
        {
          "components": [
            {
              "internalType": "bytes16",
              "name": "groupId",
              "type": "bytes16"
            },
            {
              "internalType": "bytes16",
              "name": "groupTimestamp",
              "type": "bytes16"
            },
            {
              "internalType": "uint256",
              "name": "value",
              "type": "uint256"
            },
            {
              "internalType": "enum ClaimType",
              "name": "claimType",
              "type": "ClaimType"
            },
            {
              "internalType": "bytes",
              "name": "extraData",
              "type": "bytes"
            }
          ],
          "internalType": "struct Claim",
          "name": "",
          "type": "tuple"
        }
      ],
      "stateMutability": "pure",
      "type": "function"
    },
    {
      "inputs": [
        {
          "internalType": "bytes16",
          "name": "groupId",
          "type": "bytes16"
        },
        {
          "internalType": "bytes16",
          "name": "groupTimestamp",
          "type": "bytes16"
        },
        {
          "internalType": "uint256",
          "name": "value",
          "type": "uint256"
        }
      ],
      "name": "buildClaim",
      "outputs": [
        {
          "components": [
            {
              "internalType": "bytes16",
              "name": "groupId",
              "type": "bytes16"
            },
            {
              "internalType": "bytes16",
              "name": "groupTimestamp",
              "type": "bytes16"
            },
            {
              "internalType": "uint256",
              "name": "value",
              "type": "uint256"
            },
            {
              "internalType": "enum ClaimType",
              "name": "claimType",
              "type": "ClaimType"
            },
            {
              "internalType": "bytes",
              "name": "extraData",
              "type": "bytes"
            }
          ],
          "internalType": "struct Claim",
          "name": "",
          "type": "tuple"
        }
      ],
      "stateMutability": "pure",
      "type": "function"
    },
    {
      "inputs": [
        {
          "internalType": "bytes16",
          "name": "groupId",
          "type": "bytes16"
        },
        {
          "internalType": "bytes16",
          "name": "groupTimestamp",
          "type": "bytes16"
        },
        {
          "internalType": "uint256",
          "name": "value",
          "type": "uint256"
        },
        {
          "internalType": "bytes",
          "name": "extraData",
          "type": "bytes"
        }
      ],
      "name": "buildClaim",
      "outputs": [
        {
          "components": [
            {
              "internalType": "bytes16",
              "name": "groupId",
              "type": "bytes16"
            },
            {
              "internalType": "bytes16",
              "name": "groupTimestamp",
              "type": "bytes16"
            },
            {
              "internalType": "uint256",
              "name": "value",
              "type": "uint256"
            },
            {
              "internalType": "enum ClaimType",
              "name": "claimType",
              "type": "ClaimType"
            },
            {
              "internalType": "bytes",
              "name": "extraData",
              "type": "bytes"
            }
          ],
          "internalType": "struct Claim",
          "name": "",
          "type": "tuple"
        }
      ],
      "stateMutability": "pure",
      "type": "function"
    },
    {
      "inputs": [
        {
          "internalType": "bytes16",
          "name": "groupId",
          "type": "bytes16"
        },
        {
          "internalType": "uint256",
          "name": "value",
          "type": "uint256"
        }
      ],
      "name": "buildClaim",
      "outputs": [
        {
          "components": [
            {
              "internalType": "bytes16",
              "name": "groupId",
              "type": "bytes16"
            },
            {
              "internalType": "bytes16",
              "name": "groupTimestamp",
              "type": "bytes16"
            },
            {
              "internalType": "uint256",
              "name": "value",
              "type": "uint256"
            },
            {
              "internalType": "enum ClaimType",
              "name": "claimType",
              "type": "ClaimType"
            },
            {
              "internalType": "bytes",
              "name": "extraData",
              "type": "bytes"
            }
          ],
          "internalType": "struct Claim",
          "name": "",
          "type": "tuple"
        }
      ],
      "stateMutability": "pure",
      "type": "function"
    },
    {
      "inputs": [
        {
          "internalType": "bytes16",
          "name": "groupId",
          "type": "bytes16"
        },
        {
          "internalType": "enum ClaimType",
          "name": "claimType",
          "type": "ClaimType"
        }
      ],
      "name": "buildClaim",
      "outputs": [
        {
          "components": [
            {
              "internalType": "bytes16",
              "name": "groupId",
              "type": "bytes16"
            },
            {
              "internalType": "bytes16",
              "name": "groupTimestamp",
              "type": "bytes16"
            },
            {
              "internalType": "uint256",
              "name": "value",
              "type": "uint256"
            },
            {
              "internalType": "enum ClaimType",
              "name": "claimType",
              "type": "ClaimType"
            },
            {
              "internalType": "bytes",
              "name": "extraData",
              "type": "bytes"
            }
          ],
          "internalType": "struct Claim",
          "name": "",
          "type": "tuple"
        }
      ],
      "stateMutability": "pure",
      "type": "function"
    },
    {
      "inputs": [
        {
          "internalType": "bytes16",
          "name": "groupId",
          "type": "bytes16"
        },
        {
          "internalType": "uint256",
          "name": "value",
          "type": "uint256"
        },
        {
          "internalType": "enum ClaimType",
          "name": "claimType",
          "type": "ClaimType"
        }
      ],
      "name": "buildClaim",
      "outputs": [
        {
          "components": [
            {
              "internalType": "bytes16",
              "name": "groupId",
              "type": "bytes16"
            },
            {
              "internalType": "bytes16",
              "name": "groupTimestamp",
              "type": "bytes16"
            },
            {
              "internalType": "uint256",
              "name": "value",
              "type": "uint256"
            },
            {
              "internalType": "enum ClaimType",
              "name": "claimType",
              "type": "ClaimType"
            },
            {
              "internalType": "bytes",
              "name": "extraData",
              "type": "bytes"
            }
          ],
          "internalType": "struct Claim",
          "name": "",
          "type": "tuple"
        }
      ],
      "stateMutability": "pure",
      "type": "function"
    },
    {
      "inputs": [
        {
          "components": [
            {
              "internalType": "bytes16",
              "name": "groupId",
              "type": "bytes16"
            },
            {
              "internalType": "bytes16",
              "name": "groupTimestamp",
              "type": "bytes16"
            },
            {
              "internalType": "uint256",
              "name": "value",
              "type": "uint256"
            },
            {
              "internalType": "enum ClaimType",
              "name": "claimType",
              "type": "ClaimType"
            },
            {
              "internalType": "bytes",
              "name": "extraData",
              "type": "bytes"
            }
          ],
          "internalType": "struct Claim",
          "name": "claimRequest",
          "type": "tuple"
        },
        {
          "components": [
            {
              "internalType": "enum AuthType",
              "name": "authType",
              "type": "AuthType"
            },
            {
              "internalType": "bool",
              "name": "anonMode",
              "type": "bool"
            },
            {
              "internalType": "uint256",
              "name": "userId",
              "type": "uint256"
            },
            {
              "internalType": "bytes",
              "name": "extraData",
              "type": "bytes"
            }
          ],
          "internalType": "struct Auth",
          "name": "authRequest",
          "type": "tuple"
        },
        {
          "internalType": "bytes",
          "name": "messageSignatureRequest",
          "type": "bytes"
        }
      ],
      "name": "buildRequestContent",
      "outputs": [
        {
          "components": [
            {
              "components": [
                {
                  "components": [
                    {
                      "internalType": "enum AuthType",
                      "name": "authType",
                      "type": "AuthType"
                    },
                    {
                      "internalType": "bool",
                      "name": "anonMode",
                      "type": "bool"
                    },
                    {
                      "internalType": "uint256",
                      "name": "userId",
                      "type": "uint256"
                    },
                    {
                      "internalType": "bytes",
                      "name": "extraData",
                      "type": "bytes"
                    }
                  ],
                  "internalType": "struct Auth",
                  "name": "authRequest",
                  "type": "tuple"
                },
                {
                  "components": [
                    {
                      "internalType": "bytes16",
                      "name": "groupId",
                      "type": "bytes16"
                    },
                    {
                      "internalType": "bytes16",
                      "name": "groupTimestamp",
                      "type": "bytes16"
                    },
                    {
                      "internalType": "uint256",
                      "name": "value",
                      "type": "uint256"
                    },
                    {
                      "internalType": "enum ClaimType",
                      "name": "claimType",
                      "type": "ClaimType"
                    },
                    {
                      "internalType": "bytes",
                      "name": "extraData",
                      "type": "bytes"
                    }
                  ],
                  "internalType": "struct Claim",
                  "name": "claimRequest",
                  "type": "tuple"
                },
                {
                  "internalType": "bytes",
                  "name": "messageSignatureRequest",
                  "type": "bytes"
                }
              ],
              "internalType": "struct DataRequest[]",
              "name": "dataRequests",
              "type": "tuple[]"
            },
            {
              "internalType": "enum LogicalOperator[]",
              "name": "operators",
              "type": "LogicalOperator[]"
            }
          ],
          "internalType": "struct ZkConnectRequestContent",
          "name": "",
          "type": "tuple"
        }
      ],
      "stateMutability": "pure",
      "type": "function"
    }
  ],
  "bytecode": "0x61276661003a600b82828239805160001a60731461002d57634e487b7160e01b600052600060045260246000fd5b30600052607381538281f3fe730000000000000000000000000000000000000000301460806040526004361061034c5760003560e01c80637b4c84b0116101c2578063caf2d05f1161010e578063e8ee3014116100ac578063f00aeb4111610086578063f00aeb4114610816578063f701dfbd14610836578063fa0abbdd14610856578063fc59ea231461086957600080fd5b8063e8ee3014146107cb578063eb20803d146107eb578063edefc2fc1461080357600080fd5b8063d69b2771116100e8578063d69b27711461077b578063da857e131461079b578063db5ee516146107ae578063e58329e8146107b657600080fd5b8063caf2d05f14610740578063ccbd578d14610753578063d23f57c31461077357600080fd5b8063ab04e4741161017b578063b7157c2011610155578063b7157c2014610705578063b863994d14610718578063bc878cbe14610738578063c5b3c9ae146104d757600080fd5b8063ab04e474146106bf578063ab6a74e3146106df578063ade08787146106f257600080fd5b80637b4c84b01461063357806383b858621461065357806387102a90146106665780638e95f573146106795780639c95701c1461068c578063aa0928ec1461069f57600080fd5b8063410ee7da1161029c5780635ab447351161023a5780636efff735116102145780636efff735146105cd5780637374f30c146105ed578063775864db1461060d57806377a7c7041461062057600080fd5b80635ab447351461057d5780636020052d146105905780636a1cda00146105ba57600080fd5b806355c8822a1161027657806355c8822a146104fa57806355d6de8c1461051a578063568869101461054757806358799a6a1461056757600080fd5b8063410ee7da146104a45780634786f918146104c45780634ef11c5b146104d757600080fd5b80631b399c99116103095780632fd84d3e116102e35780632fd84d3e1461046357806332457dc614610476578063353d389c1461047e57806339a5a3e81461049157600080fd5b80631b399c99146104165780632da5299e1461043d5780632eacefe61461045057600080fd5b806307651e7514610351578063096b8c2a146103875780630d8f6166146103a75780630dea9571146103c757806315091823146103da57806316b0cc5814610403575b600080fd5b81801561035d57600080fd5b5061037161036c3660046118f7565b610889565b60405161037e9190611b84565b60405180910390f35b61039a610395366004611bc1565b6108d8565b60405161037e9190611beb565b6103ba6103b5366004611bfe565b61092d565b60405161037e9190611c31565b6103ba6103d5366004611c44565b61097f565b6103ea651b185d195cdd60d21b81565b6040516001600160801b0319909116815260200161037e565b6103ba610411366004611c5f565b6109d6565b6103ea7fb8e2054f8a912367e38a22ce773328ff8aabf8082c4120bad9ef085e1dbf29a781565b6103ba61044b366004611cbc565b610a3b565b6103ba61045e366004611d09565b610aa4565b6103ba610471366004611d35565b610ade565b6103ba610b24565b6103ba61048c366004611d82565b610b73565b61039a61049f366004611dbc565b610bdc565b8180156104b057600080fd5b506103716104bf366004611dd8565b610c1e565b6103ba6104d2366004611e51565b610c5d565b6104ed6040518060200160405280600081525081565b60405161037e9190611ebf565b81801561050657600080fd5b50610371610515366004611ed2565b610cba565b81801561052657600080fd5b5061053a610535366004611f2e565b610cee565b60405161037e9190611f87565b81801561055357600080fd5b5061053a610562366004611f9a565b610d1b565b61056f600081565b60405190815260200161037e565b61039a61058b366004611fce565b610d3b565b6104ed60405180604001604052806018815260200160008051602061271183398151915281525081565b61053a6105c836600461200e565b610d7f565b8180156105d957600080fd5b5061053a6105e836600461208b565b610e82565b8180156105f957600080fd5b506103716106083660046120c1565b610ea8565b61039a61061b366004612115565b610f08565b6103ba61062e366004612151565b610f5c565b81801561063f57600080fd5b5061037161064e366004612185565b610fa6565b6103ba6106613660046121be565b610fda565b61039a6106743660046121dc565b611019565b6103ba610687366004612206565b61106d565b6103ba61069a36600461227e565b6110ca565b8180156106ab57600080fd5b5061053a6106ba3660046122aa565b611102565b8180156106cb57600080fd5b506103716106da3660046122de565b611127565b61039a6106ed366004612387565b611168565b6103ba6107003660046123b3565b6111ad565b61039a610713366004612402565b6111e5565b81801561072457600080fd5b5061037161073336600461242f565b61122b565b61039a61128b565b61039a61074e366004612466565b6112c6565b81801561075f57600080fd5b5061037161076e366004612481565b61131a565b61056f600181565b81801561078757600080fd5b506103716107963660046124c5565b6113a3565b6103ba6107a93660046124fa565b611423565b6103ea600081565b6107be600181565b60405161037e9190612516565b8180156107d757600080fd5b506103716107e6366004612524565b611462565b6107f3600081565b604051901515815260200161037e565b6103ba6108113660046125b1565b6114a8565b81801561082257600080fd5b5061053a6108313660046125db565b6114fd565b81801561084257600080fd5b50610371610851366004612634565b61153f565b6103ba61086436600461268f565b611584565b81801561087557600080fd5b506103716108843660046126c2565b6115ce565b610891611613565b604080516060810182526001600160801b0319841681526fb8e2054f8a912367e38a22ce773328ff60801b60208201529081016108ce86866114fd565b9052949350505050565b6108e0611662565b60405180608001604052808460048111156108fd576108fd61196a565b81526020016000151581526020018381526020016040518060200160405280600081525081525090505b92915050565b610935611689565b6040805160a0810182526001600160801b031980861682528416602082015260019181018290529060608201905b8152604080516020808201909252600081529101529392505050565b610987611689565b6040805160a0810182526001600160801b031984168152651b185d195cdd60d21b6020820152600191810182905290606082019081526040805160208181019092526000815291015292915050565b6109de611689565b6040518060a00160405280856001600160801b0319168152602001651b185d195cdd60d21b6001600160801b031916815260200160018152602001846006811115610a2b57610a2b61196a565b8152602001929092525092915050565b610a43611689565b6040518060a00160405280866001600160801b0319168152602001856001600160801b0319168152602001848152602001836006811115610a8657610a8661196a565b81526040805160208082019092526000815291015295945050505050565b610aac611689565b6040805160a0810182526001600160801b03198087168252851660208201526001918101829052906060820190610a2b565b610ae6611689565b506040805160a0810182526001600160801b0319939093168352651b185d195cdd60d21b602084015260019083018190526060830152608082015290565b610b2c611689565b6040805160a0810182526000808252651b185d195cdd60d21b6020830152600192820192909252906060820190815260408051602081810190925260008152910152919050565b610b7b611689565b6040518060a00160405280856001600160801b0319168152602001846001600160801b031916815260200160018152602001836006811115610bbf57610bbf61196a565b815260408051602080820190925260008152910152949350505050565b610be4611662565b6040518060800160405280846004811115610c0157610c0161196a565b815260006020820181905260408201526060019290925250919050565b610c26611613565b604080516060810182526001600160801b0319808616825284166020820152908101610c528787610e82565b905295945050505050565b610c65611689565b6040518060a00160405280866001600160801b0319168152602001856001600160801b031916815260200160018152602001846006811115610ca957610ca961196a565b815260200192909252509392505050565b610cc2611613565b604080516060810182526001600160801b0319808616825284166020820152908101610c5287876114fd565b6040805180820190915260608082526020820152610d14610d0d610b24565b8484610d7f565b9392505050565b60408051808201909152606080825260208201526109278261083161128b565b610d43611662565b6040518060800160405280856004811115610d6057610d6061196a565b8152600060208201526040810185905260600183905290509392505050565b6040805180820182526060808252602082015281516001808252818401909352909160009190816020015b610db26116b9565b815260200190600190039081610daa57905050905060405180606001604052808581526020018681526020018481525081600081518110610df557610df56126fa565b6020908102919091010152604080516001808252818301909252600091816020016020820280368337019050509050600081600081518110610e3957610e396126fa565b60200260200101906001811115610e5257610e5261196a565b90816001811115610e6557610e6561196a565b905250604080518082019091529182526020820152949350505050565b6040805180820190915260608082526020820152610d1483610ea261128b565b84610d7f565b610eb0611613565b6040518060600160405280846001600160801b0319168152602001836001600160801b03191681526020016108ce86604051806040016040528060188152602001600080516020612711833981519152815250610cee565b610f10611662565b6040518060800160405280856004811115610f2d57610f2d61196a565b815260200184151581526020018381526020016040518060200160405280600081525081525090509392505050565b610f64611689565b6040805160a0810182526001600160801b031987168152651b185d195cdd60d21b602082015290810185905260608101846006811115610ca957610ca961196a565b610fae611613565b604080516060810182526001600160801b0319808616825284166020820152908101610c528787610cee565b610fe2611689565b6040805160a0810182526001600160801b031986168152651b185d195cdd60d21b6020820152908101849052606081016001610a2b565b611021611662565b604051806080016040528084600481111561103e5761103e61196a565b815260200183151581526020016000815260200160405180602001604052806000815250815250905092915050565b611075611689565b6040518060a00160405280876001600160801b0319168152602001866001600160801b03191681526020018581526020018460068111156110b8576110b861196a565b81526020019290925250949350505050565b6110d2611689565b6040805160a0810182526001600160801b0319808716825285166020820152908101839052606081016001610bbf565b6040805180820190915260608082526020820152610927611121610b24565b836114fd565b61112f611613565b604080516060810182526001600160801b031980861682528416602082015290810161115c888888610d7f565b90529695505050505050565b611170611662565b604051806080016040528085600481111561118d5761118d61196a565b815284151560208201526000604082015260600183905290509392505050565b6111b5611689565b6040805160a0810182526001600160801b0319808816825286166020820152908101849052606081016001610ca9565b6111ed611662565b604051806080016040528086600481111561120a5761120a61196a565b81526020018515158152602001848152602001838152509050949350505050565b611233611613565b6040518060600160405280846001600160801b0319168152602001836001600160801b03191681526020016108ce86604051806040016040528060188152602001600080516020612711833981519152815250610e82565b611293611662565b50604080516080810182526000808252602080830182905282840182905283519081019093528252606081019190915290565b6112ce611662565b60405180608001604052808360048111156112eb576112eb61196a565b815260200160001515815260200160008152602001604051806020016040528060008152508152509050919050565b611322611613565b6040518060600160405280836001600160801b03191681526020017fb8e2054f8a912367e38a22ce773328ff8aabf8082c4120bad9ef085e1dbf29a76001600160801b031916815260200161139a85604051806040016040528060188152602001600080516020612711833981519152815250610e82565b90529392505050565b6113ab611613565b6040518060600160405280836001600160801b03191681526020017fb8e2054f8a912367e38a22ce773328ff8aabf8082c4120bad9ef085e1dbf29a76001600160801b031916815260200161139a85604051806040016040528060188152602001600080516020612711833981519152815250610cee565b61142b611689565b6040805160a0810182526001600160801b031985168152651b185d195cdd60d21b6020820152908101839052606081016001610963565b61146a611613565b604080516060810182526001600160801b0319841681526fb8e2054f8a912367e38a22ce773328ff60801b6020820152908101610c52878787610d7f565b6114b0611689565b6040518060a00160405280846001600160801b0319168152602001651b185d195cdd60d21b6001600160801b0319168152602001600181526020018360068111156109635761096361196a565b6040805180820190915260608082526020820152610d148383604051806040016040528060188152602001600080516020612711833981519152815250610d7f565b611547611613565b604080516060810182526001600160801b0319841681526fb8e2054f8a912367e38a22ce773328ff60801b60208201529081016108ce8686610e82565b61158c611689565b6040805160a0810182526001600160801b031986168152651b185d195cdd60d21b602082015290810184905260608101836006811115610bbf57610bbf61196a565b6115d6611613565b604080516060810182526001600160801b0319841681526fb8e2054f8a912367e38a22ce773328ff60801b60208201529081016108ce8686610cee565b604051806060016040528060006001600160801b031916815260200160006001600160801b031916815260200161165d604051806040016040528060608152602001606081525090565b905290565b60408051608081019091528060008152600060208201819052604082015260609081015290565b6040805160a0810182526000808252602082018190529181018290529060608201905b8152602001606081525090565b60405180606001604052806116cc611662565b81526020016116ac611689565b634e487b7160e01b600052604160045260246000fd5b80356001600160801b03198116811461170757600080fd5b919050565b80356007811061170757600080fd5b600082601f83011261172c57600080fd5b81356001600160401b0380821115611746576117466116d9565b604051601f8301601f19908116603f0116810190828211818310171561176e5761176e6116d9565b8160405283815286602085880101111561178757600080fd5b836020870160208301376000602085830101528094505050505092915050565b600060a082840312156117b957600080fd5b60405160a081016001600160401b0382821081831117156117dc576117dc6116d9565b816040528293506117ec856116ef565b83526117fa602086016116ef565b6020840152604085013560408401526118156060860161170c565b6060840152608085013591508082111561182e57600080fd5b5061183b8582860161171b565b6080830152505092915050565b80356005811061170757600080fd5b8035801515811461170757600080fd5b60006080828403121561187957600080fd5b604051608081016001600160401b03828210818311171561189c5761189c6116d9565b816040528293506118ac85611848565b83526118ba60208601611857565b60208401526040850135604084015260608501359150808211156118dd57600080fd5b506118ea8582860161171b565b6060830152505092915050565b60008060006060848603121561190c57600080fd5b83356001600160401b038082111561192357600080fd5b61192f878388016117a7565b9450602086013591508082111561194557600080fd5b5061195286828701611867565b925050611961604085016116ef565b90509250925092565b634e487b7160e01b600052602160045260246000fd5b6000815180845260005b818110156119a65760208185018101518683018201520161198a565b506000602082860101526020601f19601f83011685010191505092915050565b60008151600581106119da576119da61196a565b8084525060208201511515602084015260408201516040840152606082015160806060850152611a0d6080850182611980565b949350505050565b60078110611a2557611a2561196a565b9052565b60006001600160801b031980835116845280602084015116602085015250604082015160408401526060820151611a636060850182611a15565b50608082015160a06080850152611a0d60a0850182611980565b600081518084526020808501945080840160005b83811015611abd57815160028110611aab57611aab61196a565b87529582019590820190600101611a91565b509495945050505050565b600060408084018351828652818151808452606093508388019150838160051b8901016020808501945060005b83811015611b5e578a8303605f1901855285518051888552611b19898601826119c6565b90508382015185820385870152611b308282611a29565b9150508982015191508481038a860152611b4a8183611980565b978401979684019694505050600101611af5565b50808901519650898203818b015250611b778187611a7d565b9998505050505050505050565b6020815260006001600160801b0319808451166020840152806020850151166040840152506040830151606080840152611a0d6080840182611ac8565b60008060408385031215611bd457600080fd5b611bdd83611848565b946020939093013593505050565b602081526000610d1460208301846119c6565b60008060408385031215611c1157600080fd5b611c1a836116ef565b9150611c28602084016116ef565b90509250929050565b602081526000610d146020830184611a29565b600060208284031215611c5657600080fd5b610d14826116ef565b600080600060608486031215611c7457600080fd5b611c7d846116ef565b9250611c8b6020850161170c565b915060408401356001600160401b03811115611ca657600080fd5b611cb28682870161171b565b9150509250925092565b60008060008060808587031215611cd257600080fd5b611cdb856116ef565b9350611ce9602086016116ef565b925060408501359150611cfe6060860161170c565b905092959194509250565b600080600060608486031215611d1e57600080fd5b611d27846116ef565b9250611c8b602085016116ef565b60008060408385031215611d4857600080fd5b611d51836116ef565b915060208301356001600160401b03811115611d6c57600080fd5b611d788582860161171b565b9150509250929050565b600080600060608486031215611d9757600080fd5b611da0846116ef565b9250611dae602085016116ef565b91506119616040850161170c565b60008060408385031215611dcf57600080fd5b611d5183611848565b60008060008060808587031215611dee57600080fd5b84356001600160401b0380821115611e0557600080fd5b611e11888389016117a7565b95506020870135915080821115611e2757600080fd5b50611e348782880161171b565b935050611e43604086016116ef565b9150611cfe606086016116ef565b60008060008060808587031215611e6757600080fd5b611e70856116ef565b9350611e7e602086016116ef565b9250611e8c6040860161170c565b915060608501356001600160401b03811115611ea757600080fd5b611eb38782880161171b565b91505092959194509250565b602081526000610d146020830184611980565b60008060008060808587031215611ee857600080fd5b84356001600160401b0380821115611eff57600080fd5b611f0b888389016117a7565b95506020870135915080821115611f2157600080fd5b50611e3487828801611867565b60008060408385031215611f4157600080fd5b82356001600160401b0380821115611f5857600080fd5b611f6486838701611867565b93506020850135915080821115611f7a57600080fd5b50611d788582860161171b565b602081526000610d146020830184611ac8565b600060208284031215611fac57600080fd5b81356001600160401b03811115611fc257600080fd5b611a0d848285016117a7565b600080600060608486031215611fe357600080fd5b611fec84611848565b92506020840135915060408401356001600160401b03811115611ca657600080fd5b60008060006060848603121561202357600080fd5b83356001600160401b038082111561203a57600080fd5b612046878388016117a7565b9450602086013591508082111561205c57600080fd5b61206887838801611867565b9350604086013591508082111561207e57600080fd5b50611cb28682870161171b565b6000806040838503121561209e57600080fd5b82356001600160401b03808211156120b557600080fd5b611f64868387016117a7565b6000806000606084860312156120d657600080fd5b83356001600160401b038111156120ec57600080fd5b6120f886828701611867565b935050612107602085016116ef565b9150611961604085016116ef565b60008060006060848603121561212a57600080fd5b61213384611848565b925061214160208501611857565b9150604084013590509250925092565b6000806000806080858703121561216757600080fd5b612170856116ef565b935060208501359250611e8c6040860161170c565b6000806000806080858703121561219b57600080fd5b84356001600160401b03808211156121b257600080fd5b611e1188838901611867565b6000806000606084860312156121d357600080fd5b611fec846116ef565b600080604083850312156121ef57600080fd5b6121f883611848565b9150611c2860208401611857565b600080600080600060a0868803121561221e57600080fd5b612227866116ef565b9450612235602087016116ef565b93506040860135925061224a6060870161170c565b915060808601356001600160401b0381111561226557600080fd5b6122718882890161171b565b9150509295509295909350565b60008060006060848603121561229357600080fd5b61229c846116ef565b9250612141602085016116ef565b6000602082840312156122bc57600080fd5b81356001600160401b038111156122d257600080fd5b611a0d84828501611867565b600080600080600060a086880312156122f657600080fd5b85356001600160401b038082111561230d57600080fd5b61231989838a016117a7565b9650602088013591508082111561232f57600080fd5b61233b89838a01611867565b9550604088013591508082111561235157600080fd5b5061235e8882890161171b565b93505061236d606087016116ef565b915061237b608087016116ef565b90509295509295909350565b60008060006060848603121561239c57600080fd5b6123a584611848565b9250611c8b60208501611857565b600080600080608085870312156123c957600080fd5b6123d2856116ef565b93506123e0602086016116ef565b92506040850135915060608501356001600160401b03811115611ea757600080fd5b6000806000806080858703121561241857600080fd5b61242185611848565b93506123e060208601611857565b60008060006060848603121561244457600080fd5b83356001600160401b0381111561245a57600080fd5b6120f8868287016117a7565b60006020828403121561247857600080fd5b610d1482611848565b6000806040838503121561249457600080fd5b82356001600160401b038111156124aa57600080fd5b6124b6858286016117a7565b925050611c28602084016116ef565b600080604083850312156124d857600080fd5b82356001600160401b038111156124ee57600080fd5b6124b685828601611867565b6000806040838503121561250d57600080fd5b611bdd836116ef565b602081016109278284611a15565b6000806000806080858703121561253a57600080fd5b84356001600160401b038082111561255157600080fd5b61255d888389016117a7565b9550602087013591508082111561257357600080fd5b61257f88838901611867565b9450604087013591508082111561259557600080fd5b506125a28782880161171b565b925050611cfe606086016116ef565b600080604083850312156125c457600080fd5b6125cd836116ef565b9150611c286020840161170c565b600080604083850312156125ee57600080fd5b82356001600160401b038082111561260557600080fd5b612611868387016117a7565b9350602085013591508082111561262757600080fd5b50611d7885828601611867565b60008060006060848603121561264957600080fd5b83356001600160401b038082111561266057600080fd5b61266c878388016117a7565b9450602086013591508082111561268257600080fd5b506119528682870161171b565b6000806000606084860312156126a457600080fd5b6126ad846116ef565b9250602084013591506119616040850161170c565b6000806000606084860312156126d757600080fd5b83356001600160401b03808211156126ee57600080fd5b61266c87838801611867565b634e487b7160e01b600052603260045260246000fdfe4d4553534147455f53454c45435445445f42595f555345520000000000000000a2646970667358221220f02a10f6f5c1ddee2c684956a5b7452c5ab90df698ace80ebb496aaa1828f1f864736f6c63430008110033",
  "linkReferences": {},
  "deployedLinkReferences": {}
}