{
  "_format": "hh-sol-artifact-1",
  "contractName": "Receiver",
  "sourceName": "contracts/Receiver.sol",
  "abi": [
    {
      "anonymous": false,
      "inputs": [
        {
          "indexed": false,
          "internalType": "address",
          "name": "promotionNFTAddress",
          "type": "address"
        }
      ],
      "name": "PromotionNFTDeployed",
      "type": "event"
    },
    {
      "anonymous": false,
      "inputs": [
        {
          "indexed": false,
          "internalType": "address",
          "name": "contractAddress",
          "type": "address"
        },
        {
          "indexed": false,
          "internalType": "address",
          "name": "creator",
          "type": "address"
        },
        {
          "indexed": false,
          "internalType": "string",
          "name": "newURI",
          "type": "string"
        }
      ],
      "name": "TokenURIChanged",
      "type": "event"
    },
    {
      "inputs": [],
      "name": "MAILBOX_ADDRESS",
      "outputs": [
        {
          "internalType": "address",
          "name": "",
          "type": "address"
        }
      ],
      "stateMutability": "view",
      "type": "function"
    },
    {
      "inputs": [
        {
          "internalType": "bytes32",
          "name": "_bytes32",
          "type": "bytes32"
        }
      ],
      "name": "bytes32ToString",
      "outputs": [
        {
          "internalType": "string",
          "name": "",
          "type": "string"
        }
      ],
      "stateMutability": "pure",
      "type": "function"
    },
    {
      "inputs": [
        {
          "internalType": "address",
          "name": "contractAddress",
          "type": "address"
        },
        {
          "internalType": "string",
          "name": "newURI",
          "type": "string"
        }
      ],
      "name": "changeTokenURI",
      "outputs": [],
      "stateMutability": "nonpayable",
      "type": "function"
    },
    {
      "inputs": [
        {
          "internalType": "address",
          "name": "",
          "type": "address"
        }
      ],
      "name": "deploymentCreator",
      "outputs": [
        {
          "internalType": "address",
          "name": "",
          "type": "address"
        }
      ],
      "stateMutability": "view",
      "type": "function"
    },
    {
      "inputs": [
        {
          "internalType": "address",
          "name": "promoter",
          "type": "address"
        }
      ],
      "name": "getLatestPromotionDeployment",
      "outputs": [
        {
          "internalType": "address",
          "name": "",
          "type": "address"
        }
      ],
      "stateMutability": "view",
      "type": "function"
    },
    {
      "inputs": [
        {
          "internalType": "uint32",
          "name": "_origin",
          "type": "uint32"
        },
        {
          "internalType": "bytes32",
          "name": "_sender",
          "type": "bytes32"
        },
        {
          "internalType": "bytes",
          "name": "_body",
          "type": "bytes"
        }
      ],
      "name": "handle",
      "outputs": [],
      "stateMutability": "nonpayable",
      "type": "function"
    },
    {
      "inputs": [
        {
          "internalType": "address",
          "name": "",
          "type": "address"
        }
      ],
      "name": "latestPromotionDeployment",
      "outputs": [
        {
          "internalType": "address",
          "name": "",
          "type": "address"
        }
      ],
      "stateMutability": "view",
      "type": "function"
    }
  ],
  "bytecode": "0x608060405234801561001057600080fd5b50612952806100206000396000f3fe60806040523480156200001157600080fd5b5060043610620000875760003560e01c80639201de5511620000625780639201de55146200011a57806397eb01131462000140578063b85ec505146200016f578063c1c253a9146200018b57600080fd5b80632b951aa3146200008c57806356d5d47514620000d55780637d45933b14620000ee575b600080fd5b620000b86200009d366004620004f2565b6000602081905290815260409020546001600160a01b031681565b6040516001600160a01b0390911681526020015b60405180910390f35b620000ec620000e63660046200055e565b620001a2565b005b620000b8620000ff366004620004f2565b6001602052600090815260409020546001600160a01b031681565b620001316200012b366004620005c8565b62000278565b604051620000cc91906200062a565b620000b862000151366004620004f2565b6001600160a01b039081166000908152602081905260409020541690565b620000b873cc737a94fecaec165abcf12ded095bb13f03768581565b620000ec6200019c3660046200063f565b620003c9565b3373cc737a94fecaec165abcf12ded095bb13f03768514620001c357600080fd5b60008080808080620001d88789018962000745565b9550955095509550955095506000818787878787604051620001fa90620004cb565b6200020a959493929190620007fe565b8190604051809103906000f59050801580156200022b573d6000803e3d6000fd5b506040516001600160a01b03821681529091507f1b71783b8dedd09b09a23e4631acfd5d04520f7e3c3c9ff1a7fa55aa32834ed29060200160405180910390a15050505050505050505050565b606060005b60208160ff16108015620002b55750828160ff1660208110620002a457620002a46200085b565b1a60f81b6001600160f81b03191615155b15620002d05780620002c78162000871565b9150506200027d565b60008160ff1667ffffffffffffffff811115620002f157620002f16200069a565b6040519080825280601f01601f1916602001820160405280156200031c576020820181803683370190505b509050600091505b60208260ff161080156200035c5750838260ff16602081106200034b576200034b6200085b565b1a60f81b6001600160f81b03191615155b15620003c257838260ff16602081106200037a576200037a6200085b565b1a60f81b818360ff16815181106200039657620003966200085b565b60200101906001600160f81b031916908160001a90535081620003b98162000871565b92505062000324565b9392505050565b6001600160a01b03838116600090815260016020526040902054163314620004235760405162461bcd60e51b8152602060048201526009602482015268139bdd081bdddb995960ba1b604482015260640160405180910390fd5b60405163e0df5b6f60e01b81526001600160a01b0384169063e0df5b6f90620004539085908590600401620008c8565b600060405180830381600087803b1580156200046e57600080fd5b505af115801562000483573d6000803e3d6000fd5b505050507f4c76bac06cb8c6c3a184c7ca049a43e32e126ecccc406b612f103653d9cb071783338484604051620004be9493929190620008e6565b60405180910390a1505050565b611ffd806200092083390190565b6001600160a01b0381168114620004ef57600080fd5b50565b6000602082840312156200050557600080fd5b8135620003c281620004d9565b60008083601f8401126200052557600080fd5b50813567ffffffffffffffff8111156200053e57600080fd5b6020830191508360208285010111156200055757600080fd5b9250929050565b600080600080606085870312156200057557600080fd5b843563ffffffff811681146200058a57600080fd5b935060208501359250604085013567ffffffffffffffff811115620005ae57600080fd5b620005bc8782880162000512565b95989497509550505050565b600060208284031215620005db57600080fd5b5035919050565b6000815180845260005b818110156200060a57602081850181015186830182015201620005ec565b506000602082860101526020601f19601f83011685010191505092915050565b602081526000620003c26020830184620005e2565b6000806000604084860312156200065557600080fd5b83356200066281620004d9565b9250602084013567ffffffffffffffff8111156200067f57600080fd5b6200068d8682870162000512565b9497909650939450505050565b634e487b7160e01b600052604160045260246000fd5b600082601f830112620006c257600080fd5b813567ffffffffffffffff80821115620006e057620006e06200069a565b604051601f8301601f19908116603f011681019082821181831017156200070b576200070b6200069a565b816040528381528660208588010111156200072557600080fd5b836020870160208301376000602085830101528094505050505092915050565b60008060008060008060c087890312156200075f57600080fd5b863567ffffffffffffffff808211156200077857600080fd5b620007868a838b01620006b0565b975060208901359150808211156200079d57600080fd5b620007ab8a838b01620006b0565b96506040890135915080821115620007c257600080fd5b50620007d189828a01620006b0565b9450506060870135620007e481620004d9565b9598949750929560808101359460a0909101359350915050565b60a0815260006200081360a0830188620005e2565b8281036020840152620008278188620005e2565b905082810360408401526200083d8187620005e2565b6001600160a01b039590951660608401525050608001529392505050565b634e487b7160e01b600052603260045260246000fd5b600060ff821660ff81036200089657634e487b7160e01b600052601160045260246000fd5b60010192915050565b81835281816020850137506000828201602090810191909152601f909101601f19169091010190565b602081526000620008de6020830184866200089f565b949350505050565b6001600160a01b038581168252841660208201526060604082018190526000906200091590830184866200089f565b969550505050505056fe60806040523480156200001157600080fd5b5060405162001ffd38038062001ffd8339810160408190526200003491620001c7565b8484600062000044838262000315565b50600162000053828262000315565b505050620000706200006a620000ac60201b60201c565b620000b0565b60096200007e848262000315565b50600a55600c80546001600160a01b0319166001600160a01b039290921691909117905550620003e1915050565b3390565b600780546001600160a01b038381166001600160a01b0319831681179093556040519116919082907f8be0079c531659141344cd1fd0a4f28419497f9722a3daafe3b4186f6b6457e090600090a35050565b634e487b7160e01b600052604160045260246000fd5b600082601f8301126200012a57600080fd5b81516001600160401b038082111562000147576200014762000102565b604051601f8301601f19908116603f0116810190828211818310171562000172576200017262000102565b816040528381526020925086838588010111156200018f57600080fd5b600091505b83821015620001b3578582018301518183018401529082019062000194565b600093810190920192909252949350505050565b600080600080600060a08688031215620001e057600080fd5b85516001600160401b0380821115620001f857600080fd5b6200020689838a0162000118565b965060208801519150808211156200021d57600080fd5b6200022b89838a0162000118565b955060408801519150808211156200024257600080fd5b50620002518882890162000118565b606088015190945090506001600160a01b03811681146200027157600080fd5b80925050608086015190509295509295909350565b600181811c908216806200029b57607f821691505b602082108103620002bc57634e487b7160e01b600052602260045260246000fd5b50919050565b601f8211156200031057600081815260208120601f850160051c81016020861015620002eb5750805b601f850160051c820191505b818110156200030c57828155600101620002f7565b5050505b505050565b81516001600160401b0381111562000331576200033162000102565b620003498162000342845462000286565b84620002c2565b602080601f831160018114620003815760008415620003685750858301515b600019600386901b1c1916600185901b1785556200030c565b600085815260208120601f198616915b82811015620003b25788860151825594840194600190910190840162000391565b5085821015620003d15787850151600019600388901b60f8161c191681555b5050505050600190811b01905550565b611c0c80620003f16000396000f3fe608060405234801561001057600080fd5b50600436106101425760003560e01c8063715018a6116100b8578063b85ec5051161007c578063b85ec50514610289578063b88d4fde146102a4578063c87b56dd146102b7578063e0df5b6f146102ca578063e985e9c5146102dd578063f2fde38b146102f057600080fd5b8063715018a61461024c5780638da5cb5b1461025457806395d89b4114610265578063a22cb4651461026d578063b212ba9f1461028057600080fd5b806342842e0e1161010a57806342842e0e146101d75780634f8aaac6146101ea57806356d5d475146101f25780636352211e146102055780636769a0c41461021857806370a082311461022b57600080fd5b806301ffc9a71461014757806306fdde031461016f578063081812fc14610184578063095ea7b3146101af57806323b872dd146101c4575b600080fd5b61015a6101553660046115c2565b610303565b60405190151581526020015b60405180910390f35b610177610355565b604051610166919061162f565b610197610192366004611642565b6103e7565b6040516001600160a01b039091168152602001610166565b6101c26101bd366004611670565b61040e565b005b6101c26101d236600461169c565b610528565b6101c26101e536600461169c565b610562565b61017761057d565b6101c26102003660046116dd565b61060b565b610197610213366004611642565b6106d2565b600c54610197906001600160a01b031681565b61023e61023936600461176f565b610732565b604051908152602001610166565b6101c26107b8565b6007546001600160a01b0316610197565b6101776107cc565b6101c261027b36600461178c565b6107db565b61023e600a5481565b61019773cc737a94fecaec165abcf12ded095bb13f03768581565b6101c26102b2366004611856565b6107ea565b6101776102c5366004611642565b610868565b6101c26102d83660046118d6565b610873565b61015a6102eb36600461191f565b610887565b6101c26102fe36600461176f565b6108b5565b60006001600160e01b031982166380ac58cd60e01b148061033457506001600160e01b03198216635b5e139f60e01b145b8061034f57506301ffc9a760e01b6001600160e01b03198316145b92915050565b6060600080546103649061194d565b80601f01602080910402602001604051908101604052809291908181526020018280546103909061194d565b80156103dd5780601f106103b2576101008083540402835291602001916103dd565b820191906000526020600020905b8154815290600101906020018083116103c057829003601f168201915b5050505050905090565b60006103f28261092e565b506000908152600460205260409020546001600160a01b031690565b6000610419826106d2565b9050806001600160a01b0316836001600160a01b03160361048b5760405162461bcd60e51b815260206004820152602160248201527f4552433732313a20617070726f76616c20746f2063757272656e74206f776e656044820152603960f91b60648201526084015b60405180910390fd5b336001600160a01b03821614806104a757506104a78133610887565b6105195760405162461bcd60e51b815260206004820152603d60248201527f4552433732313a20617070726f76652063616c6c6572206973206e6f7420746f60448201527f6b656e206f776e6572206f7220617070726f76656420666f7220616c6c0000006064820152608401610482565b610523838361098d565b505050565b60405162461bcd60e51b815260206004820152600f60248201526e21b0b73737ba103a3930b739b332b960891b6044820152606401610482565b610523838383604051806020016040528060008152506107ea565b6009805461058a9061194d565b80601f01602080910402602001604051908101604052809291908181526020018280546105b69061194d565b80156106035780601f106105d857610100808354040283529160200191610603565b820191906000526020600020905b8154815290600101906020018083116105e657829003601f168201915b505050505081565b3373cc737a94fecaec165abcf12ded095bb13f0376851461062b57600080fd5b60006106398284018461176f565b6001600160a01b0381166000908152600b60205260408120549192500361066857610663816109fb565b6106cb565b600a546001600160a01b0382166000908152600b6020526040902054106106c25760405162461bcd60e51b815260206004820152600e60248201526d4e6f206d6f726520636c61696d7360901b6044820152606401610482565b6106cb81610b67565b5050505050565b6000818152600260205260408120546001600160a01b03168061034f5760405162461bcd60e51b8152602060048201526018602482015277115490cdcc8c4e881a5b9d985b1a59081d1bdad95b88125160421b6044820152606401610482565b60006001600160a01b03821661079c5760405162461bcd60e51b815260206004820152602960248201527f4552433732313a2061646472657373207a65726f206973206e6f7420612076616044820152683634b21037bbb732b960b91b6064820152608401610482565b506001600160a01b031660009081526003602052604090205490565b6107c0610be9565b6107ca6000610c43565b565b6060600180546103649061194d565b6107e6338383610c95565b5050565b6107f43383610d63565b6108565760405162461bcd60e51b815260206004820152602d60248201527f4552433732313a2063616c6c6572206973206e6f7420746f6b656e206f776e6560448201526c1c881bdc88185c1c1c9bdd9959609a1b6064820152608401610482565b61086284848484610dc2565b50505050565b606061034f82610df5565b61087b610be9565b60096107e682826119d5565b6001600160a01b03918216600090815260056020908152604080832093909416825291909152205460ff1690565b6108bd610be9565b6001600160a01b0381166109225760405162461bcd60e51b815260206004820152602660248201527f4f776e61626c653a206e6577206f776e657220697320746865207a65726f206160448201526564647265737360d01b6064820152608401610482565b61092b81610c43565b50565b6000818152600260205260409020546001600160a01b031661092b5760405162461bcd60e51b8152602060048201526018602482015277115490cdcc8c4e881a5b9d985b1a59081d1bdad95b88125160421b6044820152606401610482565b600081815260046020526040902080546001600160a01b0319166001600160a01b03841690811790915581906109c2826106d2565b6001600160a01b03167f8c5be1e5ebec7d5bd14f71427d1e84f3dd0314c0f7b2291e5b200ac8c7c3b92560405160405180910390a45050565b6001600160a01b0381166000908152600b602052604090205415610a545760405162461bcd60e51b815260206004820152601060248201526f105b1c9958591e481bdddb9cc813919560821b6044820152606401610482565b6000610a5f60085490565b9050610a6f600880546001019055565b610a798282610efd565b610b0d8160098054610a8a9061194d565b80601f0160208091040260200160405190810160405280929190818152602001828054610ab69061194d565b8015610b035780601f10610ad857610100808354040283529160200191610b03565b820191906000526020600020905b815481529060010190602001808311610ae657829003601f168201915b5050505050610f17565b6001600160a01b0382166000818152600b60209081526040918290206001908190558251938452908301527f2ace47925ca5e5683eb2c2eab99a115e60455cbfbe81a22bceb46f3399846c64910160405180910390a15050565b6001600160a01b0381166000908152600b60205260408120805460019290610b90908490611a95565b90915550506001600160a01b0381166000818152600b6020908152604091829020548251938452908301527f2ace47925ca5e5683eb2c2eab99a115e60455cbfbe81a22bceb46f3399846c64910160405180910390a150565b6007546001600160a01b031633146107ca5760405162461bcd60e51b815260206004820181905260248201527f4f776e61626c653a2063616c6c6572206973206e6f7420746865206f776e65726044820152606401610482565b600780546001600160a01b038381166001600160a01b0319831681179093556040519116919082907f8be0079c531659141344cd1fd0a4f28419497f9722a3daafe3b4186f6b6457e090600090a35050565b816001600160a01b0316836001600160a01b031603610cf65760405162461bcd60e51b815260206004820152601960248201527f4552433732313a20617070726f766520746f2063616c6c6572000000000000006044820152606401610482565b6001600160a01b03838116600081815260056020908152604080832094871680845294825291829020805460ff191686151590811790915591519182527f17307eab39ab6107e8899845ad3d59bd9653f200f220920489ca2b5937696c31910160405180910390a3505050565b600080610d6f836106d2565b9050806001600160a01b0316846001600160a01b03161480610d965750610d968185610887565b80610dba5750836001600160a01b0316610daf846103e7565b6001600160a01b0316145b949350505050565b610dcd848484610faa565b610dd98484848461110e565b6108625760405162461bcd60e51b815260040161048290611ab6565b6060610e008261092e565b60008281526006602052604081208054610e199061194d565b80601f0160208091040260200160405190810160405280929190818152602001828054610e459061194d565b8015610e925780601f10610e6757610100808354040283529160200191610e92565b820191906000526020600020905b815481529060010190602001808311610e7557829003601f168201915b505050505090506000610eb060408051602081019091526000815290565b90508051600003610ec2575092915050565b815115610ef4578082604051602001610edc929190611b08565b60405160208183030381529060405292505050919050565b610dba8461120f565b6107e6828260405180602001604052806000815250611283565b6000828152600260205260409020546001600160a01b0316610f925760405162461bcd60e51b815260206004820152602e60248201527f45524337323155524953746f726167653a2055524920736574206f66206e6f6e60448201526d32bc34b9ba32b73a103a37b5b2b760911b6064820152608401610482565b600082815260066020526040902061052382826119d5565b826001600160a01b0316610fbd826106d2565b6001600160a01b031614610fe35760405162461bcd60e51b815260040161048290611b37565b6001600160a01b0382166110455760405162461bcd60e51b8152602060048201526024808201527f4552433732313a207472616e7366657220746f20746865207a65726f206164646044820152637265737360e01b6064820152608401610482565b826001600160a01b0316611058826106d2565b6001600160a01b03161461107e5760405162461bcd60e51b815260040161048290611b37565b600081815260046020908152604080832080546001600160a01b03199081169091556001600160a01b0387811680865260038552838620805460001901905590871680865283862080546001019055868652600290945282852080549092168417909155905184937fddf252ad1be2c89b69c2b068fc378daa952ba7f163c4a11628f55a4df523b3ef91a4505050565b60006001600160a01b0384163b1561120457604051630a85bd0160e11b81526001600160a01b0385169063150b7a0290611152903390899088908890600401611b7c565b6020604051808303816000875af192505050801561118d575060408051601f3d908101601f1916820190925261118a91810190611bb9565b60015b6111ea573d8080156111bb576040519150601f19603f3d011682016040523d82523d6000602084013e6111c0565b606091505b5080516000036111e25760405162461bcd60e51b815260040161048290611ab6565b805181602001fd5b6001600160e01b031916630a85bd0160e11b149050610dba565b506001949350505050565b606061121a8261092e565b600061123160408051602081019091526000815290565b90506000815111611251576040518060200160405280600081525061127c565b8061125b846112b6565b60405160200161126c929190611b08565b6040516020818303038152906040525b9392505050565b61128d8383611349565b61129a600084848461110e565b6105235760405162461bcd60e51b815260040161048290611ab6565b606060006112c3836114d4565b600101905060008167ffffffffffffffff8111156112e3576112e36117ca565b6040519080825280601f01601f19166020018201604052801561130d576020820181803683370190505b5090508181016020015b600019016f181899199a1a9b1b9c1cb0b131b232b360811b600a86061a8153600a850494508461131757509392505050565b6001600160a01b03821661139f5760405162461bcd60e51b815260206004820181905260248201527f4552433732313a206d696e7420746f20746865207a65726f20616464726573736044820152606401610482565b6000818152600260205260409020546001600160a01b0316156114045760405162461bcd60e51b815260206004820152601c60248201527f4552433732313a20746f6b656e20616c7265616479206d696e746564000000006044820152606401610482565b6000818152600260205260409020546001600160a01b0316156114695760405162461bcd60e51b815260206004820152601c60248201527f4552433732313a20746f6b656e20616c7265616479206d696e746564000000006044820152606401610482565b6001600160a01b038216600081815260036020908152604080832080546001019055848352600290915280822080546001600160a01b0319168417905551839291907fddf252ad1be2c89b69c2b068fc378daa952ba7f163c4a11628f55a4df523b3ef908290a45050565b60008072184f03e93ff9f4daa797ed6e38ed64bf6a1f0160401b83106115135772184f03e93ff9f4daa797ed6e38ed64bf6a1f0160401b830492506040015b6d04ee2d6d415b85acef8100000000831061153f576d04ee2d6d415b85acef8100000000830492506020015b662386f26fc10000831061155d57662386f26fc10000830492506010015b6305f5e1008310611575576305f5e100830492506008015b612710831061158957612710830492506004015b6064831061159b576064830492506002015b600a831061034f5760010192915050565b6001600160e01b03198116811461092b57600080fd5b6000602082840312156115d457600080fd5b813561127c816115ac565b60005b838110156115fa5781810151838201526020016115e2565b50506000910152565b6000815180845261161b8160208601602086016115df565b601f01601f19169290920160200192915050565b60208152600061127c6020830184611603565b60006020828403121561165457600080fd5b5035919050565b6001600160a01b038116811461092b57600080fd5b6000806040838503121561168357600080fd5b823561168e8161165b565b946020939093013593505050565b6000806000606084860312156116b157600080fd5b83356116bc8161165b565b925060208401356116cc8161165b565b929592945050506040919091013590565b600080600080606085870312156116f357600080fd5b843563ffffffff8116811461170757600080fd5b935060208501359250604085013567ffffffffffffffff8082111561172b57600080fd5b818701915087601f83011261173f57600080fd5b81358181111561174e57600080fd5b88602082850101111561176057600080fd5b95989497505060200194505050565b60006020828403121561178157600080fd5b813561127c8161165b565b6000806040838503121561179f57600080fd5b82356117aa8161165b565b9150602083013580151581146117bf57600080fd5b809150509250929050565b634e487b7160e01b600052604160045260246000fd5b600067ffffffffffffffff808411156117fb576117fb6117ca565b604051601f8501601f19908116603f01168101908282118183101715611823576118236117ca565b8160405280935085815286868601111561183c57600080fd5b858560208301376000602087830101525050509392505050565b6000806000806080858703121561186c57600080fd5b84356118778161165b565b935060208501356118878161165b565b925060408501359150606085013567ffffffffffffffff8111156118aa57600080fd5b8501601f810187136118bb57600080fd5b6118ca878235602084016117e0565b91505092959194509250565b6000602082840312156118e857600080fd5b813567ffffffffffffffff8111156118ff57600080fd5b8201601f8101841361191057600080fd5b610dba848235602084016117e0565b6000806040838503121561193257600080fd5b823561193d8161165b565b915060208301356117bf8161165b565b600181811c9082168061196157607f821691505b60208210810361198157634e487b7160e01b600052602260045260246000fd5b50919050565b601f82111561052357600081815260208120601f850160051c810160208610156119ae5750805b601f850160051c820191505b818110156119cd578281556001016119ba565b505050505050565b815167ffffffffffffffff8111156119ef576119ef6117ca565b611a03816119fd845461194d565b84611987565b602080601f831160018114611a385760008415611a205750858301515b600019600386901b1c1916600185901b1785556119cd565b600085815260208120601f198616915b82811015611a6757888601518255948401946001909101908401611a48565b5085821015611a855787850151600019600388901b60f8161c191681555b5050505050600190811b01905550565b8082018082111561034f57634e487b7160e01b600052601160045260246000fd5b60208082526032908201527f4552433732313a207472616e7366657220746f206e6f6e20455243373231526560408201527131b2b4bb32b91034b6b83632b6b2b73a32b960711b606082015260800190565b60008351611b1a8184602088016115df565b835190830190611b2e8183602088016115df565b01949350505050565b60208082526025908201527f4552433732313a207472616e736665722066726f6d20696e636f72726563742060408201526437bbb732b960d91b606082015260800190565b6001600160a01b0385811682528416602082015260408101839052608060608201819052600090611baf90830184611603565b9695505050505050565b600060208284031215611bcb57600080fd5b815161127c816115ac56fea2646970667358221220aa1d8fdfc8234cd3ebc2eb0fa128ec3c0faf1581719e2ab7828b29e2bce5745d64736f6c63430008110033a264697066735822122018ea243e4b1494c3c7adb88eadd94f5025d71fef354deb0ab21ce1b48f81077164736f6c63430008110033",
  "linkReferences": {},
  "deployedLinkReferences": {}
}