{
  "_format": "hh-sol-artifact-1",
  "contractName": "HydraS2Verifier",
  "sourceName": "contracts/lib/verifiers/HydraS2Verifier.sol",
  "abi": [
    {
      "inputs": [
        {
          "internalType": "address",
          "name": "commitmentMapperRegistry",
          "type": "address"
        },
        {
          "internalType": "address",
          "name": "availableRootsRegistry",
          "type": "address"
        }
      ],
      "stateMutability": "nonpayable",
      "type": "constructor"
    },
    {
      "inputs": [
        {
          "internalType": "uint256",
          "name": "accountsTreeValueFromProof",
          "type": "uint256"
        },
        {
          "internalType": "uint256",
          "name": "expectedAccountsTreeValue",
          "type": "uint256"
        }
      ],
      "name": "AccountsTreeValueMismatch",
      "type": "error"
    },
    {
      "inputs": [],
      "name": "AnonModeIsNotYetSupported",
      "type": "error"
    },
    {
      "inputs": [
        {
          "internalType": "uint256",
          "name": "claimTypeFromProof",
          "type": "uint256"
        },
        {
          "internalType": "uint256",
          "name": "expectedClaimType",
          "type": "uint256"
        }
      ],
      "name": "ClaimTypeMismatch",
      "type": "error"
    },
    {
      "inputs": [],
      "name": "ClaimValueMismatch",
      "type": "error"
    },
    {
      "inputs": [
        {
          "internalType": "uint256",
          "name": "expectedX",
          "type": "uint256"
        },
        {
          "internalType": "uint256",
          "name": "expectedY",
          "type": "uint256"
        },
        {
          "internalType": "uint256",
          "name": "inputX",
          "type": "uint256"
        },
        {
          "internalType": "uint256",
          "name": "inputY",
          "type": "uint256"
        }
      ],
      "name": "CommitmentMapperPubKeyMismatch",
      "type": "error"
    },
    {
      "inputs": [
        {
          "internalType": "address",
          "name": "destinationFromProof",
          "type": "address"
        },
        {
          "internalType": "address",
          "name": "expectedDestination",
          "type": "address"
        }
      ],
      "name": "DestinationMismatch",
      "type": "error"
    },
    {
      "inputs": [],
      "name": "DestinationVerificationNotEnabled",
      "type": "error"
    },
    {
      "inputs": [
        {
          "internalType": "bytes32",
          "name": "extraDataFromProof",
          "type": "bytes32"
        },
        {
          "internalType": "bytes32",
          "name": "expectedExtraData",
          "type": "bytes32"
        }
      ],
      "name": "InvalidExtraData",
      "type": "error"
    },
    {
      "inputs": [],
      "name": "InvalidProof",
      "type": "error"
    },
    {
      "inputs": [
        {
          "internalType": "bytes32",
          "name": "version",
          "type": "bytes32"
        }
      ],
      "name": "InvalidVersion",
      "type": "error"
    },
    {
      "inputs": [
        {
          "internalType": "uint256",
          "name": "inputRoot",
          "type": "uint256"
        }
      ],
      "name": "RegistryRootNotAvailable",
      "type": "error"
    },
    {
      "inputs": [
        {
          "internalType": "uint256",
          "name": "requestIdentifierFromProof",
          "type": "uint256"
        },
        {
          "internalType": "uint256",
          "name": "expectedRequestIdentifier",
          "type": "uint256"
        }
      ],
      "name": "RequestIdentifierMismatch",
      "type": "error"
    },
    {
      "inputs": [],
      "name": "SourceVerificationNotEnabled",
      "type": "error"
    },
    {
      "inputs": [
        {
          "internalType": "bytes16",
          "name": "appIdFromProof",
          "type": "bytes16"
        },
        {
          "internalType": "bytes16",
          "name": "expectedAppId",
          "type": "bytes16"
        }
      ],
      "name": "VaultNamespaceMismatch",
      "type": "error"
    },
    {
      "anonymous": false,
      "inputs": [
        {
          "indexed": false,
          "internalType": "uint8",
          "name": "version",
          "type": "uint8"
        }
      ],
      "name": "Initialized",
      "type": "event"
    },
    {
      "inputs": [],
      "name": "AVAILABLE_ROOTS_REGISTRY",
      "outputs": [
        {
          "internalType": "contract IAvailableRootsRegistry",
          "name": "",
          "type": "address"
        }
      ],
      "stateMutability": "view",
      "type": "function"
    },
    {
      "inputs": [],
      "name": "COMMITMENT_MAPPER_REGISTRY",
      "outputs": [
        {
          "internalType": "contract ICommitmentMapperRegistry",
          "name": "",
          "type": "address"
        }
      ],
      "stateMutability": "view",
      "type": "function"
    },
    {
      "inputs": [],
      "name": "HYDRA_S2_VERSION",
      "outputs": [
        {
          "internalType": "bytes32",
          "name": "",
          "type": "bytes32"
        }
      ],
      "stateMutability": "view",
      "type": "function"
    },
    {
      "inputs": [],
      "name": "IMPLEMENTATION_VERSION",
      "outputs": [
        {
          "internalType": "uint8",
          "name": "",
          "type": "uint8"
        }
      ],
      "stateMutability": "view",
      "type": "function"
    },
    {
      "inputs": [],
      "name": "initialize",
      "outputs": [],
      "stateMutability": "nonpayable",
      "type": "function"
    },
    {
      "inputs": [
        {
          "internalType": "bytes16",
          "name": "appId",
          "type": "bytes16"
        },
        {
          "internalType": "bytes16",
          "name": "namespace",
          "type": "bytes16"
        },
        {
          "components": [
            {
              "components": [
                {
                  "internalType": "bytes16",
                  "name": "groupId",
                  "type": "bytes16"
                },
                {
                  "internalType": "bytes16",
                  "name": "groupTimestamp",
                  "type": "bytes16"
                },
                {
                  "internalType": "uint256",
                  "name": "value",
                  "type": "uint256"
                },
                {
                  "internalType": "enum ClaimType",
                  "name": "claimType",
                  "type": "uint8"
                },
                {
                  "internalType": "bytes",
                  "name": "extraData",
                  "type": "bytes"
                }
              ],
              "internalType": "struct Claim",
              "name": "claim",
              "type": "tuple"
            },
            {
              "components": [
                {
                  "internalType": "enum AuthType",
                  "name": "authType",
                  "type": "uint8"
                },
                {
                  "internalType": "bool",
                  "name": "anonMode",
                  "type": "bool"
                },
                {
                  "internalType": "uint256",
                  "name": "userId",
                  "type": "uint256"
                },
                {
                  "internalType": "bytes",
                  "name": "extraData",
                  "type": "bytes"
                }
              ],
              "internalType": "struct Auth",
              "name": "auth",
              "type": "tuple"
            },
            {
              "internalType": "bytes",
              "name": "signedMessage",
              "type": "bytes"
            },
            {
              "internalType": "bytes32",
              "name": "provingScheme",
              "type": "bytes32"
            },
            {
              "internalType": "bytes",
              "name": "proofData",
              "type": "bytes"
            },
            {
              "internalType": "bytes",
              "name": "extraData",
              "type": "bytes"
            }
          ],
          "internalType": "struct ZkConnectProof",
          "name": "zkConnectProof",
          "type": "tuple"
        }
      ],
      "name": "verify",
      "outputs": [
        {
          "components": [
            {
              "internalType": "enum AuthType",
              "name": "authType",
              "type": "uint8"
            },
            {
              "internalType": "bool",
              "name": "anonMode",
              "type": "bool"
            },
            {
              "internalType": "uint256",
              "name": "userId",
              "type": "uint256"
            },
            {
              "internalType": "bytes",
              "name": "extraData",
              "type": "bytes"
            },
            {
              "internalType": "uint256",
              "name": "proofId",
              "type": "uint256"
            }
          ],
          "internalType": "struct VerifiedAuth",
          "name": "",
          "type": "tuple"
        },
        {
          "components": [
            {
              "internalType": "bytes16",
              "name": "groupId",
              "type": "bytes16"
            },
            {
              "internalType": "bytes16",
              "name": "groupTimestamp",
              "type": "bytes16"
            },
            {
              "internalType": "enum ClaimType",
              "name": "claimType",
              "type": "uint8"
            },
            {
              "internalType": "uint256",
              "name": "value",
              "type": "uint256"
            },
            {
              "internalType": "bytes",
              "name": "extraData",
              "type": "bytes"
            },
            {
              "internalType": "uint256",
              "name": "proofId",
              "type": "uint256"
            }
          ],
          "internalType": "struct VerifiedClaim",
          "name": "",
          "type": "tuple"
        },
        {
          "internalType": "bytes",
          "name": "",
          "type": "bytes"
        }
      ],
      "stateMutability": "view",
      "type": "function"
    },
    {
      "inputs": [
        {
          "internalType": "uint256[2]",
          "name": "a",
          "type": "uint256[2]"
        },
        {
          "internalType": "uint256[2][2]",
          "name": "b",
          "type": "uint256[2][2]"
        },
        {
          "internalType": "uint256[2]",
          "name": "c",
          "type": "uint256[2]"
        },
        {
          "internalType": "uint256[14]",
          "name": "input",
          "type": "uint256[14]"
        }
      ],
      "name": "verifyProof",
      "outputs": [
        {
          "internalType": "bool",
          "name": "r",
          "type": "bool"
        }
      ],
      "stateMutability": "view",
      "type": "function"
    }
  ],
  "bytecode": "0x60e06040526968796472612d73322e3160b01b6080523480156200002257600080fd5b5060405162002cb438038062002cb4833981016040819052620000459162000164565b6001600160a01b0380831660a052811660c052620000626200006a565b50506200019c565b600054600190610100900460ff161580156200008d575060005460ff8083169116105b620000f55760405162461bcd60e51b815260206004820152602e60248201527f496e697469616c697a61626c653a20636f6e747261637420697320616c72656160448201526d191e481a5b9a5d1a585b1a5e995960921b606482015260840160405180910390fd5b6000805461ffff191660ff83169081176101001761ff0019169091556040519081527f7f26b83ff96e1f2b6a682f133852f6798a09c465da95921460cefb38474024989060200160405180910390a150565b80516001600160a01b03811681146200015f57600080fd5b919050565b600080604083850312156200017857600080fd5b620001838362000147565b9150620001936020840162000147565b90509250929050565b60805160a05160c051612acd620001e7600039600081816101070152610b5d0152600081816101460152818161085f0152610a5a015260008181608601526103b40152612acd6000f3fe608060405234801561001057600080fd5b506004361061007c5760003560e01c80638d15f88f1161005b5780638d15f88f146100df57806393aad15914610102578063d609382614610141578063fa7aeabd1461016857600080fd5b80627e3d4714610081578063754b377c146100bb5780638129fc1c146100d5575b600080fd5b6100a87f000000000000000000000000000000000000000000000000000000000000000081565b6040519081526020015b60405180910390f35b6100c3600181565b60405160ff90911681526020016100b2565b6100dd61018a565b005b6100f26100ed3660046122f9565b610266565b60405190151581526020016100b2565b6101297f000000000000000000000000000000000000000000000000000000000000000081565b6040516001600160a01b0390911681526020016100b2565b6101297f000000000000000000000000000000000000000000000000000000000000000081565b61017b6101763660046125d8565b61037e565b6040516100b2939291906127cf565b600054600190610100900460ff161580156101ac575060005460ff8083169116105b6102145760405162461bcd60e51b815260206004820152602e60248201527f496e697469616c697a61626c653a20636f6e747261637420697320616c72656160448201526d191e481a5b9a5d1a585b1a5e995960921b60648201526084015b60405180910390fd5b6000805461ffff191660ff83169081176101001761ff0019169091556040519081527f7f26b83ff96e1f2b6a682f133852f6798a09c465da95921460cefb38474024989060200160405180910390a150565b6000610270612024565b604080518082018252875181526020808901518183015290835281516080810183528751518184019081528851830151606083015281528251808401845288830180515182525183015181840152818301528382015281518083018352865181528682015181830152838301528151600e8082526101e08201909352600092909182016101c08036833701905050905060005b600e811015610352578481600e811061031e5761031e61285a565b60200201518282815181106103355761033561285a565b60209081029190910101528061034a81612886565b915050610303565b5061035d8183610480565b60000361036f57600192505050610376565b6000925050505b949350505050565b6040805160a08101825260008082526020820181905291810182905260608082015260808101919091526103b0612075565b60607f00000000000000000000000000000000000000000000000000000000000000008460600151146103fe57836060015160405163e84925c760e01b815260040161020b91815260200190565b602080850151855160408701516080880151805193949293919260009261042b9290810182019101612910565b9050600061043882610672565b9050600061044782878e61074c565b9050600061045783878f8f6109ae565b90506104638386610d24565b61046c84610d7b565b909c909b5092995091975050505050505050565b60007f30644e72e131a029b85045b68181585d2833e84879b9709143e1f593f0000001816104ac610dba565b9050806080015151855160016104c291906129d8565b146105045760405162461bcd60e51b81526020600482015260126024820152711d995c9a599a595c8b5898590b5a5b9c1d5d60721b604482015260640161020b565b604080518082019091526000808252602082018190525b86518110156105f557838782815181106105375761053761285a565b60200260200101511061058c5760405162461bcd60e51b815260206004820152601f60248201527f76657269666965722d6774652d736e61726b2d7363616c61722d6669656c6400604482015260640161020b565b6105e1826105dc85608001518460016105a591906129d8565b815181106105b5576105b561285a565b60200260200101518a85815181106105cf576105cf61285a565b6020026020010151611760565b6117f6565b9150806105ed81612886565b91505061051b565b5061061e8183608001516000815181106106115761061161285a565b60200260200101516117f6565b9050610654610630866000015161188f565b8660200151846000015185602001518587604001518b60400151896060015161192e565b610664576001935050505061066c565b600093505050505b92915050565b61067a6120ab565b604051806101a0016040528061068f84611ab9565b6001600160a01b031681526020016106a684611ace565b81526020016106b484611add565b81526020016106c284611b35565b81526020016106d084611b44565b81526020016106de84611b53565b81526020016106ec84611b62565b81526020016106fa84611b71565b815260200161070884611b80565b815260200161071684611b8f565b815260200161072484611b9e565b815260200161073284611bad565b1515815260200161074284611bc6565b1515905292915050565b6040805160a081018252600080825260208201819052918101829052606080820152608081019190915260008351600481111561078b5761078b612702565b036107c057506040805160a08101825260008082526020820181905291810182905260608082015260808101919091526109a7565b60006001845160048111156107d7576107d7612702565b036108335761014085015160801b6001600160801b031980821690851614610826576040516359a8e1af60e11b81526001600160801b031980831660048301528516602482015260440161020b565b505061012084015161095c565b610180850151151560000361085b57604051636e5a37a560e11b815260040160405180910390fd5b60007f00000000000000000000000000000000000000000000000000000000000000006001600160a01b03166359a80d0d6040518163ffffffff1660e01b81526004016040805180830381865afa1580156108ba573d6000803e3d6000fd5b505050506040513d601f19601f820116820180604052508101906108de91906129eb565b8051604088015151919250141580610903575060208082015160408801519091015114155b1561094e5780516020820151604088015180519060015b602002015160405163318d812b60e01b8152600481019490945260248401929092526044830152606482015260840161020b565b505083516001600160a01b03165b6040518060a001604052808560000151600481111561097d5761097d612702565b81526020018560200151151581526020018281526020018560600151815260200160008152509150505b9392505050565b6109b6612075565b6000846060015160068111156109ce576109ce612702565b036109e2576109db612075565b9050610376565b83604001518560c0015114610a0a57604051634e12db9d60e11b815260040160405180910390fd5b6000610a20856000015186602001518686611bd5565b905080866080015114610a56576080860151604051639272016360e01b815260048101919091526024810182905260440161020b565b60007f00000000000000000000000000000000000000000000000000000000000000006001600160a01b03166359a80d0d6040518163ffffffff1660e01b81526004016040805180830381865afa158015610ab5573d6000803e3d6000fd5b505050506040513d601f19601f82011682018060405250810190610ad991906129eb565b8051604089015151919250141580610afe575060208082015160408901519091015114155b15610b1957805160208201516040890151805190600161091a565b6101608701511515600003610b4157604051630e37fef760e21b815260040160405180910390fd5b606087015160405163fbacef5f60e01b815260048101919091527f00000000000000000000000000000000000000000000000000000000000000006001600160a01b03169063fbacef5f90602401602060405180830381865afa158015610bac573d6000803e3d6000fd5b505050506040513d601f19601f82011682018060405250810190610bd09190612a07565b610bf5578660600151604051632a2172c960e01b815260040161020b91815260200190565b6000610c0987600001518860200151611c5d565b9050808860e0015114610c3f5760e088015160405163fe405c7760e01b815260048101919091526024810182905260440161020b565b6101008801516001146000600389606001516006811115610c6257610c62612702565b1490508115158114610cac5789610100015189606001516006811115610c8a57610c8a612702565b6040516304269eaf60e21b81526004810192909252602482015260440161020b565b6040518060c001604052808a600001516001600160801b03191681526020018a602001516001600160801b03191681526020018a606001516006811115610cf557610cf5612702565b81526020018a6040015181526020018a6080015181526020018b60a00151815250505050505050949350505050565b8051600003610d31575050565b808051906020012060001c826020015114610d775760208083015182519183019190912060405163226de86760e11b81526004810192909252602482015260440161020b565b5050565b8051805160208083015160409093015190840151610d9a939190610266565b610db7576040516309bde33960e01b815260040160405180910390fd5b50565b610dc261211b565b6040805180820182527f2d4d9aa7e302d9df41749d5507949d05dbea33fbb16c643b22f599a2be6df2e281527f14bedd503c37ceb061d8ec60209fe345ce89830a19230301f076caff004d19266020808301919091529083528151608080820184527f0967032fcbf776d1afc985f88877f182d38480a653f2decaa9794cbc3bf3060c8285019081527f0e187847ad4c798374d0d6732bf501847dd68bc0e071241e0213bc7fc13db7ab606080850191909152908352845180860186527f304cfbd1e08a704a99f5e847d93f8c3caafddec46b7a0d379da69a4d112346a781527f1739c1b1a457a8c7313123d24d2f9192f896b7c63eea05a9d57f06547ad0cec8818601528385015285840192909252835180820185527f198e9393920d483a7260bfb731fb5d25f1aa493335a9e71297e485b7aef312c28186019081527f1800deef121f1e76426a00665e5c4479674322d4f75edadd46debd5cd992f6ed828501528152845180860186527f090689d0585ff075ec9e99ad690c3395bc4b313370b38ef355acdadcd122975b81527f12c85ea5db8c6deb4aab71808dcb408fe3d1e7690c43d37b4ce6cc0166fa7daa818601528185015285850152835190810184527f219ddeeb85b05513476c15dfb0c846bb4b3464e439d0e3f100b4efeaf058d6e98185019081527f07b636846e9e004fb2d2e819a1114bc9f8419aaa1b20143f522c4bd24fde6650828401528152835180850185527f1a598e4924dd54b2f7a57bd479a4f893e058d46ed4725788d02e59f522662eb681527f0616f49f257723d180b7aee5b4e6daf206e08c830cf9aa1bdeb9f088240908988185015281840152908401528151600f8082526102008201909352919082015b604080518082019091526000808252602082015281526020019060019003908161103e57505060808201908152604080518082019091527f014d3371808f9c3d8a6c984861673c8b825be9e2165f4b9186fb682702e91de681527f034feb2e2734c25fc7b211738e6700c316cc954de346e473ceb60b248ff662896020820152905180516000906110d1576110d161285a565b602002602001018190525060405180604001604052807f26b1f3f6835857553694befd5d13f35c6adc7ef84deed67573341c06d0331b8e81526020017f0abb1c6bce91984433bbd294b73e0df079f471332919f7a00110bce11b50003181525081608001516001815181106111485761114861285a565b602002602001018190525060405180604001604052807f0258c7d36a4d0cac1066b0e251b7a81e218a72071552d50b2d77a39eb0e8868681526020017f19ff210dcc86787c8cf70f0000ba7cc6a28b9cabb5e17808a8c8405295ca5cfa81525081608001516002815181106111bf576111bf61285a565b602002602001018190525060405180604001604052807f10a2faabb657aeeade9b08054b800be564bab8e2ddd44097724d9f4e42f1301281526020017f07f1fe70da76be6f4177a776de71e72417d0c6935cc9ebee125aed21fab89a9f81525081608001516003815181106112365761123661285a565b602002602001018190525060405180604001604052807f03fc95fb3fce4522f96184599a9dba3a44a2196751df25959cabae705d1d4b0681526020017f0ab4e27d7966553c7f7718354282e23a9df88feb1b7b29bcb4dae701f0404f3481525081608001516004815181106112ad576112ad61285a565b602002602001018190525060405180604001604052807f105ff1e04b5f839ecf578604c9ed1a5c889c897a1f46a331a416ce1071db649881526020017f0ed17ecd790b094da0ec14144e9a791a9239ee87c3656da0136919cc1d4099ae81525081608001516005815181106113245761132461285a565b602002602001018190525060405180604001604052807f113bd22c0170e040eccfb9bbf0ddd992e773a529d1093979a3c91d71afa97a9f81526020017f1d61985e6e91d62888e08455b7aa61b3042615469e4f44edd6dabee9903ef8bd815250816080015160068151811061139b5761139b61285a565b602002602001018190525060405180604001604052807f03f6e972d8d1e0885e36cacc217bd1321f6db4f9dc10bbbfaff61505417a133381526020017f26afbf56cb345581f889f70a80bb9977e59e6d2a92a77e0d69089eb366d3c0a481525081608001516007815181106114125761141261285a565b602002602001018190525060405180604001604052807f15f44fcaf503ea9c516a069f5a095d3029c17399b5b5277191259b35429d325b81526020017f2dc45b2f53f8eb0b4d34bbbc1138e75fe768461b46cb3432b56a063b38c057f281525081608001516008815181106114895761148961285a565b602002602001018190525060405180604001604052807f02256a9d9370de9a1a8f4657474e58b432d82cead2c17a4371b3846ac40c473e81526020017f083ddb7bd0b8f58c02db0feb5c2d9814b1febcbd1091bf6b438e39afc82a203181525081608001516009815181106115005761150061285a565b602002602001018190525060405180604001604052807f1252df2b96901b88a723aa9c20f65d11f52595639543aebb79c2b6f0a791defc81526020017f2369ea6c635bf0c3b2a5ccd33c2f16e67b681ba95e56a0b153f7f6a3dd94e1ef8152508160800151600a815181106115775761157761285a565b602002602001018190525060405180604001604052807f1f42da888601dbe1236aa19d51a610db8f3444b8b25284d3c25dc896d91c877d81526020017f04d0a845ce8c4f0fca6c5311f65999fa00ba4311238efcd28b11f8e76e146b028152508160800151600b815181106115ee576115ee61285a565b602002602001018190525060405180604001604052807f1c08d6f684b8d595a45b9616f8d04341813bfc67aa290a1e9ae2fd51088f335a81526020017f12fb2ce620403dd403830f52b86badb68c543e5bede6747268757bfe811270668152508160800151600c815181106116655761166561285a565b602002602001018190525060405180604001604052807f18271afa9eb1b7e1af30d8de2bb9b9d9040a6690599a756a37b24ba784a45c0581526020017f209943f8021555ad83aba5b9cb70deff72a72e7556e686bd291dc2375848e05b8152508160800151600d815181106116dc576116dc61285a565b602002602001018190525060405180604001604052807e20108b4a8753b1927365cf2c3b64da7ed41a084cb075a2c6f7d9f702baf62c81526020017f01618e47be3b2aa1157c70a5e2145fd9127f88237c0b7d59aeeeec8441470ac28152508160800151600e815181106117525761175261285a565b602002602001018190525090565b604080518082019091526000808252602082015261177c61216c565b835181526020808501519082015260408101839052600060608360808460076107d05a03fa905080806117ab57fe5b50806117ee5760405162461bcd60e51b81526020600482015260126024820152711c185a5c9a5b99cb5b5d5b0b59985a5b195960721b604482015260640161020b565b505092915050565b604080518082019091526000808252602082015261181261218a565b8351815260208085015181830152835160408301528301516060808301919091526000908360c08460066107d05a03fa9050808061184c57fe5b50806117ee5760405162461bcd60e51b81526020600482015260126024820152711c185a5c9a5b99cb5859190b59985a5b195960721b604482015260640161020b565b604080518082019091526000808252602082015281517f30644e72e131a029b85045b68181585d97816a916871ca8d3c208c16d87cfd47901580156118d657506020830151155b156118f65750506040805180820190915260008082526020820152919050565b60405180604001604052808460000151815260200182856020015161191b9190612a24565b6119259084612a46565b90529392505050565b60408051600480825260a08201909252600091829190816020015b604080518082019091526000808252602082015281526020019060019003908161194957505060408051600480825260a0820190925291925060009190602082015b6119936121a8565b81526020019060019003908161198b5790505090508a826000815181106119bc576119bc61285a565b602002602001018190525088826001815181106119db576119db61285a565b602002602001018190525086826002815181106119fa576119fa61285a565b60200260200101819052508482600381518110611a1957611a1961285a565b60200260200101819052508981600081518110611a3857611a3861285a565b60200260200101819052508781600181518110611a5757611a5761285a565b60200260200101819052508581600281518110611a7657611a7661285a565b60200260200101819052508381600381518110611a9557611a9561285a565b6020026020010181905250611aaa8282611c94565b9b9a5050505050505050505050565b6020810151600090815b602002015192915050565b60208101516000906001611ac3565b611ae56121c4565b604051806040016040528083602001516002600e8110611b0757611b0761285a565b6020020151815260200183602001516003600e8110611b2857611b2861285a565b6020020151905292915050565b60208101516000906004611ac3565b60208101516000906005611ac3565b60208101516000906006611ac3565b60208101516000906007611ac3565b60208101516000906008611ac3565b60208101516000906009611ac3565b6020810151600090600a611ac3565b6020810151600090600b611ac3565b6020810151600090600c5b602002015160011492915050565b6020810151600090600d611bb8565b600080611be28686611fec565b90506000611bf08585611fec565b90507f30644e72e131a029b85045b68181585d2833e84879b9709143e1f593f00000018183604051602001611c2f929190918252602082015260400190565b6040516020818303038152906040528051906020012060001c611c529190612a24565b979650505050505050565b60007f30644e72e131a029b85045b68181585d2833e84879b9709143e1f593f0000001611c8a8484611fec565b6109a79190612a24565b60008151835114611ce05760405162461bcd60e51b81526020600482015260166024820152751c185a5c9a5b99cb5b195b99dd1a1ccb59985a5b195960521b604482015260640161020b565b82516000611cef826006612a59565b905060008167ffffffffffffffff811115611d0c57611d0c612200565b604051908082528060200260200182016040528015611d35578160200160208202803683370190505b50905060005b83811015611f7057868181518110611d5557611d5561285a565b60200260200101516000015182826006611d6f9190612a59565b611d7a9060006129d8565b81518110611d8a57611d8a61285a565b602002602001018181525050868181518110611da857611da861285a565b60200260200101516020015182826006611dc29190612a59565b611dcd9060016129d8565b81518110611ddd57611ddd61285a565b602002602001018181525050858181518110611dfb57611dfb61285a565b6020908102919091010151515182611e14836006612a59565b611e1f9060026129d8565b81518110611e2f57611e2f61285a565b602002602001018181525050858181518110611e4d57611e4d61285a565b60209081029190910181015151015182611e68836006612a59565b611e739060036129d8565b81518110611e8357611e8361285a565b602002602001018181525050858181518110611ea157611ea161285a565b602002602001015160200151600060028110611ebf57611ebf61285a565b602002015182611ed0836006612a59565b611edb9060046129d8565b81518110611eeb57611eeb61285a565b602002602001018181525050858181518110611f0957611f0961285a565b602002602001015160200151600160028110611f2757611f2761285a565b602002015182611f38836006612a59565b611f439060056129d8565b81518110611f5357611f5361285a565b602090810291909101015280611f6881612886565b915050611d3b565b50611f796121e2565b6000602082602086026020860160086107d05a03fa90508080611f9857fe5b5080611fde5760405162461bcd60e51b81526020600482015260156024820152741c185a5c9a5b99cb5bdc18dbd9194b59985a5b1959605a1b604482015260640161020b565b505115159695505050505050565b604080516001600160801b0319808516602083015283166030820152600091016040516020818303038152906040526109a790612a70565b6040805160a08101909152600060608201818152608083019190915281526020810161204e6121a8565b8152602001612070604051806040016040528060008152602001600081525090565b905290565b6040805160c081018252600080825260208201819052909182019081526020016000815260200160608152602001600081525090565b604080516101a081018252600080825260208201529081016120cb6121c4565b815260200160008152602001600081526020016000815260200160008152602001600081526020016000815260200160008152602001600081526020016000151581526020016000151581525090565b6040805160e08101909152600060a0820181815260c08301919091528152602081016121456121a8565b81526020016121526121a8565b815260200161215f6121a8565b8152602001606081525090565b60405180606001604052806003906020820280368337509192915050565b60405180608001604052806004906020820280368337509192915050565b60405180604001604052806121bb6121c4565b81526020016120705b60405180604001604052806002906020820280368337509192915050565b60405180602001604052806001906020820280368337509192915050565b634e487b7160e01b600052604160045260246000fd5b60405160c0810167ffffffffffffffff8111828210171561223957612239612200565b60405290565b6040805190810167ffffffffffffffff8111828210171561223957612239612200565b6040516060810167ffffffffffffffff8111828210171561223957612239612200565b6040516101c0810167ffffffffffffffff8111828210171561223957612239612200565b600082601f8301126122ba57600080fd5b6122c261223f565b8060408401858111156122d457600080fd5b845b818110156122ee5780358452602093840193016122d6565b509095945050505050565b6000806000806102c080868803121561231157600080fd5b61231b87876122a9565b9450604087605f88011261232e57600080fd5b61233661223f565b8060c089018a81111561234857600080fd5b838a015b8181101561236d5761235e8c826122a9565b8452602090930192840161234c565b5081975061237b8b826122a9565b9650505050508661011f87011261239157600080fd5b612399612285565b9086019080888311156123ab57600080fd5b61010088015b838110156123c95780358352602092830192016123b1565b509598949750929550505050565b80356001600160801b0319811681146123ef57600080fd5b919050565b600082601f83011261240557600080fd5b813567ffffffffffffffff8082111561242057612420612200565b604051601f8301601f19908116603f0116810190828211818310171561244857612448612200565b8160405283815286602085880101111561246157600080fd5b836020870160208301376000602085830101528094505050505092915050565b600060a0828403121561249357600080fd5b60405160a0810167ffffffffffffffff82821081831117156124b7576124b7612200565b816040528293506124c7856123d7565b83526124d5602086016123d7565b60208401526040850135604084015260608501359150600782106124f857600080fd5b816060840152608085013591508082111561251257600080fd5b5061251f858286016123f4565b6080830152505092915050565b8015158114610db757600080fd5b60006080828403121561254c57600080fd5b6040516080810167ffffffffffffffff828210818311171561257057612570612200565b81604052829350843591506005821061258857600080fd5b90825260208401359061259a8261252c565b8160208401526040850135604084015260608501359150808211156125be57600080fd5b506125cb858286016123f4565b6060830152505092915050565b6000806000606084860312156125ed57600080fd5b6125f6846123d7565b9250612604602085016123d7565b9150604084013567ffffffffffffffff8082111561262157600080fd5b9085019060c0828803121561263557600080fd5b61263d612216565b82358281111561264c57600080fd5b61265889828601612481565b82525060208301358281111561266d57600080fd5b6126798982860161253a565b60208301525060408301358281111561269157600080fd5b61269d898286016123f4565b604083015250606083013560608201526080830135828111156126bf57600080fd5b6126cb898286016123f4565b60808301525060a0830135828111156126e357600080fd5b6126ef898286016123f4565b60a0830152508093505050509250925092565b634e487b7160e01b600052602160045260246000fd5b6000815180845260005b8181101561273e57602081850181015186830182015201612722565b506000602082860101526020601f19601f83011685010191505092915050565b60006001600160801b03198083511684528060208401511660208501525060408201516007811061279157612791612702565b8060408501525060608201516060840152608082015160c060808501526127bb60c0850182612718565b60a093840151949093019390935250919050565b6060815260008451600581106127e7576127e7612702565b80606084015250602085015115156080830152604085015160a0830152606085015160a060c084015261281e610100840182612718565b9050608086015160e0840152828103602084015261283c818661275e565b905082810360408401526128508185612718565b9695505050505050565b634e487b7160e01b600052603260045260246000fd5b634e487b7160e01b600052601160045260246000fd5b60006001820161289857612898612870565b5060010190565b600082601f8301126128b057600080fd5b6128b861223f565b8060408401858111156128ca57600080fd5b845b818110156122ee5780518452602093840193016128cc565b600082601f8301126128f557600080fd5b6128fd612285565b806101c08401858111156128ca57600080fd5b60008183036102c081121561292457600080fd5b61292c61223f565b6101008083121561293c57600080fd5b612944612262565b9250612950868661289f565b8352604086605f87011261296357600080fd5b61296b61223f565b8060c088018981111561297d57600080fd5b8389015b818110156129a2576129938b8261289f565b84526020909301928401612981565b508160208801526129b38a8261289f565b84880152505050508282526129ca868287016128e4565b602083015250949350505050565b8082018082111561066c5761066c612870565b6000604082840312156129fd57600080fd5b6109a7838361289f565b600060208284031215612a1957600080fd5b81516109a78161252c565b600082612a4157634e487b7160e01b600052601260045260246000fd5b500690565b8181038181111561066c5761066c612870565b808202811582820484141761066c5761066c612870565b80516020808301519190811015612a91576000198160200360031b1b821691505b5091905056fea264697066735822122078ade5faaf0248b5e418b1fc48df6cbc605a28d73ac16fb1470678b196c340d564736f6c63430008110033",
  "linkReferences": {},
  "deployedLinkReferences": {}
}